:0400000095EF05F083
:1006000000040E1F1F04041408000A1F1F1F0E04FD
:10061000004D724368756E636B756565212100003E
:1006200020EE13F010EE2BF0090EDBCFE3FFE8060F
:10063000FCE22B502C10D8B420EF03F022EF03F093
:100640007AEF03F034C01DF0010E1E6E1D2A2BEF51
:1006500003F0D8901E361D2E29EF03F033C01FF093
:10066000010E206E1F2A37EF03F0D89020361F2E80
:1006700035EF03F032C021F0010E226E212A43EF44
:1006800003F0D8902236212E41EF03F031C023F041
:10069000010E246E232A4FEF03F0D8902436232E28
:1006A0004DEF03F030C025F0010E266E252A5BEFDA
:1006B00003F0D8902636252E59EF03F02FC027F0EF
:1006C000010E286E272A67EF03F0D8902836272ED0
:1006D00065EF03F0285026102410221020101E1061
:1006E000FF0A296E2BC0D9FF2CC0DAFF2950DF1674
:1006F000ADEF03F0800E2D1807E10F0E2E18D8A4D1
:1007000084EF03F086EF03F08AEF03F0000E926EA1
:10071000ADEF03F0810E2D1807E10F0E2E18D8A4AF
:1007200094EF03F096EF03F09AEF03F0000E936E50
:10073000ADEF03F0820E2D1807E10F0E2E18D8A48E
:10074000A4EF03F0A6EF03F0AAEF03F0000E946EFF
:10075000ADEF03F0000EF6EF03F0680E1D6EE40E31
:10076000E82EFED71D2EFCD700D02FC01DF0010EA5
:100770001E6E1D2ABEEF03F0D8901E361D2EBCEF54
:1007800003F01E50FF0A1F6E2DC0D9FF2EC0DAFFE6
:100790001F50DF16030EEEEC04F01A0E1D6EF80E5D
:1007A000E82EFED71D2EFCD700D0030EEEEC04F091
:1007B000540E1D6E1C0EE82EFED71D2EFCD700D049
:1007C000030EEEEC04F0020EEEEC04F0280E75ECD5
:1007D00005F0060E75EC05F0080E2A6E2A842A50E4
:1007E00075EC05F0010E75EC05F0010E12000A6EB5
:1007F00034C001F0010E026E012A01EF04F0D8901E
:100800000236012EFFEF03F033C003F0010E046E39
:10081000032A0DEF04F0D8900436032E0BEF04F0FA
:1008200032C005F0010E066E052A19EF04F0D890CB
:100830000636052E17EF04F031C007F0010E086EE2
:10084000072A25EF04F0D8900836072E23EF04F08E
:100850000850061004100210FF0A096E2DC0D9FFBF
:100860002EC0DAFF0950DF160AA039EF04F03BEF83
:1008700004F04DEF04F031C001F0010E026E012AC8
:1008800044EF04F0D8900236012E42EF04F02DC060
:10089000D9FF2EC0DAFF0250DF120AA252EF04F095
:1008A00054EF04F066EF04F032C001F0010E026E66
:1008B000012A5DEF04F0D8900236012E5BEF04F0C0
:1008C0002DC0D9FF2EC0DAFF0250DF120AA46BEF51
:1008D00004F06DEF04F07FEF04F033C001F0010E7F
:1008E000026E012A76EF04F0D8900236012E74EFE2
:1008F00004F02DC0D9FF2EC0DAFF0250DF120AA685
:1009000084EF04F086EF04F098EF04F034C001F0B7
:10091000010E026E012A8FEF04F0D8900236012EEC
:100920008DEF04F02DC0D9FF2EC0DAFF0250DF1288
:100930001200CFEC05F020EE35F000EE13F0090EBA
:10094000DBCFEBFFE806FCE210EC03F0090E136EC0
:10095000060E146E000E4DEC05F0010E136E060E21
:10096000146E010E4DEC05F0010E75EC05F0800ED5
:1009700075EC05F0110E126E060E136E22EC05F0EA
:10098000C00E75EC05F0000EB2EC05F0C10E75EC72
:1009900005F0010EB2EC05F0C40E75EC05F0FF0E8B
:1009A000B2EC05F0C50E75EC05F0FC0EB2EC05F0EE
:1009B000C60E75EC05F0F40EB2EC05F0C70E75EC42
:1009C00005F0EE0EB2EC05F0C80E75EC05F0F70E72
:1009D000B2EC05F0EAEF04F000EF00F00E6E0E50FE
:1009E000F7EC03F030C00BF0010E0C6E0B2AFBEF9E
:1009F00004F0D8900C360B2EF9EF04F02DC0D9FF7F
:100A00002EC0DAFF0C50DF12150E0B6EC60EE82E4C
:100A1000FED70B2EFCD700D030C00BF0010E0C6EB1
:100A20000B2A15EF05F0D8900C360B2E13EF05F0BE
:100A30000C50FF0A0D6E2DC0D9FF2EC0DAFF0D50ED
:100A4000DF161200000E176E000E166E38EF05F05E
:100A500016501224146E17501320156E14C0F6FF92
:100A600015C0F7FF0800F550B2EC05F0164A172A3A
:100A700016501224146E17501320156E14C0F6FF72
:100A800015C0F7FF0800F5500009D8A44AEF05F09B
:100A90004CEF05F028EF05F01200176E17C015F0A7
:100AA000070E1516D8901536D8901536D8901534EF
:100AB000400975EC05F0000E186E18501324156EE1
:100AC000000E1420166E15C0F6FF16C0F7FF0800C2
:100AD000F550B2EC05F0182A070E186472EF05F015
:100AE00074EF05F05DEF05F01200126E2FC00FF0ED
:100AF000010E106E0F2A7FEF05F0D89010360F2EE2
:100B00007DEF05F01050FF0A116E2DC0D9FF2EC0E9
:100B1000DAFF1150DF1612380F0B0F0BEEEC04F05A
:100B200012500F0BEEEC04F01200B20EF66E0B0E2C
:100B3000F76E000EF86E00EE35F010EE0AF00900C8
:100B4000F5CFEEFFE550E150FAE100EE2BF00A0E92
:100B5000EE6AE806FDE1000EF86E060EF76E000183
:100B600099EF04F0116E2FC00FF0010E106E0F2AD6
:100B7000BCEF05F0D89010360F2EBAEF05F02DC05F
:100B8000D9FF2EC0DAFF1050DF1211380F0B0F0BF8
:100B9000EEEC04F011500F0BEEEC04F01200000E1E
:100BA0000F01386F000E396F000E3A6F700ED312BE
:0C0BB0001200930F810F000104050607DE
:020000040020DA
:08000000FFFFFFFFFFFFFFFF00
:020000040030CA
:0E000000FF28193CFFB581FF0FC00FE00F4035
:00000001FF
