:0400000085EF3DF05B
:107A3E00700ED312120031EC3DF01FEC3DF012002F
:107A4E00100E286E100E296E100E2A6E100ED9EC26
:107A5E003EF01200000E0F01386F000E396F000E4F
:107A6E003A6F000E936E000E946E000E816E000E35
:047A7E00826E120002
:107A8300A0F66162362A28E620222438A970292D1F
:107A9300FF7F7F7F7F25A938B8F224367F7F7F7FE2
:107AA3000422EC3DF027EC3DF0150E396E4B0E38F9
:107AB3006EBE0EE82EFED7382EFCD7392EFAD7002D
:107AC300D038EC3EF07DEC3EF064EF3DF000EF008B
:107AD300F0000E276E78EF3DF03A0E2724D96EDAC8
:107AE3006A000EDA22DF50A0EC3DF0272A275080EF
:107AF3000A7C0FD8A080EF3DF082EF3DF06EEF3DA2
:107B0300F08A828A921200830EF66E7A0EF76E0066
:107B13000EF86E00EE01F010EE21F00900F5CFEE45
:107B2300FFE550E150FAE100EE3AF0070EEE6AE8A5
:107B330006FDE1000EF86E000152EF3DF0256E00E8
:107B43000E266E26C022F0800E236E000E246E22B7
:107B53002AAFEF3DF0243424322332222EACEF3D02
:107B6300F0235025140009D8B4BAEF3DF0BCEF3D23
:107B7300F0BFEF3DF08A80C0EF3DF08A908A848A9F
:107B830094262A070E2664C9EF3DF0CBEF3DF0A300
:107B9300EF3DF0120024502510D8B4D3EF3DF0D5BB
:107BA300EF3DF0F9EF3DF0010E266EDDEF3DF0D82D
:107BB3009024362536262A25AEE2EF3DF0E4EF3D4C
:107BC300F0D9EF3DF02450225C25502358D8A0ED86
:107BD300EF3DF0EFEF3DF0F3EF3DF02450225E2553
:107BE30050235AD89025322432262EE4EF3DF0223A
:107BF300C022F023C023F01200000E2C6E000E2BC7
:107C03006E29502A10D8B409EF3EF00BEF3EF03343
:107C1300EF3EF0010E2D6E13EF3EF0D89029362A79
:107C2300362D2A2AAE18EF3EF01AEF3EF00FEF3E44
:107C3300F0D8902B362C362950275C2A502858D858
:107C4300A026EF3EF028EF3EF02DEF3EF02950271F
:107C53005E2A50285A2B80D8902A3229322D2E1A88
:107C6300EF3EF02BC027F02CC028F01200000E2AA4
:107C73006E120E4024D96EDA6A000EDA22DF503D0E
:107C83006E130E4024D96EDA6A000EDA22DF503CFE
:107C93006E140E4024D96EDA6A000EDA22DF503BEE
:107CA3006E150E4024D96EDA6A000EDA22DF503ADE
:107CB3006E6AEC3DF0402A0B0E4018D8A464EF3EE8
:107CC300F066EF3EF068EF3EF0000E406E0B0E29BB
:107CD3006E260E286E5E0EE82EFED7282EFCD729C0
:107CE3002EFAD72A2A370E2A647AEF3EF07CEF3E2B
:107CF300F03AEF3EF0120027EC3DF0150E356E4BD7
:107D03000E346EBE0EE82EFED7342EFCD7352EFA77
:107D1300D700D00B0E286E0C0E296E0D0E2A6E0A9C
:107D23000ED9EC3EF0150E356E4B0E346EBE0EE8DA
:107D33002EFED7342EFCD7352EFAD700D00D0E28C1
:107D43006E0E0E296E0F0E2A6E0C0ED9EC3EF01538
:107D53000E356E4B0E346EBE0EE82EFED7342EFC5F
:107D6300D7352EFAD700D0000E376E000E366E369A
:107D7300C02EF037C02FF03DEC3FF0050E356E0FEF
:107D83000E346EF10EE82EFED7342EFCD7352EFAC4
:107D9300D700F0364A372A100E365C270E3758D8EC
:107DA300A0D6EF3EF0D8EF3EF0B9EF3EF012002D33
:107DB3006E1CEF3FF011C03BF0010E2D24D96EDA9B
:107DC3006A000EDA22DF503A6E3AEF3FF0010E2DD1
:107DD30024D96EDA6A000EDA22DF503B6E010E28D8
:107DE30024D96EDA6A000EDA22DF503A6E3AEF3F98
:107DF300F0010E2D24D96EDA6A000EDA22DF503D2F
:107E03006E010E2824D96EDA6A000EDA22DF503CA6
:107E13006E010E2924D96EDA6A000EDA22DF503B96
:107E23006E010E2A24D96EDA6A000EDA22DF503A86
:107E33006E3AEF3FF0040E2B6E000E2C6E2C5000AA
:107E43000AD8B427EF3FF03AEF3FF02B50010AD89E
:107E5300B4DCEF3EF0030AD8B4E8EF3EF0010AD8F1
:107E6300B43AEF3FF0070AD8B4FAEF3EF03AEF3FE7
:107E7300F06AEC3DF01200100E306E100E316E10F1
:107E83000E326E2F5007E10A0E2E5CD8B04CEF3F36
:107E9300F04EEF3FF052EF3FF02EC033F0F6EF3FDE
:107EA300F02F5007E1640E2E5CD8B05BEF3FF05D1E
:107EB300EF3FF077EF3FF02EC022F02FC023F0000A
:107EC3000E256E0A0E246ECCEC3DF02250336E2E3E
:107ED300C027F02FC028F0000E2A6E0A0E296EFE6E
:107EE300EC3DF02750326EF6EF3FF0E80E2E5C03C8
:107EF3000E2F58D8B080EF3FF082EF3FF0B2EF3F44
:107F0300F02EC022F02FC023F0000E256E0A0E249F
:107F13006ECCEC3DF02250336E000E256E640E24C1
:107F23006E2EC022F02FC023F0CCEC3DF022C027F0
:107F3300F023C028F0000E2A6E0A0E296EFEEC3DD7
:107F4300F02750326E2EC027F02FC028F0000E2AE3
:107F53006E640E296EFEEC3DF02750316EF6EF3F56
:107F6300F02EC022F02FC023F0000E256E0A0E243F
:107F73006ECCEC3DF02250336E000E256E640E2461
:107F83006E2EC022F02FC023F0CCEC3DF022C02790
:107F9300F023C028F0000E2A6E0A0E296EFEEC3D77
:107FA300F02750326E030E256EE80E246E2EC0228B
:107FB300F02FC023F0CCEC3DF022C027F023C028E3
:107FC300F0000E2A6E640E296EFEEC3DF027503150
:107FD3006E2EC027F02FC028F0030E2A6EE80E295C
:107FE3006EFEEC3DF02750306E31C028F032C029D0
:0D7FF300F033C02AF03050D9EC3EF01200FF
:020000040020DA
:08000000FFFFFFFFFFFFFFFF00
:020000040030CA
:0E000000FF28193CFFB581FF0FC00FE00F4035
:00000001FF
