:0400000099EF04F080
:10060000004573637269626520616C676F207920B1
:100610006C6F206465766F6C766572653A200D0AA2
:10062000005541525420496E696369616C697A6171
:09063000646F2E2E2E0D0A00004D
:10063A00000E0A6E08BE26EF03F024EF03F030EF37
:10064A0003F0081E071E061E056C000E062207226E
:10065A000822010E0A6E04BE37EF03F035EF03F0ED
:10066A0041EF03F0041E031E021E016C000E02225B
:10067A0003220422010E0A1A000E0B6E000E0C6EE3
:10068A00000E0D6E000E0E6E0550061007100810B3
:10069A00D8B452EF03F054EF03F08AEF03F0010EDF
:1006AA00096E5EEF03F0D89005360636073608362F
:1006BA00092A08AE63EF03F065EF03F058EF03F081
:1006CA00D8900B360C360D360E360550015C0650A6
:1006DA0002580750035808500458D8A077EF03F07F
:1006EA0079EF03F082EF03F00550015E0650025ADB
:1006FA000750035A0850045A0B80D8900832073220
:10070A0006320532092E65EF03F00A50D8B490EF8D
:10071A0003F092EF03F09AEF03F00E1E0D1E0C1E6B
:10072A000B6C000E0C220D220E220BC001F00CC025
:10073A0002F00DC003F00EC004F0120044EC04F005
:10074A00800E0F6E250E106E000E116E000E126EC8
:10075A0025EC04F00B0E146E260E136E5E0EE82EB8
:10076A00FED7132EFCD7142EFAD7210E026E060ED0
:10077A00036E61EC04F0010E026E060E036E61EC6C
:10078A0004F07CEC04F0156E15508EEC04F0410E6A
:10079A001518D8A4D3EF03F0D5EF03F0E9EF03F06F
:1007AA008BB4DAEF03F0DDEF03F0010EDEEF03F0B6
:1007BA00000EFF0A136E134613468B501318FB0BD9
:1007CA0013188B6EC6EF03F0530E1518D8A4F0EF6A
:1007DA0003F0F2EF03F007EF04F08BB6F7EF03F044
:1007EA00FAEF03F0010EFBEF03F0000EFF0A136E9F
:1007FA001346134613468B501318F70B13188B6EB8
:10080A00C6EF03F0440E1518D8A40EEF04F010EF4B
:10081A0004F0C6EF03F08BB815EF04F018EF04F0FC
:10082A00010E19EF04F0000EFF0A136E133A8B50F3
:10083A001318EF0B13188B6EC6EF03F000EF00F0DE
:10084A00949C948E0F013A9D3A9F900E016ED00EA1
:10085A00026E030E036E000E046E0FC005F010C088
:10086A0006F011C007F012C008F01DEC03F00104F5
:10087A00AF6EAC94AC98AB8EAC8AAB881200000E0B
:10088A000F01386F000E396F000E3A6F000E926E2C
:10089A00000E936E800E946E000E896E000E8A6EA4
:1008AA00000E8B6E700ED312340E016EF20EE82E0D
:1008BA00FED7012EFCD712006DEF04F002C0F6FF3E
:1008CA0003C0F7FF0800F5508EEC04F0024A032A31
:1008DA0002C0F6FF03C0F7FF0800F5500009D8A4CC
:1008EA0079EF04F07BEF04F063EF04F01200ABA29F
:1008FA0081EF04F083EF04F085EF04F0AB98AB8846
:10090A009EAA8AEF04F08CEF04F085EF04F0AE5053
:10091A001200016EACA294EF04F096EF04F08FEF90
:10092A0004F001C0ADFF1200000EF86E060EF76E5D
:06093A000001A3EF03F031
:020000040020DA
:08000000FFFFFFFFFFFFFFFF00
:020000040030CA
:0E000000FF28193CFFB581FF0FC00FE00F4035
:00000001FF
