:0400000087EF32F064
:0262EE0012009C
:1062F100930F810F0304050607D00E076E000E836E
:10630100EC31F01200086E08C05FF00750FE0B5E22
:106311006E83EC33F012006B80A4AE92EF31F094F7
:10632100EF31F08DEF31F0A49E12006B84A4AE9C8E
:10633100EF31F09EEF31F097EF31F0A49E12006B38
:1063410086A4AEA6EF31F0A8EF31F0A1EF31F0A4B1
:106351009E6F501200026E02C001F00F0E01160274
:10636100380F0B0A0DF350012412006B9A6B88A4AD
:10637100AEBDEF31F0BFEF31F0B8EF31F0A49E12B6
:10638100006B8A6B88A4AEC8EF31F0CAEF31F0C35D
:10639100EF31F0A49E12000C6E0C508009066E00C5
:1063A1000E6EEC35F00B504009066E000E6EEC35AA
:1063B100F0120001500302F3CF05F0F4CF06F00113
:1063C100500402F350062602500302F3500626053C
:1063D100C001F006C002F01200056EB2EC33F0000D
:1063E10009D8B4F6EF31F0F8EF31F000EF32F005F3
:1063F1005001EC32F0045001EC32F096EC31F01225
:1064010000016E01C06FFFA4AE09EF32F00BEF3255
:10641100F004EF32F0A49E6BBC11EF32F014EF32B6
:10642100F0010E15EF32F0000E120001C003F00270
:10643100C004F01EEF32F0014A022A01C0D9FF0266
:10644100C0DAFFDF50D8A428EF32F02AEF32F01C77
:10645100EF32F00350015C016E04500258026E12DB
:1064610000D00E036EFF0E046E01C005F002C006DF
:10647100F0035005260450062206500AE10A0E05D3
:106481005CD8A046EF32F049EF32F0010E4AEF320C
:10649100F0000E016E026A1200000E0F01386F004B
:1064A1000E396F000E3A6F000E926E000E936E0061
:1064B1000E946E000E896E000E8A6E000E8B6E7049
:1064C1000ED312340E016EF20EE82EFED7012EFC11
:1064D100D71200046E000E056EB2EC33F00009D83D
:1064E100B475EF32F077EF32F085EF32F0045001FE
:1064F100EC32F08CEC31F05E50010901EC32F0A08D
:10650100EC31F0056E96EC31F005501200F10EF60B
:106511006E620EF76E000EF86E00EEC9F010EE0915
:10652100F00900F5CFEEFFE550E150FAE100EE98F9
:10653100F0310EEE6AE806FDE15F6A5E6A000EF870
:106541006E00016FEF39F0000E0E6E000E0D6E0041
:106551000E066E010E6EEC35F00D4A0E2A0EBEBB14
:10656100EF32F0F80E0D5C010E0E58D8A0BBEF32E1
:10657100F0BDEF32F0A8EF32F0000E0B6E000ECC42
:10658100EC31F0120014BED0EF32F0145006E113DA
:1065910004D8B0CEEF32F0D0EF32F0DEEF32F013AC
:1065A100C015F014C016F0151E161E154A162A1530
:1065B100C013F016C014F0E2EF32F013C013F01460
:1065C100C014F01200000E106E000E0F6EF4EF32C8
:1065D100F00EC001F0026A0CC003F00DC004F02EF1
:1065E100EC36F00F4A102A0F500A24D96E10500BC6
:1065F10020DA6EDF500E6E0E50D8A402EF33F00495
:10660100EF33F0E9EF32F01200010E076E200E01B8
:10661100180210D8B40FEF33F011EF33F02AEF3333
:10662100F0F70E036EFF0E046E01C005F002C00606
:10663100F00350052604500622065009E1050E0517
:106641005CD8A026EF33F028EF33F02AEF33F000C7
:106651000E076E07C001F0026A1200640E00016AA3
:106661006F000E6B6F60C06CF061C06DF0000E705A
:106671006F000E6F6F000E766F000E756F6C0E540B
:106681006E000E556E62C056F063C057F06A0E5828
:106691006E000E596EE3EC33F000016F516025D9A5
:1066A1006E70516121DA6E000EDF6E1200938293DB
:1066B10084800E6D6E280E6C6E0EC001F00FC0024C
:1066C100F010C003F011C004F012C016F013C0178F
:1066D100F014C018F015C019F0020ED89016361734
:1066E1003618361936E82E6EEF33F016C005F0175E
:1066F100C006F018C007F019C008F01CEC35F00115
:10670100046E6E12005F50D8A489EF33F08BEF3323
:10671100F09DEF33F0000E6AEC32F0066E068E0645
:10672100C004F0000EEDEC31F0069E06C004F0004E
:106731000EEDEC31F0B1EF33F05F04D8A4A3EF33E9
:10674100F0A5EF33F0B1EF33F0000E6AEC32F00652
:106751006E069E06C004F0000EEDEC31F0B1EF3391
:10676100F01200010E036EF40E026E8CEC31F0BFDC
:10677100EF33F08CEC31F00206D8A003065E500135
:10678100EC32F0E806D8A4C8EF33F0CAEF33F0D307
:10679100EF33F002500310D8A4D1EF33F0D3EF332D
:1067A100F0BAEF33F002500310D8A4DAEF33F0DC83
:1067B100EF33F0E1EF33F096EC31F0000EE2EF331E
:1067C100F0010E120056C05AF057C05BF0000E00E7
:1067D10001A26F000EA16F01EF34F054C040F055DB
:1067E100C041F05A0E426E000E436E58C044F0593B
:1067F100C045F025EC3DF040500001A1274150A2D9
:10680100235AC0F6FF5BC0F7FF0800F5500009D816
:10681100A40DEF34F00FEF34F0EEEF33F0A1C054DC
:10682100F0A2C055F0120015C00BF01450CCEC31A1
:10683100F02FEF34F012C0F6FF13C0F7FFF86A052E
:106841000EF76403D00800F55005D0F6CFE9FFF745
:10685100CFEAFFEF5048EC34F0124A132A12C0F687
:10686100FF13C0F7FFF86A050EF76403D00800F5BF
:106871005005D0F6CFE9FFF7CFEAFFEF500009D876
:10688100A445EF34F047EF34F01BEF34F012000F62
:106891006E000E066E010E6EEC35F0000E116E00EC
:1068A1000E106E600E0B6EFF0E0C6E0F50050DA7D5
:1068B1000E0D6E7D0E0E6EF3500D26F4500E22104D
:1068C100500D2611500E220B500D260C500E220D8C
:1068D100C0F6FF0EC0F7FF0800F5CF06F0010E6EFF
:1068E100EC35F0104A112A11BE80EF34F011500935
:1068F100E1050E105CD8A080EF34F082EF34F05245
:10690100EF34F0000E066E010E6EEC35F012002031
:10691100EEC9F010EE19F0080EDBCFE3FFE806FC3C
:10692100E220EE19F000EE0BF0080EDBCFEBFFE8F2
:1069310006FCE2E8EC3AF0A4EC32F0CC0E126E7FE9
:106941000E136E000E146E000E156E14EC34F0E68C
:106951000E126E7F0E136E000E146E020E156E1463
:10696100EC34F0D90E126E7F0E136E000E146E040D
:106971000E156E14EC34F0290E186E960E176E7FFC
:106981000EE82EFED7172EFCD7182EFAD700F0A44A
:10699100EC32F012000E6EB2EC33F00009D8B4D430
:1069A100EF34F0D6EF34F01BEF35F00E5001EC323E
:1069B100F08CEC31F05E50010901EC32F0000E0F69
:1069C1006E10EF35F00F500424D96E000E0520DA59
:1069D1006EA0EC31F0DF6EFF0E076EFF0E086E0643
:1069E10050096E0A6A0750092608500A220F500BF7
:1069F1006E0C6A09500B5C0C50800A0D6E0A5080B7
:106A01000A0D58D8B007EF35F009EF35F00DEF3525
:106A1100F0B6EC31F00FEF35F0C1EC31F00F2A0692
:106A2100500F5CD8A017EF35F019EF35F0E3EF34D4
:106A3100F096EC31F01200000E096E000E0A6E00A5
:106A41000E0B6E000E0C6E0550061007100810D8C4
:106A5100B42DEF35F02FEF35F065EF35F0010E0D68
:106A61006E39EF35F0D89005360636073608360D03
:106A71002A08AE3EEF35F040EF35F033EF35F0D870
:106A81009009360A360B360C360550015C06500269
:106A9100580750035808500458D8A052EF35F05405
:106AA100EF35F05DEF35F00550015E0650025A07F3
:106AB10050035A0850045A0980D890083207320608
:106AC1003205320D2E40EF35F009C001F00AC00247
:106AD100F00BC003F00CC004F012000A6E0A04D8D7
:106AE100A475EF35F077EF35F08BEF35F09EC007E9
:106AF100F0010E086E072A80EF35F0D890083607AE
:106B01002E7EEF35F09AC0D9FF9BC0DAFF0850DF27
:106B110012A0EF35F09EC007F0010E086E072A940F
:106B2100EF35F0D8900836072E92EF35F00850FF78
:106B31000A096E9AC0D9FF9BC0DAFF0950DF169D82
:106B4100C007F0010E086E072AA9EF35F0D89008AA
:106B510036072EA7EF35F00850FF0A096E9AC0D903
:106B6100FF9BC0DAFF0950DF16065093EC36F09D0B
:106B7100C007F0010E086E072AC1EF35F0D8900862
:106B810036072EBFEF35F09AC0D9FF9BC0DAFF0858
:106B910050DF1212000001A7A1D1EF35F0D3EF357C
:106BA100F0DDEF35F013C00AF014C00BF011C00C8A
:106BB100F012C00DF0E3EC32F016BEE2EF35F0E476
:106BC100EF35F0EAEF35F015C01AF016C01BF0EE04
:106BD100EF35F0000E1B6E000E1A6E000E196E00DE
:106BE1000E186E00EF36F0000E026E200E016E11CF
:106BF100C003F012C004F02EEC36F0184A192A1A1C
:106C010050185C1950800A176E1B50800A1758D80B
:106C1100A00DEF36F00FEF36F0F4EF35F00001A7DD
:106C2100B115EF36F017EF36F021EF36F013C00A49
:106C3100F014C00BF011C00CF012C00DF0E3EC32F7
:106C4100F013C001F014C002F016EC32F01A50013A
:106C510024116E1B500220126E120003500410D832
:106C6100B435EF36F037EF36F040EF36F00350042D
:106C710010D8A43EEF36F040EF36F045EF36F00184
:106C81005077EC31F092EF36F020EE09F00350D955
:106C9100260450DA22DE50DE10D8B452EF36F0541A
:106CA100EF36F06FEF36F020EE09F00350D92604ED
:106CB10050DA2210EE03F00350E1260450E222DE06
:106CC10050E65CE650800A096EDE50800A0958D809
:106CD100B06DEF36F06FEF36F092EF36F020EE0345
:106CE100F00350D9260450DA22DECF05F0DDCF06BD
:106CF100F003C0D9FF04C0DAFFDECF07F0DDCF0813
:106D0100F005500724D96E06500820DA6E01C0DF65
:106D1100FF20EE03F00350D9260450DA22DE2A00C8
:106D21000EDD221200046E000E056EA0C001F001FE
:106D31000E026E012A9FEF36F0D8900236012E9D89
:106D4100EF36F00250FF0A036E9AC0D9FF9BC0DAFA
:106D5100FF0350DF1604BEB0EF36F0B2EF36F0C9D4
:106D6100EF36F09FC001F0010E026E012ABBEF3633
:106D7100F0D8900236012EB9EF36F00250FF0A0327
:106D81006E9AC0D9FF9BC0DAFF0350DF16DBEF36E6
:106D9100F09FC001F0010E026E012AD2EF36F0D849
:106DA100900236012ED0EF36F09AC0D9FF9BC0DA9F
:106DB100FF0250DF12A0C001F0010E026E012AE4B1
:106DC100EF36F0D8900236012EE2EF36F09AC0D9B4
:106DD100FF9BC0DAFF0250DF12D8900436052A0764
:106DE1000E0564F6EF36F0F8EF36F096EF36F01256
:106DF10000130E046E000E056E030E066E000ECB20
:106E0100EC34F020EE02F01050D9261150DA2213A2
:106E1100507F0BABEC31F0DF6E20EE01F01050D95A
:106E2100261150DA221450ABEC31F0DF6E5F50D8EE
:106E3100B41DEF37F01FEF37F041EF37F015AC24F9
:106E4100EF37F026EF37F041EF37F015501F0BAB5E
:106E5100EC31F010C0D9FF11C0DAFFDF6E20EE0374
:106E6100F01050D9261150DA2215BA3AEF37F03D19
:106E7100EF37F0010E3EEF37F0000EDF6E52EF37C5
:106E8100F015503F0BABEC31F010C0D9FF11C0DA57
:106E9100FFDF6E20EE03F01050D9261150DA2202E6
:106EA1000EDF6E20EE02F01050D9261150DA223C8E
:106EB1000EDF605EEF37F060EF37F07AEF37F020EA
:106EC100EE01F01050D9261150DA223C0EDF606C31
:106ED100EF37F06EEF37F07AEF37F010C0D9FF11CE
:106EE100C0DAFF170EDF6478EF37F07AEF37F07D05
:106EF100EF37F0000E7EEF37F0010E1200160E0490
:106F01006E000E056E040E066E030ECBEC34F020FF
:106F1100EE04F01050D9261150DA2216C0DFFF20FE
:106F2100EE03F01050D9261150DA221750ABEC3194
:106F3100F0DF6E20EE02F01050D9261150DA22183F
:106F410050ABEC31F0DF6ED00E126E070E136E19DE
:106F510050ABEC31F0146E156A1250142613501513
:106F61002210C0D9FF11C0DAFF14C0DEFF15C0DD49
:106F7100FF20EE02F01050D9261150DA22DF50D84E
:106F8100B4C5EF37F0C7EF37F00DEF38F020EE0260
:106F9100F01050D9261150DA220D0EDF60D3EF37F1
:106FA100F0D5EF37F00DEF38F020EE03F01050D9A7
:106FB100261150DA22DF50D8B4E1EF37F0E3EF3792
:106FC100F00DEF38F020EE03F01050D9261150DA11
:106FD10022200EDF60EFEF37F0F1EF37F00DEF38E1
:106FE100F020EE04F01050D9261150DA22DF50D8EB
:106FF100B4FDEF37F0FFEF37F00DEF38F020EE047E
:10700100F01050D9261150DA22070EDF640BEF3849
:10701100F00DEF38F010EF38F0000E11EF38F001FD
:107021000E1200000E116E000E106E000E0F6E009B
:107031000E0E6E1EEF38F0084A092A08C0F6FF0945
:10704100C0F7FF0800F550200AD8B42AEF38F02C19
:10705100EF38F01CEF38F0F70E0A6EFF0E0B6E08DA
:10706100C0F6FF09C0F7FF0800F5500C6E0D6A0A63
:10707100500C260B500D220D5009E1050E0C5CD869
:10708100A045EF38F047EF38F01CEF38F051EF38FA
:10709100F0000E0F6E010E0E6E084A092A86EF38B7
:1070A100F008C0F6FF09C0F7FF0800F5500A6E0BA3
:1070B1006A0B50000AD8B460EF38F086EF38F00A56
:1070C100502B0AD8B44DEF38F0060AD8B449EF383E
:1070D100F086EF38F010C001F011C002F0000E048C
:1070E1006E0A0E036EDAEC31F008C0F6FF09C0F744
:1070F100FF0800F550015E000E025A300E01241007
:107101006E000E0220116E4DEF38F0D00E0A6EFFA8
:107111000E0B6E08C0F6FF09C0F7FF0800F5500C12
:107121006E0D6A0A500C260B500D220D5009E10A12
:107131000E0C5CD8A09FEF38F0A1EF38F06BEF3860
:10714100F00E500F10D8A4A8EF38F0AAEF38F0B81D
:10715100EF38F010C00AF011C00BF00A1E0B1E0A26
:107161004A0B2A0AC008F00BC009F0BCEF38F01036
:10717100C008F011C009F01200000E126E08BEC660
:10718100EF38F0C4EF38F0D8EF38F0081E071E06CC
:107191001E051E041E031E021E016C000E022203A8
:1071A1002204220522062207220822010E126E1055
:1071B100BEDFEF38F0DDEF38F0EFEF38F0101E0FE3
:1071C1001E0E1E0D1E0C1E0B1E0A1E096C000E0A41
:1071D100220B220C220D220E220F22102209500A0C
:1071E100100B100C100D100E100F101010D8B4FC55
:1071F100EF38F0FEEF38F046EF39F0010E116E0C6A
:10720100EF39F0D89009360A360B360C360D360EAA
:10721100360F361036112A10AE11EF39F013EF394F
:10722100F002EF39F00950015C0A5002580B50038B
:10723100580C5004580D5005580E5006580F500761
:107241005810500858D8A028EF39F02AEF39F03AF1
:10725100EF39F00950015E0A50025A0B50035A0CE3
:1072610050045A0D50055A0E50065A0F50075A1025
:1072710050085AD89010320F320E320D320C320BA8
:10728100320A320932112E13EF39F01250D8B44CB0
:10729100EF39F04EEF39F05EEF39F0081E071E06A8
:1072A1001E051E041E031E021E016C000E02220397
:1072B100220422052206220722082201C001F0022F
:1072C100C002F003C003F004C004F005C005F006DD
:1072D100C006F007C007F008C008F012004DEC32FC
:1072E100F0000E0E6E240E0F6EF40E106E000E11D5
:1072F1006EA00E126E860E136E010E146E000E1528
:107301006E57EC33F07DEC31F088EC34F0940E10D4
:107311006E000E116EF9EC36F00009D8B493EF3916
:10732100F095EF39F0F6EF39F08F0E106E000E1177
:107331006E7FEC37F00009D8B4A1EF39F0A3EF3933
:10734100F0F6EF39F0770E0001606F000E616F8784
:107351000E626F7F0E636F94C064F0656B95C066BB
:10736100F0676B96C068F0696B2EEC33F0830E000A
:1073710001606F000E616F960E626F7F0E636F92F8
:10738100C064F0656B91C066F0676B8FC068F09068
:10739100C069F02EEC33F0F90E126E7F0E136E0001
:1073A1000E146E000E156E14EC34F0770E126E0092
:1073B1000E136E0A0E146E010E156E14EC34F0F2FB
:1073C1000E126E7F0E136E000E146E030E156E14E8
:1073D100EC34F0830E126E000E136E0A0E146E045E
:1073E1000E156E14EC34F014EF3AF0B20E126E7FFB
:1073F1000E136E000E146E010E156E14EC34F0A512
:107401000E126E7F0E136E000E146E030E156E14A7
:10741100EC34F0BF0E126E7F0E136E000E146E046C
:107421000E156E14EC34F0050E5D6E0F0E5C6EF1F0
:107431000EE82EFED75C2EFCD75D2EFAD700F08722
:10744100EF39F000EF00F0000E126E10BE2DEF3A92
:10745100F02BEF3AF03FEF3AF0101E0F1E0E1E0D0B
:107461001E0C1E0B1E0A1E096C000E0A220B220C9A
:10747100220D220E220F221022010E126E08BE468C
:10748100EF3AF044EF3AF058EF3AF0081E071E06C3
:107491001E051E041E031E021E016C000E022203A5
:1074A1002204220522062207220822010E121A2096
:1074B100EE13F0070EDE6AE806FDE209500A100B32
:1074C100100C100D100E100F101010D8B46BEF3AF5
:1074D100F06DEF3AF0BFEF3AF0010E116E7BEF3A2B
:1074E100F0D89009360A360B360C360D360E360FAB
:1074F100361036112A10AE80EF3AF082EF3AF07171
:10750100EF3AF0D89013361436153616361736186A
:107511003619361A360950015C0A5002580B5003CD
:10752100580C5004580D5005580E5006580F50076E
:107531005810500858D8A0A0EF3AF0A2EF3AF0B393
:10754100EF3AF00950015E0A50025A0B50035A0CEF
:1075510050045A0D50055A0E50065A0F50075A1032
:1075610050085A1380D89010320F320E320D320C5F
:10757100320B320A320932112E82EF3AF01250D810
:10758100B4C5EF3AF0C7EF3AF0D7EF3AF01A1E1947
:107591001E181E171E161E151E141E136C000E1427
:1075A10022152216221722182219221A2213C0018B
:1075B100F014C002F015C003F016C004F017C005A6
:1075C100F018C006F019C007F01AC008F012002028
:1075D100EE0BF010EE98F0080EDBCFE3FFE806FCAF
:1075E100E29CC014F0010E156E142AFAEF3AF0D89D
:1075F100901536142EF8EF3AF01550FF0A166E98D2
:10760100C0D9FF99C0DAFF1650DF169DC014F001F2
:107611000E156E142A0FEF3BF0D8901536142E0D6F
:10762100EF3BF01550FF0A166E98C0D9FF99C0DAEA
:10763100FF1650DF169EC014F0010E156E142A2499
:10764100EF3BF0D8901536142E22EF3BF01550FF8A
:107651000A166E98C0D9FF99C0DAFF1650DF169F3F
:10766100C014F0010E156E142A39EF3BF0D89015B5
:1076710036142E37EF3BF01550FF0A166E98C0D91D
:10768100FF99C0DAFF1650DF16A0C014F0010E15E5
:107691006E142A4EEF3BF0D8901536142E4CEF3B6A
:1076A100F01550FF0A166E98C0D9FF99C0DAFF167F
:1076B10050DF169DC014F0010E156E142A63EF3BC6
:1076C100F0D8901536142E61EF3BF09AC0D9FF9B8C
:1076D100C0DAFF1550DF129CC014F0010E156E14B4
:1076E1002A75EF3BF0D8901536142E73EF3BF01549
:1076F10050FF0A166E9AC0D9FF9BC0DAFF1650DF01
:107701001600F000F09CC014F0010E156E142A8CC6
:10771100EF3BF0D8901536142E8AEF3BF09AC0D982
:10772100FF9BC0DAFF1550DF12210E066E000E6EB0
:10773100EC35F0B00E066E000E6EEC35F0040E0660
:107741006E000E6EEC35F0140E066E000E6EEC350A
:10775100F0200E066E000E6EEC35F00C0E066E007B
:107761000E6EEC35F012001EC036F01FC037F0204F
:10777100C038F021C039F022C03AF023C03BF024D8
:10778100C03CF025C03DF03DBEC9EF3BF0CCEF3B26
:10779100F0010ECDEF3BF0000E346E356A345035FA
:1077A10010D8B4D6EF3BF0D8EF3BF0E8EF3BF03D1B
:1077B1001E3C1E3B1E3A1E391E381E371E366C00FB
:1077C1000E3722382239223A223B223C223D220026
:1077D10001A6BFEEEF3BF0F0EF3BF0F1EF3BF0A77E
:1077E10093A6BFFEEF3BF0A65106E1A505D8B0FC7C
:1077F100EF3BF0FEEF3BF004EF3CF0000E316E0189
:107801000E306E08EF3CF0A5C030F0A6C031F0A3F9
:10781100C032F0A4C033F034503510D8A413EF3C7B
:10782100F015EF3CF01CEF3CF0A7A51AEF3CF01C63
:10783100EF3CF01FEF3CF03206D8A03306000E3FBC
:107841006E1F0E3E6E000EC86FA3EF3CF03E06D8D1
:10785100A03F06A90E3E24D96E000E3F20DA6E36F7
:10786100C001F037C002F038C003F039C004F03A6B
:10787100C005F03BC006F03CC007F03DC008F00A6F
:107881000E096E000E0A6E000E0B6E000E0C6E00DD
:107891000E0D6E000E0E6E000E0F6E000E106EBD00
:1078A100EC38F001C026F002C027F003C028F00434
:1078B100C029F005C02AF006C02BF007C02CF00843
:1078C100C02DF026C013F028C014F0C3EC32F01321
:1078D10050300FDF6E3006D8A031063206D8A03303
:1078E1000636C001F037C002F038C003F039C004D9
:1078F100F03AC005F03BC006F03CC007F03DC008BF
:10790100F00A0E096E000E0A6E000E0B6E000E0CD0
:107911006E000E0D6E000E0E6E000E0F6E000E103C
:107921006E24EC3AF001C036F002C037F003C038E3
:10793100F004C039F005C03AF006C03BF007C03C86
:10794100F008C03DF03FBEAEEF3CF03F5008E13ED5
:1079510004D8A0AEEF3CF0B0EF3CF0E1EF3CF036E4
:10796100503710381039103A103B103C103D10D8E8
:10797100A4BDEF3CF0BFEF3CF027EF3CF031BECCB3
:10798100EF3CF0315006E13004D8B0CAEF3CF0CC06
:10799100EF3CF027EF3CF033BED7EF3CF03350081B
:1079A100E13204D8A0D7EF3CF0D9EF3CF0E1EF3C55
:1079B100F00001A7B3DFEF3CF0E1EF3CF027EF3C33
:1079C100F034503510D8A4E8EF3CF0EAEF3CF0F287
:1079D100EF3CF00001A7A5F0EF3CF0F2EF3CF01016
:1079E100EF3DF03E06D8A03F0634503510D8A4FC38
:1079F100EF3CF0FEEF3CF004EF3DF0000E2F6E2B5C
:107A01000E2E6E08EF3DF0000E2F6E2D0E2E6EA97C
:107A11000E3E24D96E000E3F20DA6E2EC0DFFF1C11
:107A2100C011F01DC012F0A90E3E24136E000E3FCE
:107A310020146E32C015F033C016F0CBEC35F011C6
:107A4100C01CF012C01DF0120042C0D9FF43C0DAC1
:107A5100FFDECFF6FFDDCFF7FF0800F550250AD88E
:107A6100A435EF3DF037EF3DF0B7EF3EF042C0D91E
:107A7100FF43C0DAFFDE2A000EDD22000E0001A462
:107A81006F000EA36FA3C0A7F0A4C0A8F0A569A6BC
:107A910069000E536E000E526E9AEF3DF00001A781
:107AA1008142C0D9FF43C0DAFFDE2A000EDD229AEF
:107AB100EF3DF00001A78351EF3DF00001A7855193
:107AC100EF3DF00001A78751EF3DF00001A789517B
:107AD100EF3DF0000E536E010E526E9AEF3DF042F3
:107AE100C0D9FF43C0DAFFDECFF6FFDDCFF7FF08D5
:107AF10000F550466E476A4750000AD8B483EF3DFF
:107B0100F06AEF3DF04650200AD8B462EF3DF00331
:107B11000AD8B466EF3DF0080AD8B45EEF3DF0062E
:107B21000AD8B44FEF3DF01D0AD8B45AEF3DF06AC0
:107B3100EF3DF052505310D8B4A1EF3DF0A3EF3D0B
:107B4100F070EF3DF00001A7A1A9EF3DF0ABEF3DD3
:107B5100F0ACEF3DF0A79342C0D9FF43C0DAFFDE9E
:107B6100CFF6FFDDCFF7FF0800F5502A0AD8A4BCF5
:107B7100EF3DF0BEEF3DF0E7EF3DF042C0D9FF43EE
:107B8100C0DAFFDE2A000EDD2244C0D9FF45C0DA8B
:107B9100FFDFCF46F0020EDE26DFCF47F0000EDD1D
:107BA1002246C0D9FF47C0DAFFDECFA3F0DDCFA464
:107BB100F0A4BFE0EF3DF0DEEF3DF01DEF3EF0A79A
:107BC10081A36DA41FD8B0A42B1DEF3EF042C0D9F4
:107BD100FF43C0DAFFDECF08F0DDCF09F012EC3849
:107BE100F008C0A3F009C0A4F0FEEF3DF042C0D9F7
:107BF100FF43C0DAFFDE2A000EDD22D00E466EFF03
:107C01000E476E42C0D9FF43C0DAFFDECFF6FFDD7B
:107C1100CFF7FF0800F550486E496A46504826479D
:107C2100504922495009E10A0E485CD8A01BEF3E99
:107C3100F01DEF3EF0F7EF3DF042C0D9FF43C0DA4F
:107C4100FFDECFF6FFDDCFF7FF0800F550640AD85D
:107C5100B42DEF3EF02FEF3EF041EF3EF042C0D9A0
:107C6100FF43C0DAFFDECFF6FFDDCFF7FF0800F5F7
:107C710050690AD8A43FEF3EF041EF3EF081EF3E5C
:107C8100F042C0D9FF43C0DAFFDE2A000EDD2244F4
:107C9100C0D9FF45C0DAFFDFCF46F0020EDE26DF96
:107CA100CF47F0000EDD2246C0D9FF47C0DAFFDE24
:107CB100CF4AF0DDCF4BF0000E4BBEFF0E4C6E4DA8
:107CC1006E4E6E4F6E506E516E40C01CF041C01D25
:107CD100F04AC01EF04BC01FF04CC020F04DC02137
:107CE100F04EC022F04FC023F050C024F051C02507
:107CF100F0B4EC3BF01CC040F01DC041F0D2EF3EAF
:107D0100F042C0D9FF43C0DAFFDECFF6FFDDCFF787
:107D1100FF0800F550250AD8A491EF3EF093EF3EFD
:107D2100F0AAEF3EF042C0D9FF43C0DAFFDE2A00DD
:107D31000EDD22000E026E250E016E40C003F041E1
:107D4100C004F02EEC36F0000E416E010E406ED2F2
:107D5100EF3EF042C0D9FF43C0DAFFDE2A000EDD5C
:107D610022000E416E000E406ED2EF3EF042C0D9AD
:107D7100FF43C0DAFFDECFF6FFDDCFF7FF0800F5E6
:107D810050016E026A40C003F041C004F02EEC368F
:107D9100F042C0D9FF43C0DAFFDE2A000EDD22A483
:107DA100EF3EF0120000000000000000005F000044
:107DB1000007000700147F147F14242A7F2A12234E
:107DC1001308646236495522500005030000001C67
:107DD1002241000041221C0014083E081408083EFC
:107DE100080800503000000808080808006060001A
:107DF1000020100804023E5149453E00427F4000E8
:107E010042615149462141454B311814127F1027D7
:107E1100454545393C4A494930017109050336490F
:107E2100494936064949291E0036360000005636B2
:107E310000000814224100141414141400412214E7
:107E4100080201510906324979413E7E1111117E24
:107E51007F494949363E414141227F4141221C7FB0
:107E6100494949417F090909013E4149497A7F0848
:107E710008087F00417F41002040413F017F0814F5
:107E810022417F404040407F020C027F7F04081066
:107E91007F3E4141413E7F090909063E4151215E34
:107EA1007F09192946464949493101017F01013FAD
:107EB1004040403F1F2040201F3F4038403F631457
:107EC10008146307087008076151494543007F4161
:107ED100410002040810200041417F000402010218
:107EE10004404040404000010204002054545478B2
:107EF1007F484444383844444420384444487F3817
:107F010054545418087E0901020C5252523E7F0803
:107F110004047800447D40002040443D007F102847
:107F2100440000417F40007C041804787C0804046C
:107F31007838444444387C14141408081414187C08
:107F41007C080404084854545420043F4440203C15
:107F51004040207C1C2040201C3C4030403C4428B8
:107F61001028440C5050503C4464544C4400083692
:107F7100410000007F000000413608001008081091
:107F8100087846414678253032643A253032643AE1
:107F91002530326400253032642F253032642F259C
:107FA10030346400436865636B202020202020204A
:107FB10000525443204572726F722121200020200B
:107FC10020204932432042757320004D7243687569
:107FD1006E636B756565210042513332303030205C
:107FE1005465737400525443204C69627261727912
:0F7FF1000046656368613A00486F72613A0000AC
:020000040020DA
:08000000FFFFFFFFFFFFFFFF00
:020000040030CA
:0E000000FF28193CFFB581FF0FC00FE00F4035
:00000001FF
