:0400000035EF3EF0AA
:107BD600700ED31212000AEC3EF0EBEC3DF01200F0
:107BE600100E196E100EB1EC3EF01200EEEC3DF0E8
:107BF60043EC3FF0FBEF3DF000EF00F0A0F66162D2
:107C0600362A28E620222438A970292DFF02000EE4
:107C16000F01386F000E396F000E3A6F000E936E2B
:107C2600000E946E000E816E000E826E1200000E23
:107C3600186E28EF3EF0230E1824D96EDA6A000E6D
:107C4600DA22DF5050EC3EF0182A1850800A7E0FD8
:107C5600D8A030EF3EF032EF3EF01EEF3EF08A82C3
:107C66008A921200020EF66E7C0EF76E000EF86E09
:107C760000EE01F010EE12F00900F5CFEEFFE55030
:107C8600E150FAE1286A276A266A256A246A236A85
:107C9600000EF86E0001F9EF3DF0166E000E176E3D
:107CA60017C013F0800E146E000E156E132A5FEFC8
:107CB6003EF0153415321432132E5CEF3EF014509C
:107CC60016140009D8B46AEF3EF06CEF3EF06FEF81
:107CD6003EF08A8070EF3EF08A908A848A94172A52
:107CE600070E176479EF3EF07BEF3EF053EF3EF060
:107CF60012001F6E100E1D6E100E1E6E0A0E1F60F5
:107D060087EF3EF089EF3EF08DEF3EF01FC01EF08C
:107D1600ABEF3EF0640E1F6093EF3EF095EF3EF042
:107D2600ABEF3EF01FC013F0146A000E166E0A0E7B
:107D3600156EEBEC3EF013501E6E1FC013F0146A66
:107D4600000E166E0A0E156E9EEC3FF013501D6E59
:107D56001EC019F01D50B1EC3EF012001C6ED2EFA1
:107D66003EF011C024F0010E1C24D96EDA6A000E12
:107D7600DA22DF50236EE8EF3EF0010E1C24D96EA6
:107D8600DA6A000EDA22DF50246E010E1924D96E4B
:107D9600DA6A000EDA22DF50236EE8EF3EF0020EBA
:107DA6001A6E000E1B6E1B50000AD8B4DDEF3EF0B3
:107DB600E8EF3EF01A50010AD8B4B4EF3EF0030AD9
:107DC600D8B4C0EF3EF0E8EF3EF01AEC3EF01200F9
:107DD600000E186E14BEF4EF3EF0F2EF3EF0FAEF2E
:107DE6003EF0136C141ED8B0142A010E186E16BE7F
:107DF60001EF3FF0FFEF3EF005EF3FF0156C161E6A
:107E0600D8B0162A15501610D8B40CEF3FF00EEF66
:107E16003FF032EF3FF0010E176E16EF3FF0D890AD
:107E260015361636172A16AE1BEF3FF01DEF3FF03C
:107E360012EF3FF01550135C16501458D8A026EFD9
:107E46003FF028EF3FF02CEF3FF01550135E165031
:107E5600145AD89016321532172E1DEF3FF01850CF
:107E6600D8B438EF3FF03AEF3FF03EEF3FF0136CF7
:107E7600141ED8B0142A13C013F014C014F0120044
:107E8600F3EC3DF0150E216E4B0E206EBE0EE82E65
:107E9600FED7202EFCD7212EFAD700D00B0E196E56
:107EA6000A0EB1EC3EF0150E216E4B0E206EBE0E84
:107EB600E82EFED7202EFCD7212EFAD700D00D0EA5
:107EC600196E0C0EB1EC3EF0150E216E4B0E206EA7
:107ED600BE0EE82EFED7202EFCD7212EFAD700D0D4
:107EE6000F0E196E0E0EB1EC3EF0150E216E4B0EF6
:107EF600206EBE0EE82EFED7202EFCD7212EFAD7F6
:107F060000D0000E226E22507CEC3EF0060E216E52
:107F1600130E206EAE0EE82EFED7202EFCD7212E95
:107F2600FAD7222A630E22649BEF3FF09DEF3FF0C3
:107F360086EF3FF01200000E186E16BEA7EF3FF058
:107F4600A5EF3FF0ADEF3FF0156C161ED8B0162A20
:107F5600010E186E14BEB4EF3FF0B2EF3FF0BAEF69
:107F66003FF0136C141ED8B0142A010E181A000E16
:107F76001A6E000E196E15501610D8B4C5EF3FF0E4
:107F8600C7EF3FF0EFEF3FF0010E176ECFEF3FF078
:107F9600D89015361636172A16AED4EF3FF0D6EF20
:107FA6003FF0CBEF3FF0D89019361A361550135CD8
:107FB60016501458D8A0E2EF3FF0E4EF3FF0E9EF97
:107FC6003FF01550135E1650145A1980D890163289
:107FD6001532172ED6EF3FF01850D8B4F5EF3FF014
:107FE600F7EF3FF0FBEF3FF0196C1A1ED8B01A2AD4
:0A7FF60019C013F01AC014F01200B5
:020000040020DA
:08000000FFFFFFFFFFFFFFFF00
:020000040030CA
:0E000000FF28193CFFB581FF0FC00FE00F4035
:00000001FF
