:0400000013EF00F00A
:06000800258229EF05F03E
:100018002580E0CF05F005C0E0FF25901000DEEF59
:0200280005F0E1
:100600000050727565626173206C6962726572690F
:100610006120554152543120636F6E20696E7465BC
:100620007272757063696F6E65732E2E2E0D0A00DF
:1006300055736F2064652062756666657220636914
:100640007263756C61726573207061726120617490
:10065000656E6465722054582F52582E0D0A004C56
:100660004544203220546F67676C650D0A004C4585
:1006700044203320546F67676C650D0A004C454475
:0D068000203420546F67676C650D0A000080
:10068E00949C948E0F013A9D3A9F17BE59EF03F03A
:10069E001750161009E14B0E155CD8A059EF03F058
:1006AE005BEF03F088EF03F0AC84B886000E066EA5
:1006BE00240E076EF40E086E000E096E14C018F0AC
:1006CE0015C019F016C01AF017C01BF0020ED89004
:1006DE00183619361A361B36E82E6EEF03F018C090
:1006EE000AF019C00BF01AC00CF01BC00DF0A3ECF1
:1006FE0004F0FF0E06241C6EFF0E07201D6EF1EF98
:10070E0003F017BE97EF03F0175016100BE1600EB3
:10071E00145C090E1558D8A097EF03F099EF03F06B
:10072E00C6EF03F0AC94B886000E066E240E076E6C
:10073E00F40E086E000E096E14C018F015C019F0F4
:10074E0016C01AF017C01BF0040ED89018361936C2
:10075E001A361B36E82EACEF03F018C00AF019C09B
:10076E000BF01AC00CF01BC00DF0A3EC04F0FF0E42
:10077E0006241C6EFF0E07201D6EF1EF03F0AC94E5
:10078E00B896000E066E240E076EF40E086E000E5E
:10079E00096E14C018F015C019F016C01AF017C063
:1007AE001BF0060ED890183619361A361B36E82E60
:1007BE00D9EF03F018C00AF019C00BF01AC00CF0F4
:1007CE001BC00DF0A3EC04F0FF0E06241C6EFF0EF2
:1007DE0007201D6E1CC0AFFF1D50B06EAC98AB8EC7
:1007EE00AC8AAB889F8A9F889D8A9D98120075EC73
:1007FE0005F0000E146EC20E156E010E166E000E72
:10080E00176E47EC03F00DEC06F00AEC06F0150E31
:10081E001F6E4B0E1E6EBE0EE82EFED71E2EFCD782
:10082E001F2EFAD700D0010E086E060E096E92EC3E
:10083E0005F0300E086E060E096E92EC05F0FEEC19
:10084E0005F00009D8B42EEF04F030EF04F026EFD7
:10085E0004F0F1EC05F0206E410E2018D8A43AEF0A
:10086E0004F03CEF04F056EF04F05F0E086E060E37
:10087E00096E92EC05F08BB447EF04F04AEF04F0EA
:10088E00010E4BEF04F0000EFF0A1E6E1E461E46B2
:10089E008B501E18FB0B1E188B6E26EF04F0420EAB
:1008AE002018D8A45DEF04F05FEF04F07AEF04F0A7
:1008BE006E0E086E060E096E92EC05F08BB66AEFA0
:1008CE0004F06DEF04F0010E6EEF04F0000EFF0A5F
:1008DE001E6E1E461E461E468B501E18F70B1E1809
:1008EE008B6E26EF04F0430E2018D8A481EF04F08F
:1008FE0083EF04F09CEF04F07D0E086E060E096E79
:10090E0092EC05F08BB88EEF04F091EF04F0010E2F
:10091E0092EF04F0000EFF0A1E6E1E3A8B501E1848
:10092E00EF0B1E188B6E26EF04F02050ADEC05F089
:10093E0026EF04F013EF00F0000E0F6E0DBEACEFBD
:10094E0004F0AAEF04F0B6EF04F00D1E0C1E0B1E01
:10095E000A6C000E0B220C220D22010E0F6E09BE28
:10096E00BDEF04F0BBEF04F0C7EF04F0091E081E44
:10097E00071E066C000E072208220922010E0F1A0E
:10098E00000E106E000E116E000E126E000E136E23
:10099E000A500B100C100D10D8B4D8EF04F0DAEF8B
:1009AE0004F010EF05F0010E0E6EE4EF04F0D89097
:1009BE000A360B360C360D360E2A0DAEE9EF04F064
:1009CE00EBEF04F0DEEF04F0D8901036113612364D
:1009DE0013360A50065C0B5007580C5008580D5031
:1009EE000958D8A0FDEF04F0FFEF04F008EF05F072
:1009FE000A50065E0B50075A0C50085A0D50095AF1
:100A0E001080D8900D320C320B320A320E2EEBEFD4
:100A1E0004F00F50D8B416EF05F018EF05F020EFE4
:100A2E0005F0131E121E111E106C000E1122122242
:100A3E00132210C006F011C007F012C008F013C048
:100A4E0009F01200D9CF03F0DACF04F09DAA32EFED
:100A5E0005F034EF05F03DEF05F09EAA39EF05F0F5
:100A6E003BEF05F03DEF05F053EC05F09DA842EF8E
:100A7E0005F044EF05F04DEF05F09EA849EF05F0A7
:100A8E004BEF05F04DEF05F0C6EC05F004C0DAFFB4
:100A9E0003C0D9FF25921100ABA258EF05F05AEF13
:100AAE0005F05CEF05F0AB98AB88AECF01F02428D3
:100ABE003F0B026E23500218D8B468EF05F06AEFB0
:100ACE0005F074EF05F0A00E2424D96EDA6A000E3C
:100ADE00DA2201C0DFFF02C024F01200000E0F0167
:100AEE00386F000E396F000E3A6F000E926E000EC8
:100AFE00936E800E946E000E896E000E8A6E000E3E
:100B0E008B6E700ED312340E066EF20EE82EFED7DA
:100B1E00062EFCD712009EEF05F008C0F6FF09C0A6
:100B2E00F7FF0800F550ADEC05F0084A092A08C099
:100B3E00F6FF09C0F7FF0800F5500009D8A4AAEF88
:100B4E0005F0ACEF05F094EF05F01200066E2228CA
:100B5E003F0B076E21500718D8B4B8EF05F0BAEF67
:100B6E0005F0B1EF05F0600E2224D96EDA6A000EA0
:100B7E00DA2206C0DFFF07C022F09D881200215046
:100B8E002218D8B4CDEF05F0CFEF05F0DCEF05F06D
:100B9E00600E2124D96EDA6A000EDA22DF50AD6EB5
:100BAE0021283F0B216EDDEF05F09D98120000EE1F
:100BBE0060F0800EEE6AE806FDE1246A236A226A7E
:100BCE00216A25902592000EF86E060EF76E000132
:100BDE00FEEF03F0A00E2324D96EDA6A000EDA229D
:100BEE00DF50066E23283F0B236E06501200235053
:100BFE002418D8A405EF06F008EF06F0010E09EF51
:100C0E0006F0000E1200F28EF28C1200D08E120040
:020000040020DA
:08000000FFFFFFFFFFFFFFFF00
:020000040030CA
:0E000000FF28193CFFB581FF0FC00FE00F4035
:00000001FF
