:0400000025EF00F0F8
:100008005682F2A40AEF00F00CEF00F023EF00F0A4
:10001800544A552AE80E545C030E5558D8A017EFD9
:1000280000F019EF00F01EEF00F0827C000E556E14
:10003800000E546EF80ED76E300ED66EF2945692AD
:060048001100F5EF05F0C8
:1006000000204C434420313678322026205843388D
:03061000200000C7
:100614003B6E3BA010EF03F012EF03F027EF03F063
:100624005250070B386E010E396E382A1CEF03F056
:10063400D8903936382E1AEF03F04FC0D9FF50C086
:10064400DAFF3950DF123DEF03F05250070B386EDA
:10065400010E396E382A31EF03F0D8903936382E2E
:100664002FEF03F03950FF0A3A6E4FC0D9FF50C044
:10067400DAFF3A50DF163BA242EF03F044EF03F0F7
:100684005BEF03F05230E832E832070B386E010EAC
:10069400396E382A50EF03F0D8903936382E4EEFA1
:1006A40003F04FC0D9FF50C0DAFF3950DF1273EFA7
:1006B40003F05230E832E832070B386E010E396E1F
:1006C400382A67EF03F0D8903936382E65EF03F0F7
:1006D4003950FF0A3A6E4FC0D9FF50C0DAFF3A5082
:1006E400DF163BA478EF03F07AEF03F08FEF03F00B
:1006F4005350070B386E010E396E382A84EF03F01D
:10070400D8903936382E82EF03F04FC0D9FF50C04D
:10071400DAFF3950DF12A5EF03F05350070B386EA0
:10072400010E396E382A99EF03F0D8903936382EF5
:1007340097EF03F03950FF0A3A6E4FC0D9FF50C00B
:10074400DAFF3A50DF163BA6AAEF03F0ACEF03F052
:10075400C3EF03F05330E832E832070B386E010E72
:10076400396E382AB8EF03F0D8903936382EB6EF00
:1007740003F04FC0D9FF50C0DAFF3950DF12DBEF6E
:1007840003F05330E832E832070B386E010E396E4D
:10079400382ACFEF03F0D8903936382ECDEF03F056
:1007A4003950FF0A3A6E4FC0D9FF50C0DAFF3A50B1
:1007B400DF1612005DEC06F020EE33F010EE47F089
:1007C400040EDBCFE3FFE806FCE220EE47F000EE88
:1007D40040F0040EDBCFEBFFE806FCE200EC05F092
:1007E400000E7AEC05F0010E7AEC05F0000E7AECBE
:1007F40005F0010E7AEC05F0080E7AEC05F0000E17
:100804007AEC05F0010E406E060E416ECAEC05F05E
:100814000C0E7AEC05F0000E7AEC05F0000E4C6E2E
:10082400220E4C24D96EDA6A000EDA22DF5080ECF4
:1008340004F0010E396E2C0E386E14EC06F04C2ABE
:100844000E0E4C6428EF04F02AEF04F012EF04F0CB
:10085400030E396EE80E386E14EC06F0000E7AECD6
:1008640005F0010E7AEC05F0080E7AEC05F0000EA6
:100874007AEC05F0000E4D6E010E4D24D96EDA6A45
:10088400000EDA22DF5080EC04F0010E396E2C0EDB
:10089400386E14EC06F04D2A0F0E4D6454EF04F03C
:1008A40056EF04F03EEF04F00C0E7AEC05F0000E67
:1008B4007AEC05F0100E4E6E010E4E24D96EDA6AF3
:1008C400000EDA22DF5080EC04F0010E396E2C0E9B
:1008D400386E14EC06F04E2A1F0E4E6474EF04F0CA
:1008E40076EF04F05EEF04F0030E396EE80E386E16
:1008F40014EC06F0F8EF03F025EF00F03F6E5150D2
:10090400070B3C6E010E3D6E3C2A8BEF04F0D89031
:100914003D363C2E89EF04F04FC0D9FF50C0DAFFBA
:100924003D50DF123F380F0B0F0B0AEC03F0513030
:10093400E832E832070B3C6E010E3D6E3C2AA5EF0F
:1009440004F0D8903D363C2EA3EF04F04FC0D9FFFD
:1009540050C0DAFF3D50DF12350EE82EFED700F00E
:100964005130E832E832070B3C6E010E3D6E3C2AF2
:10097400BEEF04F0D8903D363C2EBCEF04F03D5061
:10098400FF0A3E6E4FC0D9FF50C0DAFF3E50DF165B
:100994003F500F0B0AEC03F05130E832E832070BFA
:1009A4003C6E010E3D6E3C2ADAEF04F0D8903D36E1
:1009B4003C2ED8EF04F04FC0D9FF50C0DAFF3D50B1
:1009C400DF12350EE82EFED700F05130E832E8325F
:1009D400070B3C6E010E3D6E3C2AF3EF04F0D890F9
:1009E4003D363C2EF1EF04F03D50FF0A3E6E4FC001
:1009F400D9FF50C0DAFF3E50DF16120020EE40F05F
:100A040010EE4FF0040EDBCFE3FFE806FCE2800EAD
:100A14004F1807E10F0E5018D8A413EF05F015EF87
:100A240005F019EF05F0000E926E37EF05F0810E18
:100A34004F1807E10F0E5018D8A423EF05F025EF47
:100A440005F029EF05F0000E936E37EF05F0820EE6
:100A54004F1807E10F0E5018D8A433EF05F035EF07
:100A640005F079EF05F0000E946E680E456EE40E05
:100A7400E82EFED7452EFCD700D0030E7AEC05F005
:100A84001A0E456EF80EE82EFED7452EFCD700D080
:100A9400030E7AEC05F0540E456E1C0EE82EFED7BC
:100AA400452EFCD700D0030E7AEC05F0020E7AEC4A
:100AB40005F0020E7AEC05F0080E7AEC05F0000E53
:100AC4007AEC05F0060E7AEC05F0080E466E4684C4
:100AD40046380F0B0F0B7AEC05F046500F0B7AECEF
:100AE40005F0000E7AEC05F0010E7AEC05F0120028
:100AF4003F6E5150070B3C6E010E3D6E3C2A85EF54
:100B040005F0D8903D363C2E83EF05F03D50FF0AAA
:100B14003E6E4FC0D9FF50C0DAFF3E50DF163F5043
:100B24000AEC03F05130E832E832070B3C6E010E58
:100B34003D6E3C2AA0EF05F0D8903D363C2E9EEF4A
:100B440005F04FC0D9FF50C0DAFF3D50DF12150E3B
:100B54003C6EC60EE82EFED73C2EFCD700D051309A
:100B6400E832E832070B3C6E010E3D6E3C2ABDEFC5
:100B740005F0D8903D363C2EBBEF05F03D50FF0A02
:100B84003E6E4FC0D9FF50C0DAFF3E50DF16120050
:100B9400000E456E000E446EE0EF05F04450402414
:100BA400426E45504120436E42C0F6FF43C0F7FFFA
:100BB4000800F55080EC04F0444A452A445040248F
:100BC400426E45504120436E42C0F6FF43C0F7FFDA
:100BD4000800F5500009D8A4F2EF05F0F4EF05F091
:100BE400D0EF05F01200600EF66E0C0EF76E000EDC
:100BF400F86E00EE01F010EE37F00900F5CFEEFFCD
:100C0400E550E150FAE100EE4FF0070EEE6AE80617
:100C1400FDE156905692000EF86E060EF76E000136
:100C2400DCEF03F0000E3C6E000E3B6E24EF06F08A
:100C3400060E3A6E300EE82EFED73A2EFCD700D0C0
:100C44003B4A3C2A38503B5C39503C58D8A02DEFE5
:100C540006F02FEF06F01AEF06F0120068747470B5
:100C64003A2F2F6D726368756E636B7565652E62BE
:100C74006C6F6773706F742E636F6D2F0020204D3F
:100C8400724368756E636B75656521202000810F62
:030C9400082C3EEB
:100C9800D58ED59CD59AD598D596F80ED516F80E3A
:100CA800D76E300ED66EF294F28AF184D08EF28E20
:100CB8001200000E0F01386F000E396F000E3A6FE8
:0C0CC800700ED312949C4CEC06F012004D
:020000040020DA
:08000000FFFFFFFFFFFFFFFF00
:020000040030CA
:0E000000FF28193CFFB581FF0FC00FE00F4035
:00000001FF
