:020000040000FA
:04000000B7EF2DF039
:105A6400400E1200800E120032EC2DF0120034ECC5
:105A74002DF0120094889486800EC76E280EC66E90
:105A84009F0EC86E1200C5809EA64BEF2DF04DEF01
:105A94002DF046EF2DF09E961200C5849EA655EF7C
:105AA4002DF057EF2DF050EF2DF09E961200016E61
:105AB40001C0C9FF9EA661EF2DF063EF2DF05CEFEE
:105AC4002DF09E96C5501200000E016E020E026E5D
:105AD400000E046E0368040E066E000E056EFFECE5
:105AE40033F01200026E45EC2DF0780E59EC2DF0D7
:105AF400000E59EC2DF0025059EC2DF04FEC2DF026
:105B04001200000E016E020E026E000E046E000EF4
:105B1400036E040E066E000E056EFFEC33F01200E9
:105B2400036E0350D8B499EF2DF09BEF2DF0A0EF46
:105B34002DF0A70E74EC2DF0A3EF2DF0A60E74EC4F
:105B44002DF0120009500B02F3CF0DF0F4CF0EF03C
:105B540009500C02F3500E260A500B02F3500E2685
:105B64000DC009F00EC00AF0120002EE00F014EEAF
:105B740000F0EE6AE550E150FCE1E250FAE100EE9B
:105B84003CF0070EEE6AE806FDE1000EF86E000137
:105B94005BEF33F001C003F002C004F0D4EF2DF04A
:105BA400014A022A01C0F6FF02C0F7FF0800F550BF
:105BB4000009D8A4E0EF2DF0E2EF2DF0D2EF2DF0A4
:105BC4000350015C016E04500258026E1200000E74
:105BD400066E000E056E05500124036E0650022069
:105BE400046E03C0F6FF04C0F7FF000E0524D96E4F
:105BF400020E0620DA6E0800F5CFDFFF054A062AFA
:105C0400040E065CD8A009EF2EF00BEF2EF0EDEF9A
:105C14002DF01200000E0F01386F000E396F000EC8
:105C24003A6F700ED3129B8C000E926E000E936E20
:105C3400000E946E000E896E000E8A6E000E8B6E3E
:105C4400000E806E000E816E000E826EA9EC31F0A3
:105C5400090E096E1E0E086EE40EE82EFED7082EFD
:105C6400FCD7092EFAD700D0120001C03CF002C0C4
:105C74003DF001C0F6FF02C0F7FF0800F5CF3EF08B
:105C8400010E0124036E000E0220046E03C0F6FF11
:105C940004C0F7FF0800F5CF3FF0020E0124036EA5
:105CA400000E0220046E03C0F6FF04C0F7FF0800D4
:105CB400F5CF40F0030E0124036E000E0220046EA3
:105CC40003C0F6FF04C0F7FF0800F5CF41F0000E53
:105CD400426E12001350155C1650800A1A6E14504E
:105CE400800A1A58D8B079EF2EF07BEF2EF097EF98
:105CF4002EF013C01BF014C01CF015C013F016C016
:105D040014F01BC015F01CC016F097EF2EF013C052
:105D140009F014C00AF017C00BF018C00CF019C039
:105D24000DF0BAEC34F0134A142A1350155C1650D3
:105D3400800A1A6E1450800A1A58D8B0A4EF2EF0B4
:105D4400A6EF2EF089EF2EF012001350155C1650BA
:105D5400800A1A6E1450800A1A58D8B0B4EF2EF084
:105D6400B6EF2EF0D2EF2EF013C01BF014C01CF0CF
:105D740015C013F016C014F01BC015F01CC016F0AB
:105D8400D2EF2EF017C009F018C00AF013C00BF0C0
:105D940014C00CF019C00DF0BAEC34F0134A142AF4
:105DA4001350155C1650800A1A6E1450800A1A5843
:105DB400D8B0DFEF2EF0E1EF2EF0C4EF2EF012009A
:105DC4001DC013F01EC014F021C015F022C016F03F
:105DD4001FC017F020C018F025C019F06CEC2EF08D
:105DE4001DC013F01EC014F021C015F022C016F01F
:105DF40023C017F024C018F025C019F06CEC2EF065
:105E04001FC013F020C014F023C015F024C016F0F6
:105E14001DC017F01EC018F025C019F0A7EC2EF015
:105E24001FC013F020C014F023C015F024C016F0D6
:105E340021C017F022C018F025C019F0A7EC2EF0ED
:105E44001200000E036E210E74EC2DF0000E74ECA3
:105E54002DF07F0E74EC2DF0220E74EC2DF0000E5C
:105E640074EC2DF0070E74EC2DF0000E056E000E90
:105E7400046E45EC2DF0780E59EC2DF0400E59ECE3
:105E84002DF0000E036E000E0424D96E020E0520C0
:105E9400DA6EDF5059EC2DF0044A052A032A0F0E5E
:105EA400036457EF2FF059EF2FF045EF2FF004065E
:105EB400D8A005064FEC2DF0044A052A040E055C13
:105EC400D8A067EF2FF069EF2FF03BEF2FF012000F
:105ED400000E2E6EA1EF2FF039EC2DF0266E265019
:105EE400016E026A000E046E020E036E7AEC30F04C
:105EF40001C02AF002C02BF036EC2DF0266E26509D
:105F0400016E026A000E046E020E036E7AEC30F02B
:105F140001C02CF002C02DF02AC013F02BC014F0E5
:105F24002CC015F02DC016F02EC017F0186A010E03
:105F3400196EA0EC35F023EC2FF0050E2E2639EC6B
:105F44002DF0266E2650016E026A000E046E020EBB
:105F5400036E7AEC30F02E50276E286A0150275CCD
:105F64002850800A296E0250800A2958D8A0BDEF13
:105F74002FF0BFEF2FF06EEF2FF01200000E376EF0
:105F8400E0EF2FF0000E146E000E136E000E166E6E
:105F9400000E156E37C017F0186A36EC2DF0366E09
:105FA400FF0E3624196E1A6AFF0E1A22010E1B6E9A
:105FB400A9EC36F023EC2FF0040E372639EC2DF043
:105FC400366E3650375CD8A0EAEF2FF0ECEF2FF0A6
:105FD400C4EF2FF0000E376E0CEF30F0000E146E8D
:105FE400000E136E000E166E000E156E39EC2DF0B9
:105FF400366EFF0E3624176E186AFF0E182237C04D
:1060040019F01A6A010E1B6EA9EC36F023EC2FF07E
:10601400040E372636EC2DF0366E3650375CD8A099
:1060240016EF30F018EF30F0F0EF2FF01200000E02
:106034001F6E35EF30F0000E146E000E136E39EC47
:106044002DF01D6EFF0E1D24156E166AFF0E16220E
:106054001FC017F0186A010E196E6CEC2EF023ECB9
:106064002FF0040E1F2636EC2DF01D6E1D501F5C04
:10607400D8A03FEF30F041EF30F01DEF30F0520E7A
:106084001E6E2B0E1D6E000EE82EFED71D2EFCD7A5
:106094001E2EFAD700D083EC2DF023EC2FF0000E47
:1060A4001F6E6DEF30F0000E146E000E136E36ECA2
:1060B4002DF01D6EFF0E1D24156E166AFF0E16229E
:1060C4001FC017F0186A010E196EA7EC2EF023EC0E
:1060D4002FF0040E1F2639EC2DF01D6E1D501F5C91
:1060E400D8A077EF30F079EF30F055EF30F01200B0
:1060F400000E066E04BE83EF30F081EF30F089EFBE
:1061040030F0036C041ED8B0042A010E066E02BEE1
:1061140090EF30F08EEF30F096EF30F0016C021E0D
:10612400D8B0022A010E061A000E086E000E076E81
:1061340003500410D8B4A1EF30F0A3EF30F0CBEF4C
:1061440030F0010E056EABEF30F0D8900336043614
:10615400052A04AEB0EF30F0B2EF30F0A7EF30F024
:10616400D890073608360350015C04500258D8A072
:10617400BEEF30F0C0EF30F0C5EF30F00350015EF9
:106184000450025A0780D89004320332052EB2EF2D
:1061940030F00650D8B4D1EF30F0D3EF30F0D7EF71
:1061A40030F0076C081ED8B0082A07C001F008C0F8
:1061B40002F01200827C1B0E016E780E026EE9EC76
:1061C4002DF023EC2FF0520E086E2B0E076E000EEE
:1061D400E82EFED7072EFCD7082EFAD700D0827CF3
:1061E400010E92EC2DF023EC2FF0520E086E2B0EC4
:1061F400076E000EE82EFED7072EFCD7082EFAD71E
:1062040000D0827C000E92EC2DF01B0E016E740EF9
:10621400026EE9EC2DF023EC2FF0520E086E2B0EDB
:10622400076E000EE82EFED7072EFCD7082EFAD7ED
:1062340000D0827C010E92EC2DF023EC2FF0520E54
:10624400086E2B0E076E000EE82EFED7072EFCD725
:10625400082EFAD700D0827C000E92EC2DF0520E5C
:10626400086E2B0E076E000EE82EFED7072EFCD705
:10627400082EFAD700D0120032C001F033C002F069
:10628400CCEC2DF00150376EFE0E2E182F10D8A432
:106294004EEF31F050EF31F05EEF31F037503E0207
:1062A400F3CF34F0F4CF35F0345080082E6E3550EF
:1062B400D8A0E82A00082F6E2E282F10D8A465EF46
:1062C40031F067EF31F07FEF31F037503E02F3CF1A
:1062D40034F0F4CF35F034508008016E3550D8A036
:1062E400E82A0008026E000E046E020E036E7AECB9
:1062F40030F001C02EF002C02FF0000E366E9FEF7A
:1063040031F036503E02F3CF34F0F4CF35F02E5056
:106314003424136E2F503520146E30C015F031C064
:1063240016F032C0F6FF33C0F7FF0800F5CF17F0C0
:1063340023EC38F0324A332A362A3750365CD8A058
:10634400A6EF31F0A8EF31F083EF31F012003CEC0E
:106354002DF04FEC2DF0090E076E1E0E066EE40EA6
:10636400E82EFED7062EFCD7072EFAD700D0AE0EA5
:1063740074EC2DF0D50E74EC2DF0800E74EC2DF031
:10638400A80E74EC2DF03F0E74EC2DF0D30E74ECCB
:106394002DF0000E74EC2DF0400E74EC2DF08D0EEB
:1063A40074EC2DF0140E74EC2DF0200E74EC2DF022
:1063B400000E74EC2DF0A10E74EC2DF0C80E74ECEC
:1063C4002DF0DA0E74EC2DF0120E74EC2DF0810E1B
:1063D40074EC2DF0CF0E74EC2DF0D90E74EC2DF07E
:1063E400F10E74EC2DF0DB0E74EC2DF0400E74EC19
:1063F4002DF0A40E74EC2DF0A60E74EC2DF02E0EE0
:1064040074EC2DF0AF0E74EC2DF01B0E016E7C0EAF
:10641400026E37EC2EF0090E076E1E0E066EE40EA9
:10642400E82EFED7062EFCD7072EFAD700D023EC91
:106434002FF012001B0E016E7C0E026E37EC2EF054
:10644400000E2F6E000E2E6E000E316E000E306E9A
:10645400C70E326E7F0E336E3EEC31F0000E2F6E9F
:10646400000E2E6E000E316E080E306EB10E326EBE
:106474007F0E336E3EEC31F023EC2FF0520E396E6A
:106484002B0E386E000EE82EFED7382EFCD7392E90
:10649400FAD700D0000E2F6E000E2E6E000E316E55
:1064A400100E306EDD0E326E7F0E336E3EEC31F028
:1064B400000E2F6E000E2E6E000E316E180E306E12
:1064C400AB0E326E7F0E336E3EEC31F023EC2FF0C8
:1064D40083EC2DF0520E396E2B0E386E000EE82E22
:1064E400FED7382EFCD7392EFAD700D0590E016EBC
:1064F4007E0E026E37EC2EF0000E2F6E000E2E6E06
:10650400000E316E000E306E7A0E326E7F0E336ED8
:106514003EEC31F0000E2F6E000E2E6E000E316E2A
:10652400080E306E960E326E7F0E336E3EEC31F0F6
:10653400000E2F6E000E2E6E000E316E100E306E99
:10654400F30E326E7F0E336E3EEC31F023EC2FF0FF
:10655400520E396E2B0E386E000EE82EFED7382EF2
:10656400FCD7392EFAD700D083EC2DF023EC2FF092
:106574001200000E2A6EF5EF32F02AC01DF01E6ADA
:106584002AC01FF0206A39EC2DF0266E276A2A50A3
:10659400265E000E275AFF0E2624216EFF0E2720AA
:1065A400226E36EC2DF0286E296A2A50285E000EE1
:1065B400295AFF0E2824236EFF0E2920246E010E73
:1065C400256EE2EC2EF023EC2FF0150E276E4B0E09
:1065D400266EBE0EE82EFED7262EFCD7272EFAD71F
:1065E40000D0020E2A2636EC2DF0266E2650016EBF
:1065F400026A000E046E020E036E7AEC30F02A502A
:10660400276E286A0150275C2850800A296E0250A0
:10661400800A2958D8A011EF33F013EF33F0BFEFFD
:1066240032F0520E276E2B0E266E000EE82EFED789
:10663400262EFCD7272EFAD700D083EC2DF023EC9E
:106644002FF036EC2DF0266E2650016E026A000EF5
:10665400046E020E036E7AEC30F001502A6E2A505A
:10666400D8A437EF33F039EF33F03BEF33F05AEF80
:1066740033F02AC01DF01E6A2AC01FF0206A39ECCC
:106684002DF0266E2A50265C216E226AD8A022069E
:1066940036EC2DF0276E2A50275C236E246AD8A08E
:1066A4002406010E256EE2EC2EF02A0631EF33F0BB
:1066B40012000CEC2EF083EC2DF023EC2FF0520E94
:1066C4003B6E2B0E3A6E000EE82EFED73A2EFCD708
:1066D4003B2EFAD700D066EC2DF023EC2FF0520EAF
:1066E4003B6E2B0E3A6E000EE82EFED73A2EFCD7E8
:1066F4003B2EFAD700D083EC2DF0000E0A6E0A0E62
:10670400096E000E0C6E0A0E0B6E010E0D6EBAECC5
:1067140034F023EC2FF0520E3B6E2B0E3A6E000E2B
:10672400E82EFED73A2EFCD73B2EFAD700D083ECC6
:106734002DF0C0EC2FF023EC2FF0520E3B6E2B0EFD
:106744003A6E000EE82EFED73A2EFCD73B2EFAD72F
:1067540000D083EC2DF019EC30F023EC2FF0520E26
:106764003B6E2B0E3A6E000EE82EFED73A2EFCD767
:106774003B2EFAD700D083EC2DF0BBEC32F023ECA7
:106784002FF0520E3B6E2B0E3A6E000EE82EFED703
:106794003A2EFCD73B2EFAD700D083EC2DF06AECCE
:1067A4002FF023EC2FF0520E3B6E2B0E3A6E000EA0
:1067B400E82EFED73A2EFCD73B2EFAD700D083EC36
:1067C4002DF01CEC32F023EC2FF0520E3B6E2B0E0E
:1067D4003A6E000EE82EFED73A2EFCD73B2EFAD79F
:1067E40000D083EC2DF023EC2FF0DCEC30F023EC24
:1067F4002FF0F7EF33F000EF00F001C00BF002C010
:106804000CF005500610D8A40AEF34F00CEF34F065
:106814000EEF34F0B9EF34F00BC0D9FF0CC0DAFF3F
:1068240003C0DFFF05500B24076E06500C20086ED2
:10683400FF0E0724D96EFF0E0820DA6E03C0DFFFB7
:10684400065007E1030E055CD8B02BEF34F02DEFB2
:1068540034F02FEF34F0B9EF34F020EE01F00B50A8
:10686400D9260C50DA2203C0DFFF20EE02F00B50D1
:10687400D9260C50DA2203C0DFFF05500B24076E23
:1068840006500C20086EFE0E0724D96EFF0E082059
:10689400DA6E03C0DFFF05500B24076E06500C2090
:1068A400086EFD0E0724D96EFF0E0820DA6E03C0B1
:1068B400DFFF065007E1070E055CD8B064EF34F043
:1068C40066EF34F068EF34F0B9EF34F020EE03F003
:1068D4000B50D9260C50DA2203C0DFFF05500B24DD
:1068E400076E06500C20086EFC0E0724D96EFF0EAE
:1068F4000820DA6E03C0DFFF065007E1090E055CCD
:10690400D8B087EF34F089EF34F08BEF34F0B9EF7F
:1069140034F00BC007F00CC008F0071E081E074A2D
:10692400082A030E0714096E0A6A09500B260A5036
:106934000C220950055E0A50065AFC0E0516FF0E7D
:106944000616B0EF34F00BC0D9FF0CC0DAFF03C059
:10695400DFFF0506D8A006060B4A0C2A05500610D0
:10696400D8A4B7EF34F0B9EF34F0A5EF34F0120047
:106974000ABEBFEF34F0C1EF34F09FEF35F034ECD2
:106984002DF00E6E0F6A0E50095C0A50800A106ECC
:106994000F50800A1058D8B0D2EF34F0D4EF34F04E
:1069A4009FEF35F00CBED9EF34F0DBEF34F09FEFFE
:1069B40035F032EC2DF00E6E0F6A0E500B5C0C505D
:1069C400800A106E0F50800A1058D8A0ECEF34F0F3
:1069D400EEEF34F086EF35F09FEF35F00BC00EF09C
:1069E400070E0E16010E0F6E0E2AFBEF34F0D89030
:1069F4000F360E2EF9EF34F00BC001F00CC002F08C
:106A0400000E046E080E036E7AEC30F0070ED89078
:106A140001360236E82E09EF35F0000E106E020E34
:106A2400116E015010260250112209501024D96E03
:106A34000A501120DA6E0F50DF129FEF35F00BC0B1
:106A44000EF0070E0E16010E0F6E0E2A2CEF35F007
:106A5400D8900F360E2E2AEF35F00F50FF0A106E25
:106A64000BC001F00CC002F0000E046E080E036EA1
:106A74007AEC30F0070ED89001360236E82E3DEF5E
:106A840035F0000E116E020E126E015011260250E6
:106A9400122209501124D96E0A501220DA6E1050B5
:106AA400DF169FEF35F00BC00EF0070E0E16010E29
:106AB4000F6E0E2A60EF35F0D8900F360E2E5EEF73
:106AC40035F00BC001F00CC002F0000E046E080E8D
:106AD400036E7AEC30F0070ED89001360236E82EB9
:106AE4006EEF35F0000E106E020E116E015010267E
:106AF4000250112209501024D96E0A501120DA6E66
:106B04000F50DF1A9FEF35F00D500E6E0F6A0F50C5
:106B1400000AD8B490EF35F09FEF35F00E50000A1C
:106B2400D8B421EF35F0010AD8B4F0EF34F0030AF9
:106B3400D8B455EF35F09FEF35F012001750010827
:106B4400206E1850D8A0E82A0008216E000E1D6E91
:106B5400010E1C6E17C01AF018C01BF0D8901A361C
:106B64001B361A1E1B1E1A4A1B2A1AC01EF01BC0F3
:106B74001FF0000E236E000E226E17C024F018C002
:106B840025F013C009F014C00AF0175015240B6E39
:106B9400185016200C6E19C00DF0BAEC34F013C066
:106BA40009F014C00AF01750155C0B6E18501658F3
:106BB4000C6E19C00DF0BAEC34F017501324096EA2
:106BC400185014200A6E15C00BF016C00CF019C032
:106BD4000DF0BAEC34F01750135C096E18501458C9
:106BE4000A6E15C00BF016C00CF019C00DF0BAEC0B
:106BF40034F099EF36F021BE02EF36F004EF36F0B0
:106C04000FEF36F02406D8A02506020E1E26000E2D
:106C14001F221E5020261F502122224A232A020E00
:106C24001C26000E1D221C5020261D5021222250FD
:106C34001324096E235014200A6E245015240B6E5D
:106C4400255016200C6E19C00DF0BAEC34F0225009
:106C5400135C096E235014580A6E245015240B6ECD
:106C6400255016200C6E19C00DF0BAEC34F02250E9
:106C74001324096E235014200A6E2450155C0B6EE5
:106C8400255016580C6E19C00DF0BAEC34F0225091
:106C9400135C096E235014580A6E2450155C0B6E55
:106CA400255016580C6E19C00DF0BAEC34F024506F
:106CB4001324096E255014200A6E225015240B6EDD
:106CC400235016200C6E19C00DF0BAEC34F0245089
:106CD400135C096E255014580A6E225015240B6E4D
:106CE400235016200C6E19C00DF0BAEC34F0245069
:106CF4001324096E255014200A6E2250155C0B6E65
:106D0400235016580C6E19C00DF0BAEC34F0245010
:106D1400135C096E255014580A6E2250155C0B6ED4
:106D2400235016580C6E19C00DF0BAEC34F02450F0
:106D3400225C2350800A1A6E2550800A1A58D8A063
:106D4400A6EF36F0A8EF36F0FDEF35F01200135041
:106D5400175C326E14501858336E33BEB6EF36F0EB
:106D6400B4EF36F0C3EF36F032C009F033C00AF0A6
:106D7400FF0E0C6E0B68A4EC2DF009C032F00AC0B3
:106D840033F01550195C346E16501A58356E35BEF2
:106D9400D0EF36F0CEEF36F0DDEF36F034C009F048
:106DA40035C00AF0FF0E0C6E0B68A4EC2DF009C080
:106DB40034F00AC035F013C024F014C025F015C017
:106DC40026F016C027F01350175C1850800A1C6E6A
:106DD4001450800A1C58D8B0F2EF36F0F4EF36F0B5
:106DE400F8EF36F02E682F68FCEF36F0000E2F6EA9
:106DF400010E2E6E1550195C1A50800A1C6E165026
:106E0400800A1C58D8B009EF37F00BEF37F00FEFBA
:106E140037F03068316813EF37F0000E316E010E31
:106E2400306E3450325C3350800A1C6E3550800A08
:106E34001C58D8A020EF37F022EF37F0A3EF37F03B
:106E440034C01CF035C01DF0D8901C361D363250AD
:106E54001C5E33501D5A1CC02AF01DC02BF0000EBE
:106E64002BBEFF0E2C6E2D6E000E296E000E286EAA
:106E740092EF37F024C009F025C00AF026C00BF0C9
:106E840027C00CF01BC00DF0BAEC34F02DBE4FEF50
:106E940037F04DEF37F067EF37F0D89034341C6E8D
:106EA40035341D6E1E6A1DBE1E061E501F6E1C50FC
:106EB4002A261D502B221E502C221F502D222E50CC
:106EC40024262F50252290EF37F032C01CF033C017
:106ED4001DF0D8901C361D3634C01EF035C01FF08E
:106EE400D8901E361F361C501E5C206E1D501F5835
:106EF400216E226A21BE22062250236E20502A26A9
:106F040021502B2222502C2223502D222E50242675
:106F14002F5025223050262631502722284A292A4C
:106F24002850325C3350800A1C6E2950800A1C5849
:106F3400D8B09FEF37F0A1EF37F03CEF37F022EFF6
:106F440038F032C01CF033C01DF0D8901C361D360A
:106F540034501C5E35501D5A1CC02AF01DC02BF045
:106F6400000E2BBEFF0E2C6E2D6E000E296E000E31
:106F7400286E13EF38F024C009F025C00AF026C0AB
:106F84000BF027C00CF01BC00DF0BAEC34F02DBE92
:106F9400D0EF37F0CEEF37F0E8EF37F0D890323457
:106FA4001C6E33341D6E1E6A1DBE1E061E501F6EDF
:106FB4001C502A261D502B221E502C221F502D22DD
:106FC400305026263150272211EF38F034C01CF0FF
:106FD40035C01DF0D8901C361D3632C01EF033C0AB
:106FE4001FF0D8901E361F361C501E5C206E1D509C
:106FF4001F58216E226A21BE22062250236E205081
:107004002A2621502B2222502C2223502D222E506E
:1070140024262F5025223050262631502722284A54
:10702400292A2850345C3550800A1C6E2950800A65
:107034001C58D8B020EF38F022EF38F0BDEF37F00D
:107044001200000E2A6E000E296E000E2C6E000E29
:107054002B6E000E1E6E000E1D6E3FC018F0070E44
:107064001816D8A438EF38F03AEF38F036EF39F084
:107074003EC009F00A6A000E046E080E036E3FC09B
:1070840001F0026A7AEC30F001C00BF002C00CF09F
:10709400A4EC2DF009C01BF00AC01CF04050175C92
:1070A400096E0A6AD8A00A061BC00BF01CC00CF0BB
:1070B400A4EC2DF0040E0924236E000E0A20246E85
:1070C400000E2A6E000E296E20EF39F0000E2C6E91
:1070D400000E2B6E10EF39F03EC009F00A6A29C089
:1070E4000BF02AC00CF0A4EC2DF03CC018F03DC00D
:1070F40019F0095018260A50192223501826245032
:1071040019222B5018262C50192218C0F6FF19C02A
:10711400F7FF0800F5501D6E1E6A000E2D6E2DC07F
:1071240018F0010E196E000E1A6E182A9DEF38F031
:10713400D89019361A36182E9AEF38F01D501916B1
:107144001E501A1619501A10D8B4ABEF38F0ADEF20
:1071540038F0FBEF38F04250D8A4B3EF38F0B5EF75
:1071640038F0D8EF38F02B501324096E2C5014202B
:107174000A6E2D5029C018F02AC019F0D89018367C
:107184001936D89018361936D89018361936182664
:10719400000E1922155018240B6E165019200C6E6F
:1071A400010E0D6EBAEC34F005EF39F02B501324B8
:1071B400096E2C5014200A6E2D5029C018F02AC0D4
:1071C40019F0D89018361936D89018361936D89040
:1071D400183619361826000E1922155018240B6E6D
:1071E400165019200C6E000E0D6EBAEC34F005EF3B
:1071F40039F04250D8A401EF39F003EF39F0B5EF7C
:1072040038F0D8EF38F02D2A070E2D640CEF39F042
:107214000EEF39F091EF38F02B4A2C2A3E50186EBD
:10722400196A18502B5C19502C58D8A01CEF39F04F
:107234001EEF39F06EEF38F0294A2A2A3FC001F0D8
:10724400026A000E046E080E036E7AEC30F00150F0
:10725400295C02502A58D8A032EF39F034EF39F0C3
:1072640068EF38F00AEF3AF04050175C096E0A6A8A
:10727400D8A00A06000E046E080E036E3E503F02AC
:10728400F3CF01F0F4CF02F07AEC30F001C00BF050
:1072940002C00CF0A4EC2DF0040E0924236E000EA1
:1072A4000A20246E23503C24186E24503D20196E6D
:1072B40018C0F6FF19C0F7FF0800F5501F6E206ACA
:1072C400000E226E070E216E000E266E000E256E35
:1072D400F8EF39F0000E286E000E276EE4EF39F057
:1072E40021C018F0010E196E000E1A6E182A7EEFD6
:1072F40039F0D89019361A36182E7BEF39F01F5012
:10730400191620501A1619501A10D8B48CEF39F0E7
:107314008EEF39F0BAEF39F04250D8A494EF39F037
:1073240096EF39F0A8EF39F025501324096E265052
:1073340014200A6E275015240B6E285016200C6E4C
:10734400010E0D6EBAEC34F0C4EF39F0255013245D
:10735400096E265014200A6E275015240B6E2850EF
:1073640016200C6E000E0D6EBAEC34F0C4EF39F03A
:107374004250D8A4C0EF39F0C2EF39F096EF39F09B
:10738400A8EF39F02106D8A0220622BECEEF39F0AC
:10739400CCEF39F0E2EF39F0000E226E070E216EC9
:1073A400234A242A23503C24186E24503D20196E6D
:1073B40018C0F6FF19C0F7FF0800F5501F6E206AC9
:1073C400274A282A3F50186E196A1850275C2850FB
:1073D400800A1A6E1950800A1A58D8A0F4EF39F0AE
:1073E400F6EF39F072EF39F0254A262A3E50186E2E
:1073F400196A1850255C2650800A1A6E1950800AA2
:107404001A58D8A008EF3AF00AEF3AF06CEF39F0C6
:107414001200000C10205F00000000040A3A3E7ABB
:10742400D2D0D0D0D0D030BC3CACACF6F7FF6EFE9E
:10743400BE7E7E5C9860000000000000000000003A
:107444000000000000000000000000000000000038
:1074540000000000000000808080800081818D8F0A
:1074640088C050D0C808088C0C3A3A47828700A1DB
:10747400D070F0A0A6A6998B8E8D8F0F1B17171BAB
:107484000F0F8FBEBBBF9FCC8C8FF6F6F6E6BDFF09
:10749400B1BDEEC34C000000000000000000181C49
:1074A400DE7E7B393F7D780F0F030341C1E1C1C00C
:1074B400C000000000000000000000000000000008
:1074C40000000000000000000000000000000000B8
:1074D4000000000062631D99C042C7848485870050
:1074E400008050785171767E3F1F16E3FDF8E0C0AE
:1074F400C1C2C2C2C38100018383BFBFE6EAEABC42
:10750400F8F1C34247818585AEFFFFF7FFFFFEFE1A
:10751400FFFBFDD2D0000000000000203C34F7FE49
:10752400F1F5EFFFBCB6FEFCE6F3E9F79799FFF738
:10753400F3DFDDFC7878F86878F87070301010109C
:107544001010101010101010101010101010101037
:107554001010101010101010101010101010111125
:1075640011111010101010101010101F1F1F1F11D8
:10757400111111111111121219192C0F1F3F3F6F04
:107584007F3A3F7777FFBF35161F0B1F1F2F3F3FF3
:10759400FFCFFFFF2F250000000000000020FBFFAD
:1075A400FFFFFFFF8381C1E3E33337E5C7070F0B19
:1075B4001B1F1C38F0606061616161606060606025
:1075C40060606060606060606060606060E0606037
:1075D40060606060606060606060606060606060A7
:1075E4006060606060606060606060606060606097
:1075F4006060606060606060606060606060606087
:10760400606060606060616362666CF8F060600096
:10761400FFFFFFFF0000000000000002171D2121F2
:10762400FFFFFFFFA7A73A1878F8E8797B7A9E90C6
:1076340000FC9E9F7F60800E0A0A0A0A0A0A0E0056
:1076440000000E0A0A0A0A0A0E0E000080FFF8E87B
:10765400C0C0FEFEFE222222222222FE222222225A
:10766400222222FEFEFE32000000FE82BA3A3A6274
:1076740062626202FE000000FEFEFEFE2222222260
:10768400FEFE2222222222FEFEFEE07FFFC2DE7EDA
:10769400FFFFFFFF0000000000000000808080600A
:1076A400BFFF7FFFFFE1C3CF8C8908080808193F9B
:1076B4003B0B4F4F49E9FEA8A0A02020202020200A
:1076C40020202020202020202020203C3F272F3F46
:1076D4003F7D4909E140487878787949414D51190D
:1076E40079497931714949C8C8787F50514040403F
:1076F4005050F0E07F189890C9E9F9F9388808905B
:10770400F17978A0F8F07009793F7F78684D4C7C66
:10771400FFFFFFFFF8000000000000000000000071
:107724000000000000000000000000000000000055
:1077340000000000000000010103030306060C0C16
:1077440018181030206060C0C08080000000000065
:10775400000000000100020206060000040000020E
:1077640002226262D0D19191101010080808040618
:107774000201010000000000000000000000000001
:107784000000000000000000008080C0C0E0E0F8BD
:10779400E7EFFF7743000000000000000000808056
:1077A40000C0C0C0C0C0C0C0C0C0C0C0C0C0C0C095
:1077B400C0C0C0C0404040404040404040404040C5
:1077C40040404040404060404041416363626666DF
:1077D4006C6C787878707020000000000000000065
:1077E400000000000000010101030206060C0C1851
:1077F400183030303030303030303030303030309D
:107804003030303030303030303030303030301094
:107814001000000000000000000000000000000054
:107824000000000000000000000000000000000054
:107834000000000000000000000000000000000044
:107844000000000000000000000000000000000034
:1078540000008000408000624408100080488400DA
:1078640000602000C0400080000000000000000014
:107874000000000000000000000000000000000004
:1078840000000000000000000000000000000000F4
:1078940000000000000000000000000000000000E4
:1078A40000000000000000000000000000000000D4
:1078B40000000000000000000000000000000000C4
:1078C4000000000000000000000000000000801024
:1078D40084790403018000000000000000181710E0
:1078E400000000202040808001229C708000000065
:1078F4000000000000000000000000000000000084
:107904000000000000000000000000000000000073
:107914000000000000000000000000000000000063
:107924000000000000000000000000000000000053
:10793400800040C000604010406020804000800013
:1079440000000000002010000000040000000300FC
:107954000300040406081070C000000000000000CA
:107964000080200000080107060406040704040040
:1079740008081070C00000000000000000F00000C3
:107984007A7A004000020004F800000000000000C1
:107994000000000000000000000000808000408023
:1079A40000608030601818200C1412060C030704C1
:1079B40003031A011F7D3C3C3C7D190602030504A8
:1079C40002090C06120A2430406030C0C020A0C056
:1079D40040109000080804060100000000000000A8
:1079E40000010000000000000020202020200010E2
:1079F40010080C06038080800000C0C080FF0000D7
:107A0400074508C087000080FF08E0F0F0E0C0C030
:107A14008000000000000000000001010181013F1E
:107A2400212121217B3F2525253FBB2121213925EA
:107A340023A3272F3D393121233F27252D39393FD2
:107A44003F21213B7F3F2525252F3B3931E1212152
:107A540021213F2101C000E020200000003030201F
:107A64000088989810808C4C484000C6E62420007A
:107A740003E3F21010010109F8F8000004FF00000C
:107A84008D8898903D0100DAFF00FFFFFFFFFFFFA4
:107A9400FFFFFFFEFCFCF80000000000000000FFF8
:107AA40000000000FF5600000000FF00000000FF7F
:107AB400FF10ACF43E2527232222E2222222232592
:107AC400263AE4F800FFFF000000FFFF0000FF007B
:107AD40000000000000000FF0200007F4141003F61
:107AE4003F000020203F3F008080809F9F90908037
:107AF400808F8F8808484840C747C0C0040F0010D3
:107B0400052122262030000F0600FFFFFFFFFFFFA4
:107B1400FFFFFFFFFFFFFF00000000000040407F69
:107B2400404040407F6B404040407F404040407F69
:107B34007F40547F4040404040407F404040404070
:107B440040407F7F407F7F4040407F7F40407F4078
:107B5400404040404040F0FF0000000001010101AE
:107B6400000000000000000000000000FF40FFFFD4
:107B74000010101010101010FF00FFFF0000000094
:107B840000000000000000000000FF3FFF0FFFFFA7
:107B9400FFFFFFFFFFFFFF000000000000060606D6
:107BA4000606060606060606060606060606060671
:107BB4000606060606060606060606060606060661
:107BC4000606060606060606060606060606060651
:107BD4000600000000003F2B2828282828282828F1
:107BE4002828282828282828282828282F203F3FE4
:107BF40020202020202020203F202F2F2828282824
:107C0400282828282828282828283F2020202F3FD3
:107C14002F2F3F3F3F3F3F0608205F00000000003A
:107C2400000000002F000000000700070000147F80
:107C3400147F1400242A7F2A12002313086462008C
:107C4400364955225000000503000000001C224163
:107C540000000041221C000014083E08140008081B
:107C64003E0808000000A06000000808080808009A
:107C74000060600000002010080402003E514945E5
:107C84003E0000427F4000004261514946002141CC
:107C9400454B31001814127F100027454545390023
:107CA4003C4A4949300001710905030036494949F4
:107CB4003600064949291E000036360000000056E9
:107CC4003600000008142241000014141414140097
:107CD4000041221408000201510906003249595199
:107CE4003E007C1211127C007F49494936003E4116
:107CF400414122007F4141221C007F494949410002
:107D04007F09090901003E4149497A007F080808B2
:107D14007F0000417F4100002040413F01007F0877
:107D2400142241007F40404040007F020C027F004B
:107D34007F0408107F003E4141413E007F0909094C
:107D440006003E4151215E007F091929460046493B
:107D54004949310001017F0101003F4040403F009B
:107D64001F2040201F003F4038403F006314081488
:107D74006300070870080700615149454300007F0C
:107D8400414100AA55AA55AA55000041417F00006F
:107D9400040201020400404040404000000305008A
:107DA40000002054545478007F4844443800384438
:107DB40044442000384444487F0038545454180044
:107DC400087E0901020018A4A4A47C007F0804040E
:107DD400780000447D4000004080847D00007F10D6
:107DE4002844000000417F4000007C04180478000F
:107DF4007C0804047800384444443800FC242424D7
:107E0400180018242418FC007C08040408004854B2
:107E140054542000043F444020003C4040207C0057
:107E24001C2040201C003C4030403C0044281028CA
:107E340044001CA0A0A07C004464544C44000010E6
:107E44007C8200000000FF00000000827C10000023
:107E540000060909060406205F00000003A000C014
:107E64000C00F94F806BEB00988C8052A5800300C6
:107E74000001C88089C00050850021C2000840006C
:107E8400208200002000188C00FA2F804BE0805ADA
:107E940066808AA500E08F80EAAB0072A9009A8C04
:107EA40000FAAF804AA70001400009400021488041
:107EB40051450089420042660072A6807A8780FAA2
:107EC400A500722500FA2700FAA880FA8800722B10
:107ED40000F88F808BE8808BE800F88D80F8208094
:107EE400F90F80F9CF80722700FA8400722740FAD4
:107EF40085804AA90083E800F02F00E06E00F0EFCF
:107F040000D88D80C0EC009AAC8003E880C08180EA
:107F14008BE000420400082080020400312380F931
:107F24002300312480312F8031628023EA002553DD
:107F340080F9038002E00006E000F8428003E000DC
:107F44007987803903803123007D23003127C0786D
:107F5400840029400043E4007027006066007067D5
:107F64000048C48074578059E68023E88003600089
:107F74008BE200610C004142434445464748494A6C
:107F84004C4B4C4D4E4F50515253545556575859D3
:107F94005A006162636465666768696A6B6C6D6EDA
:107FA4006F707172737475767778797A0056575852
:107FB400595A303132333435363738397E214023FB
:107FC4002425004142434445464748494A4B4C4DC9
:107FD4004E4F505152535455006162636465666755
:107FE40068696A6B6C6D6E6F707172737475003052
:0B7FF4003132333435363738390000A5
:020000040020DA
:08000000FFFFFFFFFFFFFFFF00
:020000040030CA
:0E000000FF38193CFFB581FF0FC00FE00F4025
:00000001FF
