:0400000030EF00F0ED
:0600080058824DEF1CF0D0
:100018005880D8CF05F0E8CF06F0E0CF07F0F2AA75
:1000280018EF00F01AEF00F028EF00F0F2A41FEF2D
:1000380000F021EF00F028EF00F0010E576EF80EE7
:10004800D76E300ED66EF29407C0E0FF06C0E8FF08
:1000580005C0D8FF58901000C5EF1BF0000E000136
:10006800756F000E746F37C086F038C087F039C0DE
:1000780088F03AC089F089BF46EF00F044EF00F0FD
:100088005CEF00F0000E756F010E746F86C008F00B
:1000980087C009F088C00AF089C00BF017EC1EF081
:1000A80008C086F009C087F00AC088F00BC089F044
:1000B800000E00018D6F000E8C6FE7C078F0E8C06D
:1000C80079F074517511D8A46CEF00F06EEF00F060
:1000D80075EF00F051A473EF00F075EF00F08FEFAB
:1000E80000F074517511D8A47CEF00F07EEF00F099
:1000F80084EF00F0000E616F2B0E606F88EF00F048
:10010800000E616F2D0E606F60C040F18C4B8D2B1F
:100118007807D8A0790786C008F087C009F088C09A
:100128000AF089C00BF0EFEC15F008040910D8A408
:10013800A0EF00F0A2EF00F0EDEF00F0BF0E3C6E74
:10014800FF0E3D6E3B503E6E3F6A3C503E263D5092
:100158003F223F5007E11A0E3E5CD8B0B6EF00F0E0
:10016800B8EF00F0C7EF00F0400E00018C25086ED4
:10017800010E8D21096EEB0E0A6E7F0E0B6EF3ECED
:100188001BF0D4EF00F0400E00018C25086E010E24
:100198008D21096EF30E0A6E7F0E0B6EF3EC1BF0C9
:1001A8000001FD0E7827FF0E792335C018F036C000
:1001B80019F0400E1A6E010E1B6E78C01CF079C043
:1001C8001DF0DDEC18F018C035F019C036F039EF25
:1001D80006F086C008F087C009F088C00AF089C018
:1001E8000BF0EFEC15F008500910D8A4FEEF00F062
:1001F80000EF01F034EF01F0BF0E3C6EFF0E3D6ED4
:100208003B503E6E3F6A3C503E263D503F223F5099
:1002180007E11A0E3E5CD8B014EF01F016EF01F0BA
:1002280025EF01F0400E00018C25086E010E8D218E
:10023800096EEF0E0A6E7F0E0B6EF3EC1BF0D4EF17
:1002480000F0400E00018C25086E010E8D21096E0C
:10025800F70E0A6E7F0E0B6EF3EC1BF0D4EF00F076
:10026800000E00018E6F000E8F6F800E906F3F0E94
:10027800916F000E8B6F000E8A6F86C008F087C0E2
:1002880009F088C00AF089C00BF0000E0C6E000E51
:100298000D6E000E0E6E000E0F6EEFEC19F0D8B05A
:1002A80058EF01F05AEF01F0DDEF01F079EF01F0BE
:1002B8008EC008F08FC009F090C00AF091C00BF012
:1002C800000E0C6E000E0D6E200E0E6E410E0F6E9F
:1002D800F5EC0BF008C08EF009C08FF00AC090F062
:1002E8000BC091F000018A4B8B2B86C021F087C090
:1002F80022F088C023F089C024F0000E0C6E000E96
:100308000D6E200E0E6E410E0F6E8EC008F08FC05F
:1003180009F090C00AF091C00BF0F5EC0BF008C0A2
:1003280025F009C026F00AC027F00BC028F06DECB4
:1003380015F0D8B0A2EF01F0A4EF01F05CEF01F0E6
:10034800C4EF01F08EC008F08FC009F090C00AF029
:1003580091C00BF0000E0C6E000E0D6E200E0E6E8E
:10036800410E0F6E0AEC0EF008C08EF009C08FF037
:100378000AC090F00BC091F000018A07D8A08B0743
:1003880086C021F087C022F088C023F089C024F0FD
:100398008EC025F08FC026F090C027F091C028F0BD
:1003A8006DEC15F0D8A0DBEF01F0DDEF01F0A6EF62
:1003B80001F03BC00EF00F6A15EC1DF00E50000165
:1003C8007B6F7BC07AF0670E7B19D8A4EEEF01F043
:1003D800F0EF01F016EF02F0E951EA11D8A4F7EFB7
:1003E80001F0F9EF01F0FDEF01F0000EEA6F010EE8
:1003F800E96FEABF0AEF02F0EA5106E1E905D8B071
:1004080008EF02F00AEF02F010EF02F0000E776F2B
:10041800060E766F1FEF02F0E9C076F0EAC077F0BB
:100428001FEF02F0EABF1BEF02F01DEF02F00AEF28
:1004380002F010EF02F0670E7B19D8A426EF02F045
:1004480028EF02F057EF02F08BAF36EF02F0FC0E08
:100458008A5DFF0E8B59D8A034EF02F036EF02F018
:1004680055EF02F0FF0E3C6EFF0E3D6E76C03EF07B
:1004780077C03FF03C503E263D503F228A513E5CBB
:100488003F50800A406E8B51800A4058D8A04FEFE9
:1004980002F051EF02F055EF02F0660E7A6F57EF57
:1004A80002F0650E7A6F76C06CF077C06DF0670E5B
:1004B8007B19D8A462EF02F064EF02F074EF02F047
:1004C800660E7A19D8A46BEF02F06DEF02F076EFA2
:1004D80002F08BBF74EF02F072EF02F076EF02F0D9
:1004E8006C4B6D2B660E7A19D8A47DEF02F07FEF66
:1004F80002F09FEF02F08BBF86EF02F084EF02F06C
:1005080092EF02F0000E8E6F000E8F6F800E906FCC
:100518003F0E916F000E8B6F000E8A6F670E7B196E
:10052800D8B499EF02F09BEF02F09FEF02F08A51E6
:100538006C278B516D23000E856F000E846F86C06B
:100548007CF087C07DF088C07EF089C07FF08EC0C7
:100558006EF08FC06FF090C070F091C071F030EF06
:1005680003F07CC008F07DC009F07EC00AF07FC0AF
:100578000BF08EC00CF08FC00DF090C00EF091C043
:100588000FF00AEC0EF008C021F009C022F00AC0F2
:1005980023F00BC024F028EC11F021C080F022C019
:1005A80081F023C082F024C083F080C008F081C0AD
:1005B80009F082C00AF083C00BF0EAEC14F008C01E
:1005C80072F009C073F07CC021F07DC022F07EC0BB
:1005D80023F07FC024F08EC00CF08FC00DF090C0C7
:1005E8000EF091C00FF080C008F081C009F082C001
:1005F8000AF083C00BF0F5EC0BF008C025F009C039
:1006080026F00AC027F00BC028F038EC1DF021C0F6
:100618007CF022C07DF023C07EF024C07FF08EC025
:1006280008F08FC009F090C00AF091C00BF0000EDE
:100638000C6E000E0D6E200E0E6E410E0F6E0AEC43
:100648000EF008C08EF009C08FF00AC090F00BC001
:1006580091F00001844B852B6C51845D8551800A93
:100668003C6E6D51800A3C58D8A03DEF03F03FEF37
:1006780003F0B5EF02F08EC008F08FC009F090C00B
:100688000AF091C00BF0000E0C6E000E0D6EA00E5D
:100698000E6E400E0F6EF5EC0BF008C080F009C02E
:1006A80081F00AC082F00BC083F07CC021F07DC0CD
:1006B80022F07EC023F07FC024F080C025F081C0E6
:1006C80026F082C027F083C028F06DEC15F0D8B072
:1006D80070EF03F072EF03F07DEF03F0000E0001FE
:1006E800806F000E816F000E826F000E836FA6EF81
:1006F80003F07CC008F07DC009F07EC00AF07FC01E
:100708000BF080C00CF081C00DF082C00EF083C0E9
:100718000FF0EFEC19F0D8A094EF03F096EF03F088
:10072800A6EF03F0000172B19CEF03F09EEF03F017
:10073800A6EF03F0000E806F000E816F000E826F2F
:10074800000E836F86C008F087C009F088C00AF0E1
:1007580089C00BF080C00CF081C00DF082C00EF093
:1007680083C00FF095EC09F008C07CF009C07DF05B
:100778000AC07EF00BC07FF07CC021F07DC022F063
:100788007EC023F07FC024F0000E0C6E000E0D6EAC
:10079800200E0E6E410E0F6E6EC008F06FC009F08D
:1007A80070C00AF071C00BF0F5EC0BF008C025F032
:1007B80009C026F00AC027F00BC028F06DEC15F030
:1007C800D8A0E9EF03F0EBEF03F014EF04F0000119
:1007D8008A4B8B2B6EC008F06FC009F070C00AF00E
:1007E80071C00BF0000E0C6E000E0D6E200E0E6E1A
:1007F800410E0F6EF5EC0BF008C06EF009C06FF0FB
:100808000AC070F00BC071F0660E00017A19D8A406
:1008180010EF04F012EF04F014EF04F06C4B6D2BA2
:100828006EC08EF06FC08FF070C090F071C091F004
:10083800650E00017A19D8B424EF04F026EF04F00D
:100848002CEF04F08AC06AF08BC06BF030EF04F034
:10085800000E6B6F000E6A6F000E696F000E686FF6
:10086800000E676F000E666F000E856F000E846FB6
:100878002CEF05F07CC008F07DC009F07EC00AF0BE
:100888007FC00BF08EC00CF08FC00DF090C00EF042
:1008980091C00FF00AEC0EF008C021F009C022F058
:1008A8000AC023F00BC024F028EC11F021C080F01E
:1008B80022C081F023C082F024C083F080C008F0F9
:1008C80081C009F082C00AF083C00BF0EAEC14F092
:1008D80008C072F009C073F051B875EF04F077EFF3
:1008E80004F095EF04F0000172517311D8A47FEF62
:1008F80004F081EF04F095EF04F0670E7B19D8A49B
:1009080088EF04F08AEF04F095EF04F06BBF91EFE5
:1009180004F08FEF04F095EF04F0664B672BE0EFDF
:1009280004F0000168516911D8A49DEF04F09FEF0D
:1009380004F0C9EF04F06BBFA6EF04F0A4EF04F0D5
:10094800C9EF04F0400E8C25D96E010E8D21DA6EA8
:100958002E0EDF6E8C4B8D2B7807D8A07907000EF2
:10096800696F010E686FC9EF04F0400E8C25D96ECF
:10097800010E8D21DA6E300EDF6E8C4B8D2B7807D1
:10098800D8A079076607D8A0670766516711D8A469
:10099800D0EF04F0D2EF04F0B9EF04F0400E8C254C
:1009A800D96E010E8D21DA6E7251300FDF6E8C4BCD
:1009B8008D2B7807D8A079077CC021F07DC022F064
:1009C8007EC023F07FC024F08EC00CF08FC00DF0E5
:1009D80090C00EF091C00FF080C008F081C009F0FF
:1009E80082C00AF083C00BF0F5EC0BF008C025F0CC
:1009F80009C026F00AC027F00BC028F038EC1DF01B
:100A080021C07CF022C07DF023C07EF024C07FF09E
:100A18008EC008F08FC009F090C00AF091C00BF0AA
:100A2800000E0C6E000E0D6E200E0E6E410E0F6E37
:100A38000AEC0EF008C08EF009C08FF00AC090F0E2
:100A48000BC091F000016A07D8A06B07844B852B77
:100A58006C51845D8551800A3C6E6D51800A3C580A
:100A6800D8B039EF05F03BEF05F049EF05F08DBF41
:100A780047EF05F08D5109E14B0E8C5DD8A047EF8B
:100A880005F049EF05F03EEF04F068516911D8A46C
:100A980050EF05F052EF05F063EF05F051A857EF5E
:100AA80005F059EF05F063EF05F0400E8C25D96E7F
:100AB800010E8D21DA6E2E0EDF6E8C4B8D2B400EC3
:100AC8008C25D96E010E8D21DA6E000EDF6E650E53
:100AD8007A19D8A472EF05F074EF05F0D9EF00F099
:100AE800000E856F4F0E846F400E8425D96E010E5F
:100AF8008521DA6E000EDF6E000E756F000E746FC2
:100B08008BBF8BEF05F089EF05F093EF05F0000E32
:100B1800756F010E746F8A6D8B1FD8B08B2B000E0A
:100B2800776F020E766FC4EF05F08407D8A08507AB
:100B3800400E8425D96E010E8521DA6E8AC008F030
:100B48008BC009F0000E0B6E0A0E0A6E97EC19F0B6
:100B58000850300FDF6E8AC008F08BC009F0000E15
:100B68000B6E0A0E0A6E7BEC18F008C08AF009C0FA
:100B78008BF000017607D8A077077807D8A0790707
:100B88008A518B11D8A4CBEF05F0CDEF05F099EF82
:100B980005F077BFDAEF05F0775106E17605D8B0B2
:100BA800D8EF05F0DAEF05F099EF05F08407D8A043
:100BB800850774517511D8A4E4EF05F0E6EF05F048
:100BC800ECEF05F0000E636F2B0E626FF0EF05F08F
:100BD800000E636F2D0E626F400E8425D96E010ED4
:100BE8008521DA6E62C0DFFF7807D8A0790784070D
:100BF800D8A08507BF0E3C6EFF0E3D6E3B503E6E83
:100C08003F6A3C503E263D503F223F5009E11A0EB4
:100C18003E5CD8A012EF06F014EF06F01AEF06F0CB
:100C2800000E656F650E646F1EEF06F0000E656FAF
:100C3800450E646F400E8425D96E010E8521DA6E4B
:100C480064C0DFFF7807D8A07907400E8C25086EAE
:100C5800010E8D21096E400E84250A6E010E852134
:100C68000B6EF3EC1BF0D9EF00F0120048C0D9FF6F
:100C780049C0DAFFDECFF6FFDDCFF7FF0800F550F9
:100C8800250AD8A44AEF06F04CEF06F079EF09F0F0
:100C980048C0D9FF49C0DAFFDE2A000EDD22000E67
:100CA8000001E86F000EE76FE7C051F0E8C052F0AE
:100CB800E969EA69000E9B6F000E9A6FAAEF06F0C9
:100CC800518048C0D9FF49C0DAFFDE2A000EDD2274
:100CD800AAEF06F0518265EF06F0518465EF06F041
:100CE800518665EF06F0518865EF06F0000E9B6FA0
:100CF800010E9A6FAAEF06F048C0D9FF49C0DAFF83
:100D0800DECFF6FFDDCFF7FF0800F5504C6E4D6AD9
:100D18004D50000AD8B493EF06F07AEF06F04C5025
:100D2800200AD8B474EF06F0030AD8B477EF06F0B7
:100D3800080AD8B471EF06F0060AD8B464EF06F0D2
:100D48001D0AD8B46EEF06F07AEF06F09A519B119F
:100D5800D8B4B1EF06F0B3EF06F080EF06F051A07B
:100D6800B8EF06F0BAEF06F0BBEF06F0519248C0B4
:100D7800D9FF49C0DAFFDECFF6FFDDCFF7FF080065
:100D8800F5502A0AD8A4CBEF06F0CDEF06F0F6EF1F
:100D980006F048C0D9FF49C0DAFFDE2A000EDD227E
:100DA8004AC0D9FF4BC0DAFFDFCF4CF0020EDE2677
:100DB800DFCF4DF0000EDD224CC0D9FF4DC0DAFF69
:100DC800DECFE7F0DDCFE8F0E8BFEFEF06F0EDEFBC
:100DD80006F02CEF07F05180E76DE81FD8B0E82B3C
:100DE8002CEF07F048C0D9FF49C0DAFFDECF0FF07B
:100DF800DDCF10F0B9EC13F00FC0E7F010C0E8F049
:100E08000DEF07F048C0D9FF49C0DAFFDE2A000E0F
:100E1800DD22D00E4C6EFF0E4D6E48C0D9FF49C082
:100E2800DAFFDECFF6FFDDCFF7FF0800F5504E6E94
:100E38004F6A4C504E264D504F224F5009E10A0E32
:100E48004E5CD8A02AEF07F02CEF07F006EF07F06A
:100E580048C0D9FF49C0DAFFDECFF6FFDDCFF7FF84
:100E68000800F5502E0AD8A43CEF07F03EEF07F033
:100E7800AFEF07F0000E0001EA6F000EE96F48C0FF
:100E8800D9FF49C0DAFFDE2A000EDD2248C0D9FFAB
:100E980049C0DAFFDECFF6FFDDCFF7FF0800F550D7
:100EA8002A0AD8A45AEF07F05CEF07F079EF07F0A9
:100EB80048C0D9FF49C0DAFFDE2A000EDD224AC049
:100EC800D9FF4BC0DAFFDFCF4CF0020EDE26DFCFB2
:100ED8004DF0000EDD224CC0D9FF4DC0DAFFDECF49
:100EE800E9F0DDCFEAF0AFEF07F048C0D9FF49C01D
:100EF800DAFFDECF0FF0DDCF10F0B9EC13F00FC042
:100F0800E9F010C0EAF090EF07F048C0D9FF49C0F7
:100F1800DAFFDE2A000EDD22D00E4C6EFF0E4D6E7B
:100F280048C0D9FF49C0DAFFDECFF6FFDDCFF7FFB3
:100F38000800F5504E6E4F6A4C504E264D504F22C9
:100F48004F5009E10A0E4E5CD8A0ADEF07F0AFEFA5
:100F580007F089EF07F048C0D9FF49C0DAFFDECFB4
:100F6800F6FFDDCFF7FF0800F5500E6E0F6A15EC9F
:100F78001DF00E500001A06FA051D8B4C6EF07F0C5
:100F8800C8EF07F002EF08F048C0D9FF49C0DAFF00
:100F9800DECF4CF0DDCF4DF0010E4C26000E4D2279
:100FA8004CC0F6FF4DC0F7FF0800F5500E6E0F6AF3
:100FB80015EC1DF00E500001A16FA151D8B4E7EF58
:100FC80007F0E9EF07F002EF08F048C0D9FF49C081
:100FD800DAFFDECF4CF0DDCF4DF0020E4C26000ECE
:100FE8004D224CC0F6FF4DC0F7FF0800F5500E6EBD
:100FF8000F6A15EC1DF00E500001A26F660EA019C5
:10100800D8A409EF08F00BEF08F04BEF08F048C040
:10101800D9FF49C0DAFFDECFF6FFDDCFF7FF0800C2
:10102800F5CFA3F048C0D9FF49C0DAFFDE2A000E89
:10103800DD224AC0D9FF4BC0DAFFDFCF4CF0040EE7
:10104800DE26DFCF4DF0000EDD224CC0D9FF4DC0AB
:10105800DAFFDECF9CF0DECF9DF0DECF9EF0DECF54
:101068009FF046C035F047C036F09CC037F09DC0B1
:1010780038F09EC039F09FC03AF0A3C03BF032EC84
:1010880000F035C046F036C047F094EF09F0A00EE6
:10109800086E000E096EFB0E0A6E7F0E0B6E000EB8
:1010A8000D6E020E0C6EDCEC16F008500910D8A478
:1010B80060EF08F062EF08F0D0EF08F048C0D9FF01
:1010C80049C0DAFFDECF4CF0DDCF4DF0010E4C26E3
:1010D800000E4D224CC0F6FF4DC0F7FF0800F5CFBB
:1010E800A3F0BF0E4C6EFF0E4D6E48C0D9FF49C02D
:1010F800DAFFDECFF6FFDDCFF7FF0800F5504E6EC2
:101108004F6A4C504E264D504F224F5007E11A0E51
:101118004E5CD8B092EF08F094EF08F0AEEF08F00C
:101128004AC0D9FF4BC0DAFFDFCF4CF0040EDE26F1
:10113800DFCF4DF0000EDD224CC0D9FF4DC0DAFFE5
:10114800DECF9CF0DECF9DF0DECF9EF0DECF9FF0AD
:10115800C6EF08F04AC0D9FF4BC0DAFFDFCF4CF02A
:10116800040EDE26DFCF4DF0000EDD224CC0D9FF85
:101178004DC0DAFFDECF9CF0DECF9DF0DECF9EF0D3
:10118800DECF9FF0020E48C0D9FF49C0DAFFDE2645
:10119800000EDD2235EF08F048C0D9FF49C0DAFF5C
:1011A800DECFF6FFDDCFF7FF0800F550780AD8B498
:1011B800E0EF08F0E2EF08F0F4EF08F048C0D9FFDC
:1011C80049C0DAFFDECFF6FFDDCFF7FF0800F550A4
:1011D800580AD8A4F2EF08F0F4EF08F043EF09F04A
:1011E80048C0D9FF49C0DAFFDECFF6FFDDCFF7FFF1
:1011F8000800F5CFA3F048C0D9FF49C0DAFFDE2ABE
:10120800000EDD224AC0D9FF4BC0DAFFDFCF4CF019
:10121800020EDE26DFCF4DF0000EDD224CC0D9FFD6
:101228004DC0DAFFDECF4EF0DDCF4FF04EC092F06A
:101238004FC093F00001946B956B966B976B986B0E
:10124800996B46C023F047C024F092C025F093C0A4
:1012580026F094C027F095C028F096C029F097C0D2
:101268002AF098C02BF099C02CF0A3C02DF0D7EC31
:101278000FF023C046F024C047F094EF09F048C0AF
:10128800D9FF49C0DAFFDECFF6FFDDCFF7FF080050
:10129800F550250AD8A453EF09F055EF09F06CEF83
:1012A80009F048C0D9FF49C0DAFFDE2A000EDD2266
:1012B800000E096E250E086E46C00AF047C00BF0F6
:1012C80016EC18F0000E476E010E466E94EF09F00A
:1012D80048C0D9FF49C0DAFFDE2A000EDD22000E21
:1012E800476E000E466E94EF09F048C0D9FF49C01A
:1012F800DAFFDECFF6FFDDCFF7FF0800F550086E06
:10130800096A46C00AF047C00BF016EC18F048C04E
:10131800D9FF49C0DAFFDE2A000EDD2266EF09F0A8
:1013280012000B50800B146E0B500B24166E0AAE75
:10133800A0EF09F0A2EF09F0A3EF09F0168016500C
:10134800D8B4A9EF09F0ABEF09F0C0EF09F01628FF
:10135800D8A4B1EF09F0B3EF09F0BBEF09F0000E24
:10136800086E000E096E000E0A6E000E0B6E0A8ED5
:10137800000E0B6EC8EF09F0000E086E000E096E25
:10138800000E0A6E000E0B6E0F50800B156E145077
:101398001518D8B4D2EF09F0D4EF09F0D5EF09F059
:1013A800148C0F500F24156E0EAEDDEF09F0DFEF31
:1013B80009F0E0EF09F015801550D8B4E6EF09F010
:1013C800E8EF09F0FDEF09F01528D8A4EEEF09F0D1
:1013D800F0EF09F0F8EF09F0000E0C6E000E0D6E3C
:1013E800000E0E6E000E0F6E0E8E000E0F6E05EFC5
:1013F8000AF0000E0C6E000E0D6E000E0E6E000E42
:101408000F6E1650155CD8B00CEF0AF00EEF0AF00C
:1014180035EF0AF014AC13EF0AF015EF0AF017EFE6
:101428000AF0800E141A16C017F015C016F017C06F
:1014380015F008C017F00CC008F017C00CF009C070
:1014480017F00DC009F017C00DF00AC017F00EC054
:101458000AF017C00EF00BC017F00FC00BF017C042
:101468000FF0000E176E165015C010F0116A105EBE
:10147800000E115A11BE4AEF0AF0115009E11A0E76
:10148800105CD8A04AEF0AF04CEF0AF083EF0AF09C
:10149800085009100A100B10D8A455EF0AF058EF9D
:1014A8000AF0010E59EF0AF0000E176E000E086ED2
:1014B800000E096E000E0A6E000E0B6E15C016F0B7
:1014C8008CEF0AF017A06BEF0AF06DEF0AF073EFDC
:1014D8000AF0D89017300109176E75EF0AF0D89006
:1014E800173208A07AEF0AF07CEF0AF07DEF0AF0D5
:1014F800178E0B340B320A3209320832162A15506D
:10150800165CD8A08AEF0AF08CEF0AF066EF0AF0B2
:1015180014BC91EF0AF093EF0AF0D3EF0AF01650DB
:10152800D8A499EF0AF09BEF0AF0A5EF0AF0000E95
:10153800086E000E096E000E0A6E000E0B6EF4EFB8
:101548000BF00C5008260D5009220E500A220F509D
:101558000B220BA0B2EF0AF0B4EF0AF060EF0BF029
:1015680017A0B9EF0AF0BBEF0AF0C1EF0AF0D89064
:1015780017300109176EC3EF0AF0D890173208A088
:10158800C8EF0AF0CAEF0AF0CBEF0AF0178E0B3457
:101598000B320A3209320832162A60EF0BF00C506F
:1015A800085C0D5009580E500A580B50800A106EEE
:1015B8000F50800A1058D8B0E4EF0AF0E6EF0AF0AE
:1015C80011EF0BF008500C5C106E09500D58116E9D
:1015D8000A500E58126E0B500F58136EFF0E10243F
:1015E800086EFF0E1120096EFF0E12200A6EFF0E04
:1015F80013200B6E800E141A176C1750D8A407EF1F
:101608000BF009EF0BF019EF0BF0010E0826000E96
:1016180009220A220B2219EF0BF00C50085E0D501C
:10162800095A0E500A5A0F500B5A085009100A103E
:101638000B10D8A422EF0BF024EF0BF059EF0BF0AE
:101648001750D8A42AEF0BF02CEF0BF059EF0BF042
:10165800000E086E000E096E000E0A6E000E0B6E6C
:10166800F4EF0BF0D890083609360A360B3617AE69
:1016780040EF0BF042EF0BF043EF0BF0088017A0A0
:1016880048EF0BF04AEF0BF04EEF0BF0D88017360F
:1016980050EF0BF0D89017361650D8B456EF0BF021
:1016A80058EF0BF059EF0BF016060AAE5EEF0BF091
:1016B80060EF0BF036EF0BF0000E156E17AE67EF0C
:1016C8000BF069EF0BF081EF0BF017C010F07F0EF5
:1016D8001016D8B472EF0BF074EF0BF078EF0BF034
:1016E800010E156E81EF0BF008A07DEF0BF07FEF78
:1016F8000BF081EF0BF074EF0BF01550D8B487EFB7
:101708000BF089EF0BF0B4EF0BF0010E0826000E7A
:1017180009220A220B220BA094EF0BF096EF0BF094
:10172800B4EF0BF008C010F009C011F00AC012F0B5
:101738000BC013F01334133212321132103210C0AE
:1017480008F011C009F012C00AF013C00BF01628F7
:10175800D8B4B1EF0BF0B3EF0BF0B4EF0BF0162ADF
:101768001628D8B4BAEF0BF0BCEF0BF0C4EF0BF0AF
:101778001650D8A4C2EF0BF0C4EF0BF0D6EF0BF065
:10178800000E086E000E096E000E0A6E000E0B6E3B
:101798001650D8A4D2EF0BF0D4EF0BF0D6EF0BF025
:1017A800000E146E16A0DBEF0BF0DDEF0BF0E0EF90
:1017B8000BF00A8EE1EF0BF00A9ED89016300B6EF4
:1017C80014AEE9EF0BF0EBEF0BF0ECEF0BF00B8E38
:1017D80008C008F009C009F00AC00AF00BC00BF0F5
:1017E80012000B50800B146E0B500B241A6E0AAEAD
:1017F80000EF0CF002EF0CF003EF0CF01A801A5017
:10180800D8B409EF0CF00BEF0CF01EEF0CF01A280F
:10181800D8A411EF0CF013EF0CF01BEF0CF0000E36
:10182800086E000E096E000E0A6E000E0B6E0A8E10
:1018380026EF0CF0000E086E000E096E000E0A6E00
:10184800000E0B6E0F50800B141A0F500F24156EDC
:101858000EAE31EF0CF033EF0CF034EF0CF01580D6
:101868001550D8B43AEF0CF03CEF0CF04FEF0CF0F9
:101878001528D8A442EF0CF044EF0CF04CEF0CF014
:10188800000E0C6E000E0D6E000E0E6E000E0F6E2A
:101898000E8E57EF0CF0000E0C6E000E0D6E000E43
:1018A8000E6E000E0F6E1550D8B45DEF0CF05FEFA2
:1018B8000CF067EF0CF01A50D8A465EF0CF067EF46
:1018C8000CF071EF0CF0000E086E000E096E000EA1
:1018D8000A6E000E0B6E09EF0EF00E500802F3CFE1
:1018E8001FF0F4CF20F01F50166E176A186A196A95
:1018F80020501B6E1C6A1D6A1E6A0D500902F3CF28
:101908001FF0F4CF20F01F501626000E17221822C1
:10191800192220501B26000E1C221D221E220C50AC
:101928000A02F3CF1FF0F4CF20F01F501626000E46
:1019380017221822192220501B26000E1C221D22B5
:101948001E2218C019F017C018F016C017F0166A32
:101958000C500902F3CF1FF0F4CF20F01F501626C9
:1019680020501722000E1822000E19220D500802CE
:10197800F3CF1FF0F4CF20F01F5016262050172267
:10198800000E1822000E192218C019F017C018F0FE
:1019980016C017F0166A0C500802F3CF1FF0F4CFE8
:1019A80020F01F50162620501722000E1822000E75
:1019B80019220E500902F3CF1FF0F4CF20F01F5068
:1019C8001B2620501C22000E1D22000E1E220D5028
:1019D8000A02F3CF1FF0F4CF20F01F501B2620502F
:1019E8001C22000E1D22000E1E220E500A02F3CFEA
:1019F8001FF0F4CF20F01F50106E2050116E126AA5
:101A0800136A12C013F011C012F010C011F0106A5E
:101A180010501B2611501C2212501D2213501E223A
:101A280016C010F017C011F018C012F019C013F04A
:101A3800190E24EF0DF0D8901332123211321032F1
:101A4800E82E1FEF0DF010501B2611501C221250CB
:101A58001D2213501E2218C019F017C018F016C006
:101A680017F0166A15501AC010F0116A1026000EE9
:101A78001122820E10241F6EFF0E1120206E5AEFC5
:101A88000DF0D8901B361C361D361E3619AE4FEF9A
:101A98000DF051EF0DF052EF0DF01B80D890163677
:101AA8001736183619361F06D8A020061DAE5FEF68
:101AB8000DF061EF0DF045EF0DF0000E156E19AE4B
:101AC80068EF0DF06AEF0DF08EEF0DF0FF0E1614B3
:101AD800106EFF0E1714116EFF0E1814126E7F0E83
:101AE8001914136E1050111012101310D8B47FEF80
:101AF8000DF081EF0DF085EF0DF0010E156E8EEFF4
:101B08000DF01BA08AEF0DF08CEF0DF08EEF0DF0AD
:101B180081EF0DF01550D8B494EF0DF096EF0DF05D
:101B2800BAEF0DF0010E1B26000E1C221D221E22EC
:101B38001EA0A1EF0DF0A3EF0DF0BAEF0DF01BC042
:101B480010F01CC011F01DC012F01EC013F01334A9
:101B5800133212321132103210C01BF011C01CF0B7
:101B680012C01DF013C01EF01F4A202A20BEC5EF68
:101B78000DF0205008E11F28D8A0C5EF0DF0C7EFE1
:101B88000DF0D1EF0DF0000E1B6E000E1C6E800ED6
:101B98001D6E7F0E1E6EFFEF0DF020BEDEEF0DF006
:101BA800205006E11F04D8B0DCEF0DF0DEEF0DF099
:101BB800EAEF0DF0000E1B6E000E1C6E000E1D6E7F
:101BC800000E1E6E000E146EFFEF0DF01FC01AF00F
:101BD800FF0E1B16FF0E1C167F0E1D16000E1E167E
:101BE8001AA0F9EF0DF0FBEF0DF0FCEF0DF01D8ED4
:101BF800D8901A301E6E14501E121BC008F01CC05C
:101C080009F01DC00AF01EC00BF012000B50800B2B
:101C1800186E0B500B241F6E0AAE15EF0EF017EF5F
:101C28000EF018EF0EF01F801F50D8B41EEF0EF004
:101C380020EF0EF035EF0EF01F28D8A426EF0EF097
:101C480028EF0EF030EF0EF0000E086E000E096E51
:101C5800000E0A6E000E0B6E0A8E000E0B6E3DEF24
:101C68000EF0000E086E000E096E000E0A6E000ED1
:101C78000B6E0F50800B181A0F500F24206E0EAEEB
:101C880048EF0EF04AEF0EF04BEF0EF02080205098
:101C9800D8B451EF0EF053EF0EF068EF0EF0202895
:101CA800D8A459EF0EF05BEF0EF063EF0EF0000EC4
:101CB8000C6E000E0D6E000E0E6E000E0F6E0E8E68
:101CC800000E0F6E70EF0EF0000E0C6E000E0D6E13
:101CD800000E0E6E000E0F6E0C500D100E100F1031
:101CE800D8A479EF0EF07BEF0EF093EF0EF0000E14
:101CF800086E000E096E000E0A6E000E0B6E800E46
:101D08000A127F0E0B1218500B1208C008F009C0F7
:101D180009F00AC00AF00BC00BF0D6EF0FF01F5005
:101D2800D8A499EF0EF09BEF0EF0A5EF0EF0000E81
:101D3800086E000E096E000E0A6E000E0B6ED6EFCE
:101D48000FF020501FC010F0116A105E000E115ADB
:101D58007F0E1024196E000E11201A6E08C014F0A0
:101D680009C015F00AC016F00BC017F0000E086E77
:101D7800000E096E000E0A6E000E0B6E000E1B6E32
:101D8800000E1C6E000E1D6E000E1E6E000E206EE4
:101D980006EF0FF02050D8B4D4EF0EF0D6EF0EF0C7
:101DA800EDEF0EF0D8901436153616361736D89053
:101DB800083609360A360B361EAEE5EF0EF0E7EFA9
:101DC8000EF0E8EF0EF00880D8901B361C361D3652
:101DD8001E360C50145C0D5015580E5016580F50E6
:101DE8001758D8A0FAEF0EF0FCEF0EF005EF0FF041
:101DF8001E8C0C50145E0D50155A0E50165A0F506A
:101E0800175A202A190E20640CEF0FF00EEF0FF06E
:101E1800CEEF0EF01450151016101710D8B417EF97
:101E28000FF019EF0FF031EF0FF01B8031EF0FF0CB
:101E3800D890083609360A360B361EAE26EF0FF054
:101E480028EF0FF029EF0FF00880D8901B361C36CA
:101E58001D361E361906D8A01A060AAE36EF0FF040
:101E680038EF0FF01CEF0FF0000E206E1EAE3FEFA4
:101E78000FF041EF0FF065EF0FF0FF0E1B14106E1F
:101E8800FF0E1C14116EFF0E1D14126E7F0E1E1411
:101E9800136E1050111012101310D8B456EF0FF023
:101EA80058EF0FF05CEF0FF0010E206E65EF0FF0AA
:101EB80008A061EF0FF063EF0FF065EF0FF058EF38
:101EC8000FF02050D8B46BEF0FF06DEF0FF091EFDB
:101ED8000FF0010E0826000E09220A220B220BA081
:101EE80078EF0FF07AEF0FF091EF0FF008C010F0D5
:101EF80009C011F00AC012F00BC013F013341332EA
:101F080012321132103210C008F011C009F012C09C
:101F18000AF013C00BF0194A1A2A1ABE9CEF0FF0E8
:101F28001A5008E11928D8A09CEF0FF09EEF0FF087
:101F3800A9EF0FF0000E1A6E1968000E086E000E59
:101F4800096E000E0A6E000E0B6E1ABEB6EF0FF089
:101F58001A5006E11904D8B0B4EF0FF0B6EF0FF03D
:101F6800C4EF0FF0000E1A6E000E196E000E086E08
:101F7800000E096E000E0A6E000E0B6E000E186E33
:101F880019C01FF01FA0CBEF0FF0CDEF0FF0D0EF6F
:101F98000FF00A8ED1EF0FF00A9ED8901F300B6E0B
:101FA80087EF0EF012000001EABFDDEF0FF0DFEF60
:101FB8000FF0E0EF0FF05192EABFEDEF0FF0EA51AA
:101FC80006E1E905D8B0EBEF0FF0EDEF0FF0F3EF16
:101FD8000FF0000E376E010E366EF7EF0FF0E9C006
:101FE80036F0EAC037F0E7C038F0E8C039F051A859
:101FF80000EF10F002EF10F006EF10F0FE0E38269A
:10200800FF0E392225C03AF026C03BF027C03CF02D
:1020180028C03DF029C03EF02AC03FF02BC040F058
:102028002CC041F0000E436E4F0E426E000E0101AF
:102038008F6FB8EF10F04206D8A043060F0E3A147F
:10204800446E456A45BE32EF10F0455009E10A0E6C
:10205800445CD8A032EF10F034EF10F03CEF10F0F1
:10206800570E4424446E000E4520456E42EF10F092
:10207800300E4424446E000E4520456EBF0E2E6E71
:10208800FF0E2F6E2D50306E316A2E5030262F5095
:102098003122315007E11A0E305CD8B056EF10F0FB
:1020A80058EF10F07BEF10F09F0E2E6EFF0E2F6E84
:1020B800200E4410306E000E4510316E2E50302622
:1020C8002F503122315007E11A0E305CD8B06FEF33
:1020D80010F071EF10F07BEF10F044C00EF045C027
:1020E8000FF05BEC1DF00EC044F00FC045F0400E41
:1020F8004224D96E010E4320DA6E44C0DFFF360653
:10210800D8A037063806D8A039063AC02EF03BC00A
:102118002FF03CC030F03DC031F03EC032F03FC03F
:1021280033F040C034F041C035F0050EA5EF10F093
:10213800D8903532343233323232313230322F3273
:102148002E32E82E9CEF10F02EC03AF02FC03BF054
:1021580030C03CF031C03DF032C03EF033C03FF0FB
:1021680034C040F035C041F043BEC4EF10F04350D6
:1021780009E1020E425CD8A0C4EF10F0C6EF10F0DF
:10218800F6EF10F03A503B103C103D103E103F1057
:1021980040104110D8A4D3EF10F0D5EF10F01FEF86
:1021A80010F037BEE2EF10F0375006E13604D8B031
:1021B800E0EF10F0E2EF10F01FEF10F039BEEDEF96
:1021C80010F0395008E13804D8A0EDEF10F0EFEF27
:1021D80010F0F6EF10F051B2F4EF10F0F6EF10F047
:1021E8001FEF10F051A8FBEF10F0FDEF10F013EF08
:1021F80011F04206D8A04306400E4224D96E010EC3
:102208004320DA6E2DC0DFFF4206D8A04306400EF9
:102218004224D96E010E4320DA6E300EDF6E23C0E1
:1022280018F024C019F0400E42241A6E010E432003
:102238001B6E38C01CF039C01DF0DDEC18F018C05A
:1022480023F019C024F01200DDC031F0DEC032F0F6
:10225800DFC033F0E0C034F021C031F022C032F0EA
:1022680023C033F024C034F0810E256EFF0E266E95
:1022780031C027F032C028F033C029F034C02AF02A
:10228800180E4CEF11F0D8902A3229322832273212
:10229800E82E47EF11F0275025242F6E000E262038
:1022A800306E30BE61EF11F0305009E1170E2F5C2F
:1022B800D8A061EF11F063EF11F06DEF11F021C0BC
:1022C80021F022C022F023C023F024C024F030EFF4
:1022D80012F030BE72EF11F074EF11F0E4EF11F06C
:1022E8002FC025F0FF0E266EFF0E276E7F0E286E7C
:1022F800000E296E256683EF11F08BEF11F029345B
:102308002932283227322632252E7EEF11F026C0B8
:102318002BF027C02CF028C02DF029C02EF02B5010
:102328003114256E2C503214266E2D503314276E1E
:102338002E503414286E2550261027102810D8A4A3
:10234800A8EF11F0AAEF11F0ACEF11F063EF11F064
:1023580031C025F032C026F033C027F034C028F051
:10236800200EBCEF11F0D8902832273226322532C1
:10237800E82EB7EF11F02550261027102810D8B4F2
:10238800C8EF11F0CAEF11F0D2EF11F02B5031263F
:102398002C5032222D5033222E5034222B1C256EE5
:1023A8002C1C266E2D1C276E2E1C286E25503116CF
:1023B80026503216275033162850341628EF12F0BC
:1023C80031C025F032C026F033C027F034C028F0E1
:1023D800200EF4EF11F0D890283227322632253219
:1023E800E82EEFEF11F02550261027102810D8A45A
:1023F80000EF12F002EF12F00CEF12F0000E316E47
:10240800000E326E000E336E000E346E28EF12F09E
:10241800D8903134256E3234266E3334276E3434F6
:10242800286E2550261027102810D8B41EEF12F059
:1024380020EF12F028EF12F0000E316E000E326E0F
:10244800800E336EBF0E346E31C021F032C022F0E0
:1024580033C023F034C024F01200A70E0A6E7E0E9B
:102468000B6E96EC1BF0070E0A6E7F0E0B6E96EC49
:102478001BF0000E0C6E5A0E0B6E900E0D6E010EB8
:102488000E6E000E106E320E0F6E3EEC19F0760EC8
:102498000001C16F7E0EC26F900EC36F010EC46F34
:1024A800000EC66F320EC56FB1EC17F0000E0001BA
:1024B800D46FC20ED425D96EDA6A010EDA22D4C0DE
:1024C800DFFFD42B310ED4656CEF12F06EEF12F0F3
:1024D8005DEF12F0D80E0A6E7E0E0B6E96EC1BF0B6
:1024E800000E0C6E5A0E0B6EC20E0D6E010E0E6EA5
:1024F800000E106E320E0F6E6EEC16F0590E0001C3
:10250800C16F7F0EC26FC20EC36F010EC46F000E83
:10251800C66F320EC56FB1EC17F0000E0001D36F15
:10252800900ED325D96EDA6A010EDA22000EDF6E1C
:10253800D32B310ED365A3EF12F0A5EF12F094EF71
:1025480012F0320E0A6E7F0E0B6E96EC1BF0000E28
:102558000C6E5A0E0B6E900E0D6E010E0E6E000E66
:10256800106E320E0F6E3EEC19F0440E0001C16F72
:102578007E0EC26F900EC36F010EC46F000EC66F41
:10258800320EC56FB1EC17F0000E0F6E5A0E0E6EBC
:10259800C20E106E010E116E000E136E320E126E08
:1025A80066EC1BF00001FD6FDD0E0A6E7D0E0B6EF2
:1025B80096EC1BF00001FD51D8A4E5EF12F0E7EF0F
:1025C80012F0EFEF12F0990E0A6E7F0E0B6E96EC7A
:1025D8001BF0F5EF12F0790E0A6E7F0E0B6E96EC7B
:1025E8001BF0DD0E0A6E7D0E0B6E96EC1BF0110EC5
:1025F8000A6E7E0E0B6E96EC1BF01200949C948E65
:102608000F013A9D3A9F19BE14EF13F01950181094
:1026180009E14B0E175CD8A014EF13F016EF13F076
:1026280043EF13F0AC84B886000E086E240E096ED2
:10263800F40E0A6E000E0B6E16C01AF017C01BF0CF
:1026480018C01CF019C01DF0020ED8901A361B369F
:102658001C361D36E82E29EF13F01AC00CF01BC0EB
:102668000DF01CC00EF01DC00FF064EC14F0FF0E4E
:1026780008241E6EFF0E09201F6EACEF13F019BE62
:1026880052EF13F0195018100BE1600E165C090E8A
:102698001758D8A052EF13F054EF13F081EF13F04E
:1026A800AC94B886000E086E240E096EF40E0A6EFD
:1026B800000E0B6E16C01AF017C01BF018C01CF0E5
:1026C80019C01DF0040ED8901A361B361C361D365C
:1026D800E82E67EF13F01AC00CF01BC00DF01CC0F9
:1026E8000EF01DC00FF064EC14F0FF0E08241E6EEF
:1026F800FF0E09201F6EACEF13F0AC94B896000ED5
:10270800086E240E096EF40E0A6E000E0B6E16C0CB
:102718001AF017C01BF018C01CF019C01DF0060EE7
:10272800D8901A361B361C361D36E82E94EF13F057
:102738001AC00CF01BC00DF01CC00EF01DC00FF02D
:1027480064EC14F0FF0E08241E6EFF0E09201F6EA5
:102758001EC0AFFF1F50B06EAC98AB8EAC8AAB8872
:102768009F8A9F889D8A9D981200000E186E000E01
:10277800176E000E166E000E156EC5EF13F00F4A99
:10278800102A0FC0F6FF10C0F7FF0800F550200A06
:10279800D8B4D1EF13F0D3EF13F0C3EF13F0F70E63
:1027A800116EFF0E126E0FC0F6FF10C0F7FF080083
:1027B800F550136E146A1150132612501422145037
:1027C80009E1050E135CD8A0ECEF13F0EEEF13F05F
:1027D800C3EF13F0F8EF13F0000E166E010E156E2E
:1027E8000F4A102A2DEF14F00FC0F6FF10C0F7FFA4
:1027F8000800F550116E126A1250000AD8B407EF9B
:1028080014F02DEF14F011502B0AD8B4F4EF13F094
:10281800060AD8B4F0EF13F02DEF14F017C008F043
:1028280018C009F0000E0B6E0A0E0A6EC6EC1EF0F8
:102838000FC0F6FF10C0F7FF0800F550085E000E45
:10284800095A300E0824176E000E0920186EF4EF8E
:1028580013F0D00E116EFF0E126E0FC0F6FF10C0EF
:10286800F7FF0800F550136E146A11501326125022
:102878001422145009E10A0E135CD8A046EF14F094
:1028880048EF14F012EF14F015501610D8A44FEFBB
:1028980014F051EF14F05FEF14F017C011F018C0E6
:1028A80012F0111E121E114A122A11C00FF012C086
:1028B80010F063EF14F017C00FF018C010F01200FA
:1028C800000E116E0FBE6DEF14F06BEF14F077EF82
:1028D80014F00F1E0E1E0D1E0C6C000E0D220E2283
:1028E8000F22010E116E0BBE7EEF14F07CEF14F078
:1028F80088EF14F00B1E0A1E091E086C000E092230
:102908000A220B22010E111A000E126E000E136E0F
:10291800000E146E000E156E0C500D100E100F10D8
:10292800D8B499EF14F09BEF14F0D1EF14F0010E26
:10293800106EA5EF14F0D8900C360D360E360F3603
:10294800102A0FAEAAEF14F0ACEF14F09FEF14F0BA
:10295800D89012361336143615360C50085C0D50C4
:1029680009580E500A580F500B58D8A0BEEF14F053
:10297800C0EF14F0C9EF14F00C50085E0D50095A5E
:102988000E500A5A0F500B5A1280D8900F320E323E
:102998000D320C32102EACEF14F01150D8B4D7EF22
:1029A80014F0D9EF14F0E1EF14F0151E141E131EE5
:1029B800126C000E13221422152212C008F013C044
:1029C80009F014C00AF015C00BF012000A340B34D9
:1029D800116E1150D8A4F3EF14F0F5EF14F0FFEFD7
:1029E80014F0000E086E000E096E000E0A6E000E3E
:1029F8000B6E6CEF15F008C00CF009C00DF00AC0A2
:102A08000EF00BC00FF0200E0FEF15F0D8900F321C
:102A18000E320D320C32E82E0AEF15F00C50106E03
:102A28000A8EFF0E0816FF0E0916FF0E0A16000E74
:102A38000B16960E115E11BE26EF15F024EF15F059
:102A48003CEF15F01150800A970FD8B02EEF15F013
:102A580030EF15F032EF15F0F5EF14F0D8900B3297
:102A68000A3209320832113E32EF15F054EF15F0F0
:102A78001F0E116442EF15F044EF15F04CEF15F0FE
:102A8800F5EF14F0D890083609360A360B361106D9
:102A98001150D8A452EF15F054EF15F046EF15F089
:102AA8001050D8B45AEF15F05CEF15F064EF15F03C
:102AB8000B1E0A1E091E086C000E09220A220B2290
:102AC80008C008F009C009F00AC00AF00BC00BF0F2
:102AD8001200000E2114296E000E22142A6E800E98
:102AE80023142B6E7F0E24142C6E29502A102B10C1
:102AF8002C10D8A482EF15F084EF15F08CEF15F0A8
:102B0800000E216E000E226E000E236E000E246E43
:102B1800000E2514296E000E26142A6E800E271426
:102B28002B6E7F0E28142C6E29502A102B102C1077
:102B3800D8A4A1EF15F0A3EF15F0ABEF15F0000E38
:102B4800256E000E266E000E276E000E286E24AE2F
:102B5800B0EF15F0B2EF15F0BBEF15F0216C221EA7
:102B6800D8B0222A231ED8B0232A800E245628AE95
:102B7800C0EF15F0C2EF15F0CBEF15F0256C261E4F
:102B8800D8B0262A271ED8B0272A800E2856000E2D
:102B9800211A000E221A000E231A800E241A000E83
:102BA800251A000E261A000E271A800E281A2550FC
:102BB800215C265022582750235828502458D8B032
:102BC800E8EF15F0EAEF15F0EDEF15F0D890EEEF1D
:102BD80015F0D8801200E1C012F0E2C013F0E3C093
:102BE80014F0E4C015F008C012F009C013F00AC0D0
:102BF80014F00BC015F012C00CF013C00DF014C087
:102C08000EF015C00FF0180E0FEF16F0D8900F3217
:102C18000E320D320C32E82E0AEF16F00C50106E00
:102C2800116A10501110D8A41CEF16F01EEF16F000
:102C38003EEF16F0D89012340C6E13340D6E143427
:102C48000E6E15340F6E0C500D100E100F10D8A408
:102C580030EF16F032EF16F038EF16F0000E096E6E
:102C6800020E086E6DEF16F0000E096E030E086E68
:102C78006DEF16F010281110D8A445EF16F047EFA5
:102C880016F069EF16F012C00CF013C00DF014C066
:102C98000EF015C00FF0090ED8900C360D360E3612
:102CA8000F36E82E50EF16F00C500D100E100F10C6
:102CB800D8B461EF16F064EF16F0010E65EF16F068
:102CC800000E086E096A6DEF16F0000E096E040E0C
:102CD800086E12000FC019F010C01AF00BC01BF0DC
:102CE8000CC01CF00DC013F00EC014F0D2EF16F09B
:102CF8001F0E1B14116E000E1C14126E11502008AA
:102D0800176E1250D8A0E82A0008186E1750195CE0
:102D180018501A58D8A093EF16F095EF16F09BEFBD
:102D280016F017C01DF018C01EF09FEF16F019C05E
:102D38001DF01AC01EF0C9EC1CF027EC1FF0A00E05
:102D4800B1EC1EF01C50B1EC1EF01B50B1EC1EF0A3
:102D5800000E166E000E156EBDEF16F013C0D9FFEB
:102D680014C0DAFFDF50B1EC1EF0134A142A154ADA
:102D7800162A1D50155C1E501658D8A0C6EF16F01E
:102D8800C8EF16F0B2EF16F01DEC1FF01D50195EDB
:102D98001E501A5A1D501B261E501C2219501A105C
:102DA800D8A4D9EF16F0DBEF16F07CEF16F012007E
:102DB80008C00FF009C010F00AC011F00BC012F0E3
:102DC8000C06D8A00D060C2806E10D28D8A4EFEFB4
:102DD80016F0F1EF16F0FEEF16F0000E096E000E79
:102DE800086E46EF17F00F4A102A114A122A0C06ED
:102DF800D8A00D060FC0D9FF10C0DAFFDF50D8B435
:102E080008EF17F00AEF17F035EF17F011C0F6FFCB
:102E180012C0F7FF0800F5500009D8B416EF17F0F4
:102E280018EF17F035EF17F00C500D10D8B41FEF4E
:102E380017F021EF17F035EF17F00FC0D9FF10C0CA
:102E4800DAFFDF500E6E11C0F6FF12C0F7FF080060
:102E5800F5500E18D8B433EF17F035EF17F0F7EF39
:102E680016F00FC0D9FF10C0DAFFDF500E6E11C088
:102E7800F6FF12C0F7FF0800F5500E5C086E096AED
:102E8800D8A009061200E6EC1EF00009D8B44FEFEE
:102E980017F051EF17F0B0EF17F0D9EC1EF0000162
:102EA800D56F0D0ED519D8B45CEF17F05EEF17F09B
:102EB8007AEF17F00A0ED519D8B465EF17F067EF57
:102EC80017F07AEF17F00E0EEB616DEF17F06FEF5A
:102ED80017F0B0EF17F0EC0EEB25D96EDA6A000E9A
:102EE800DA22D5C0DFFFEB2BB0EF17F0EB51D8B4E7
:102EF80080EF17F082EF17F0B0EF17F0EC0EEB252C
:102F0800D96EDA6A000EDA22000EDF6EEC0E086E59
:102F1800000E096ED20E0A6E7F0E0B6E96EC1AF03A
:102F280008500910D8A49BEF17F09DEF17F0A7EFF2
:102F380017F0B90E0A6E7F0E0B6E96EC1BF031EC93
:102F480012F0ADEF17F0A70E0A6E7D0E0B6E96EC21
:102F58001BF0000E0001EB6F12000B0E0A6E7E0EC6
:102F68000B6E96EC1BF0C1C00AF0C2C00BF096ECD9
:102F78001BF00B0E0A6E7E0E0B6E96EC1BF0000E0D
:102F88000001D26F000ED16F04EF18F0C70EAC6FBE
:102F9800000EAD6FDF0EAE6F7F0EAF6FD151C32540
:102FA800D96ED251C421DA6EDF50506E5050B06FD6
:102FB800B16B77EC1CF0C70E0A6E000E0B6E96EC28
:102FC8001BF0010E0001D125086E000ED221096EFA
:102FD800000E0B6E0F0E0A6E03EC1BF00850091062
:102FE800D8A4F9EF17F0FBEF17F001EF18F02F0E48
:102FF8000A6E7F0E0B6E96EC1BF00001D14BD22BA4
:10300800C551D15DC651D259D8A00DEF18F00FEFB8
:1030180018F0CAEF17F00C0E0A6E7E0E0B6E96ECC7
:103028001BF012000A500B10D8B41DEF18F01FEF58
:1030380018F028EF18F00A500B10D8A426EF18F053
:1030480028EF18F02DEF18F0085038EC1FF07AEF41
:1030580018F020EE09F00A50D9260B50DA22DE507B
:10306800DE10D8B43AEF18F03CEF18F057EF18F02C
:1030780020EE09F00A50D9260B50DA2210EE03F0A0
:103088000A50E1260B50E222DE50E65CE650800A48
:10309800106EDE50800A1058D8B055EF18F057EF70
:1030A80018F07AEF18F020EE03F00A50D9260B50EA
:1030B800DA22DECF0CF0DDCF0DF00AC0D9FF0BC04D
:1030C800DAFFDECF0EF0DDCF0FF00C500E24D96EF4
:1030D8000D500F20DA6E08C0DFFF20EE03F00A5013
:1030E800D9260B50DA22DE2A000EDD221200000E4D
:1030F8000D6E0BBE84EF18F082EF18F08AEF18F00F
:103108000A6C0B1ED8B00B2A010E0D6E09BE91EF8A
:1031180018F08FEF18F097EF18F0086C091ED8B068
:10312800092A010E0D1A000E0F6E000E0E6E0A50BF
:103138000B10D8B4A2EF18F0A4EF18F0CCEF18F0E9
:10314800010E0C6EACEF18F0D8900A360B360C2A2C
:103158000BAEB1EF18F0B3EF18F0A8EF18F0D89055
:103168000E360F360A50085C0B500958D8A0BFEF2E
:1031780018F0C1EF18F0C6EF18F00A50085E0B50AF
:10318800095A0E80D8900B320A320C2EB3EF18F081
:103198000D50D8B4D2EF18F0D4EF18F0D8EF18F0DB
:1031A8000E6C0F1ED8B00F2A0EC008F00FC009F021
:1031B800120051A0E2EF18F0E4EF18F0EEEF18F06B
:1031C8001AC011F01BC012F018C013F019C014F087
:1031D8007DEC1DF01DBEF3EF18F0F5EF18F0FBEFD6
:1031E80018F01CC021F01DC022F0FFEF18F0000EEF
:1031F800226E000E216E000E206E000E1F6E11EF63
:1032080019F0000E096E200E086E18C00AF019C0D9
:103218000BF016EC18F01F4A202A21501F5C205092
:10322800800A1E6E2250800A1E58D8A01EEF19F080
:1032380020EF19F005EF19F051B025EF19F027EF3D
:1032480019F031EF19F01AC011F01BC012F018C0B4
:1032580013F019C014F07DEC1DF01AC008F01BC063
:1032680009F04FEC1EF021500824186E2250092056
:10327800196E12000F501010D8A445EF19F047EF3F
:1032880019F049EF19F096EF19F0C9EC1CF027EC8A
:103298001FF0A00EB1EC1EF00C50B1EC1EF00B505C
:1032A800B1EC1EF013EC1FF0A10EB1EC1EF0000EF5
:1032B800166E000E156E89EF19F015500D24D96E93
:1032C80016500E20DA6E08EC1FF0DF6EFF0E116E3E
:1032D800FF0E126E0FC013F010C014F01150132619
:1032E800125014221350155C14501658D8B07FEFA2
:1032F80019F081EF19F085EF19F0FDEC1EF087EF5A
:1033080019F0F2EC1EF0154A162A0F50155C1050F1
:103318001658D8A092EF19F094EF19F061EF19F050
:103328001DEC1FF01200000E0D6E09BEA0EF19F083
:103338009EEF19F0A6EF19F0086C091ED8B0092AFB
:10334800010E0D6E0BBEADEF19F0ABEF19F0B1EF3A
:1033580019F00A6C0B1ED8B00B2A0A500B10D8B4FF
:10336800B8EF19F0BAEF19F0DEEF19F0010E0C6E94
:10337800C2EF19F0D8900A360B360C2A0BAEC7EFFD
:1033880019F0C9EF19F0BEEF19F00A50085C0B509C
:103398000958D8A0D2EF19F0D4EF19F0D8EF19F0E6
:1033A8000A50085E0B50095AD8900B320A320C2E7C
:1033B800C9EF19F00D50D8B4E4EF19F0E6EF19F0A1
:1033C800EAEF19F0086C091ED8B0092A08C008F0FD
:1033D80009C009F01200000E0814106E000E09143E
:1033E800116E800E0A14126E7F0E0B14136E10509D
:1033F800111012101310D8A404EF1AF006EF1AF0E7
:103408000EEF1AF0000E086E000E096E000E0A6E1E
:10341800000E0B6E000E0C14106E000E0D14116EC3
:10342800800E0E14126E7F0E0F14136E10501110B2
:1034380012101310D8A423EF1AF025EF1AF02DEF6D
:103448001AF0000E0C6E000E0D6E000E0E6E000EC1
:103458000F6E0C5008180FE10D5009180CE10E50B2
:103468000A1809E10F500B18D8B43DEF1AF03FEFD6
:103478001AF042EF1AF0D89043EF1AF0D8801200F1
:10348800000E106E000E116E000E126E000E136EFE
:103498000C500D100E100F10D8B455EF1AF057EF4E
:1034A8001AF08DEF1AF0010E146E61EF1AF0D89031
:1034B8000C360D360E360F36142A0FAE66EF1AF09C
:1034C80068EF1AF05BEF1AF0D89010361136123602
:1034D80013360C50085C0D5009580E500A580F50FE
:1034E8000B58D8A07AEF1AF07CEF1AF085EF1AF093
:1034F8000C50085E0D50095A0E500A5A0F500B5ABC
:103508001080D8900F320E320D320C32142E68EF24
:103518001AF010C008F011C009F012C00AF013C068
:103528000BF012009CEF1AF0084A092A0A4A0B2AE3
:1035380008C0D9FF09C0DAFFDF500C6E0AC0F6FFD9
:103548000BC0F7FF0800F5500C18D8A4AEEF1AF01E
:10355800B0EF1AF0BCEF1AF008C0D9FF09C0DAFFC3
:10356800DF50D8A4BAEF1AF0BCEF1AF098EF1AF0AF
:1035780008C0D9FF09C0DAFFDF500C6E0AC0F6FF99
:103588000BC0F7FF0800F5500C5C086E096AD8A05C
:10359800090612009BEC1EF0000E166EC20E176E86
:1035A800010E186E000E196E02EC13F0000E156E67
:1035B800240E166EF40E176E000E186EA00E196EFD
:1035C800860E1A6E010E1B6E000E1C6E21EC1CF08E
:1035D80034EC1FF031EC1FF0150E0001D76F4B0EC5
:1035E800D66FBE0EE82EFED7D62FFCD7D72FFAD728
:1035F80000F047EC17F0FDEF1AF030EF00F00A503A
:103608000B10D8B40AEF1BF00CEF1BF030EF1BF0D7
:10361800010E0C6E14EF1BF0D8900A360B360C2AEC
:103628000BAE19EF1BF01BEF1BF010EF1BF00A504D
:10363800085C0B500958D8A024EF1BF026EF1BF0AC
:103648002AEF1BF00A50085E0B50095AD8900B322B
:103658000A320C2E1BEF1BF008C008F009C009F055
:103668001200A6C0AAF0A7C0ABF0000E0001E66FDA
:10367800000EE56F53EF1BF0A4C046F0A5C047F05D
:10368800AA0E486E000E496EA8C04AF0A9C04BF0B9
:103698003AEC06F046500001E5274750E623AAC059
:1036A800F6FFABC0F7FF0800F5500009D8A45FEF9C
:1036B8001BF061EF1BF040EF1BF0E5C0A4F0E6C083
:1036C800A5F01200000E176E000E166E89EF1BF0A3
:1036D80016500E240B6E17500F200C6EF0EC1CF0D9
:1036E800156E16501024D96E17501120DA6E155029
:1036F800DE18D8B482EF1BF084EF1BF087EF1BF0C5
:10370800010E95EF1BF0164A172A1250165C13503B
:103718001758D8A092EF1BF094EF1BF06CEF1BF03A
:10372800000E1200ACEF1BF00AC0F6FF0BC0F7FF4B
:10373800F86A050EF76403D00800F55005D0F6CFF7
:10374800E9FFF7CFEAFFEF506AEC1EF00A4A0B2AAE
:103758000AC0F6FF0BC0F7FFF86A050EF76403D03E
:103768000800F55005D0F6CFE9FFF7CFEAFFEF5094
:103778000009D8A4C2EF1BF0C4EF1BF098EF1BF0B0
:1037880012006C0EF66E3E0EF76E000EF86E090013
:10379800F5CFFBF00900F5CFFCF00900F5CFFDF0FF
:1037A80002EE00F0800EEE6AE806FDE101EE00F0A0
:1037B800F40EEE6AE806FDE100EED8F0230EEE6A9C
:1037C800E806FDE100EE51F0070EEE6AE806FDE1BD
:1037D80058905892000EF86E0001CEEF1AF00AC009
:1037E8000EF00BC00FF008C010F009C011F00E5019
:1037F8000C6E0F500D6E0E4A0F2A0CC0F6FF0DC04E
:10380800F7FFF86A10C0D9FF11C0DAFF104A112A71
:10381800050EF76403D00800F55005D0F6CFE9FF90
:10382800F7CFEAFFEF50DF6EDF50D8A41EEF1CF091
:1038380020EF1CF0FBEF1BF0120093829384800EA4
:103848006D6E280E6C6E15C008F016C009F017C012
:103858000AF018C00BF019C01DF01AC01EF01BC0EA
:103868001FF01CC020F0020ED8901D361E361F36E1
:103878002036E82E38EF1CF01DC00CF01EC00DF0ED
:103888001FC00EF020C00FF044EC1AF008046E6E52
:103898001200D9CF03F0DACF04F09DAA56EF1CF03E
:1038A80058EF1CF061EF1CF09EAA5DEF1CF05FEF73
:1038B8001CF061EF1CF09FEC1DF09DA866EF1CF05A
:1038C80068EF1CF071EF1CF09EA86DEF1CF06FEF15
:1038D8001CF071EF1CF083EC1EF004C0DAFF03C08B
:1038E800D9FF58921100B00E0001B46F000EB56FE9
:1038F800ACC0B6F0ADC0B7F0000EBA6F000EB96F2D
:10390800000EC06F000EBF6FB60EA46F000EA56F3D
:10391800AEC0A6F0AFC0A7F0B40EA86F000EA96F96
:1039280035EC1BF00001B951AC25D96EBA51AD2167
:10393800DA6E000EDF6E1200010E0E6E200E0818F1
:103948000910D8B4AAEF1CF0ACEF1CF0C5EF1CF0BE
:10395800F70E0A6EFF0E0B6E08C00CF009C00DF0D2
:103968000A500C260B500D220D5009E1050E0C5C77
:10397800D8A0C1EF1CF0C3EF1CF0C5EF1CF0000E7F
:103988000E6E0EC008F0096A1200000E0A6EC80E0C
:10399800096EE2EF1CF027EC1FF0A00EB1EC1EF050
:1039A8000009D8A4DAEF1CF0DCEF1CF0E0EF1CF003
:1039B8001DEC1FF0EFEF1CF01DEC1FF00906D8A05E
:1039C8000A06092806E10A28D8A4EDEF1CF0EFEF53
:1039D8001CF0CFEF1CF01200000E0D6EC9EC1CF0AD
:1039E80027EC1FF0A00EB1EC1EF00009D8A4FFEFE1
:1039F8001CF001EF1DF011EF1DF00C50B1EC1EF0A2
:103A08000B50B1EC1EF013EC1FF0A10EB1EC1EF040
:103A180008EC1FF00D6EF2EC1EF01DEC1FF00D50BF
:103A28001200BF0E106EFF0E116E0EC012F00FC006
:103A380013F01050122611501322135007E11A0EDA
:103A4800125CD8B02AEF1DF02CEF1DF033EF1DF0FB
:103A5800200E0E100E6E0F500F6E37EF1DF00EC0B9
:103A68000EF00FC00FF01200000E251A000E261AD5
:103A7800000E271A800E281A21C008F022C009F06B
:103A880023C00AF024C00BF025C00CF026C00DF0AE
:103A980027C00EF028C00FF095EC09F008C021F0FF
:103AA80009C022F00AC023F00BC024F012009F0EB8
:103AB800106EFF0E116E0EC012F00FC013F01050F2
:103AC800122611501322135007E11A0E125CD8B0B7
:103AD80070EF1DF072EF1DF078EF1DF05F0E0E1401
:103AE8000E6E0F6A7CEF1DF00EC00EF00FC00FF0C7
:103AF8001200000E176E000E166E8EEF1DF015C028
:103B080008F0096A13C00AF014C00BF016EC18F09C
:103B1800164A172A16501124D96E17501220DA6E39
:103B2800DF50156E1550D8A49CEF1DF09EEF1DF0C8
:103B380083EF1DF01200ABA2A4EF1DF0A6EF1DF05D
:103B4800A8EF1DF0AB98AB88AECF01F056283F0B1D
:103B5800026E55500218D8B4B4EF1DF0B6EF1DF040
:103B6800C0EF1DF0000E5624D96EDA6A010EDA2273
:103B780001C0DFFF02C056F012009F0E0A6EFF0E52
:103B88000B6E200E08100C6E000E09100D6E0A50F8
:103B98000C260B500D220D500AE11A0E0C5CD8A011
:103BA800D8EF1DF0DBEF1DF0010EDCEF1DF0000E6D
:103BB800086E096A12009F0E0A6EFF0E0B6E08C08F
:103BC8000CF009C00DF00A500C260B500D220D50B8
:103BD8000AE11A0E0C5CD8A0F4EF1DF0F7EF1DF007
:103BE800010EF8EF1DF0000E086E096A1200BF0EF4
:103BF8000A6EFF0E0B6E08C00CF009C00DF00A50DB
:103C08000C260B500D220D500AE11A0E0C5CD8A0A0
:103C180010EF1EF013EF1EF0010E14EF1EF0000E51
:103C2800086E096A1200085009100A100B10D8B45F
:103C380020EF1EF022EF1EF02AEF1EF0000E081AE9
:103C4800000E091A000E0A1A800E0B1A08C008F096
:103C580009C009F00AC00AF00BC00BF01200D00E20
:103C68000A6EFF0E0B6E08C00CF009C00DF00A506A
:103C78000C260B500D220D500AE10A0E0C5CD8A040
:103C880048EF1EF04BEF1EF0010E4CEF1EF0000E39
:103C9800086E096A120008C00AF009C00BF057EF55
:103CA8001EF0084A092A08C0D9FF09C0DAFFDF5008
:103CB800D8A461EF1EF063EF1EF055EF1EF00A5016
:103CC800085C086E0B500958096E1200086E5428DB
:103CD8003F0B096E53500918D8B475EF1EF077EFF3
:103CE8001EF06EEF1EF0000E5424D96EDA6A020E32
:103CF800DA2208C0DFFF09C054F09D881200535033
:103D08005418D8B48AEF1EF08CEF1EF099EF1EF00D
:103D1800000E5324D96EDA6A020EDA22DF50AD6E35
:103D280053283F0B536E9AEF1EF09D981200000E19
:103D38000F01386F000E396F000E3A6F000E926E49
:103D4800000E936E800E946E000E896E000E8A6EC1
:103D5800000E8B6E700ED3121200086E08C06FFF33
:103D6800A4AEB9EF1EF0BBEF1EF0B4EF1EF0A49E98
:103D78006BBCC1EF1EF0C4EF1EF0010EC5EF1EF0C4
:103D8800000E120008500A02F3CF0CF0F4CF0DF029
:103D980008500B02F3500D2609500A02F3500D2665
:103DA8000CC008F00DC009F01200000E5524D96EA1
:103DB800DA6A010EDA22DF50086E55283F0B556E7D
:103DC8000850120055505618D8A4EDEF1EF0F0EF29
:103DD8001EF0010EF1EF1EF0000E12006B8A6B88C8
:103DE800A4AEF9EF1EF0FBEF1EF0F4EF1EF0A49E58
:103DF80012006B9A6B88A4AE04EF1FF006EF1FF059
:103E0800FFEF1EF0A49E12006B86A4AE0EEF1FF00B
:103E180010EF1FF009EF1FF0A49E6F5012006B8285
:103E2800A4AE19EF1FF01BEF1FF014EF1FF0A49EB4
:103E380012006B84A4AE23EF1FF025EF1FF01EEFD6
:103E48001FF0A49E12006B80A4AE2DEF1FF02FEF81
:103E58001FF028EF1FF0A49E1200F28EF28C1200C1
:073E6800D08E12005A00FF8A
:023E700012003E
:107DA600003E3E20436F6D616E646F2064657363B1
:107DB6006F6E6F6369646F203C3C20496E74656E1C
:107DC600746120636F6E2027496E69636961722052
:107DD600546573740D0A002D2D2D2D2D2D2D2D2D51
:107DE6002D2D2D2D2D2D2D2D2D2D2D2D2D2D2D2DBD
:107DF6002D2D2D2D2D2D2D2D2D2D2D2D2D2D2D2DAD
:107E06002D2D2D2D2D2D2D2D0D0A004573637269F7
:107E160062652027496E69636961722054657374CF
:107E26002720706172612072657065746972206CBA
:107E360061207072756562612E2E2E0D0A00425504
:107E460046464552204C4549444F204445534445F7
:107E560020454550524F4D202844455350554553D3
:107E6600204445204553435249424952290D0A00B0
:107E760045535441444F2050524556494F20454E94
:107E8600204C4120454550524F4D2028414E5445E7
:107E960053204445204553435249424952290D0A2D
:107EA600003D3D3D3D3D3D3D3D3D3D3D3D20454546
:107EB60050524F4D205445535420494E4943494151
:107EC600444F203D3D3D3D3D3D3D3D3D3D3D3D0D10
:107ED6000A0045736372696269656E646F203530A6
:107EE600206279746573206E7565766F7320656E92
:107EF600206C6120454550524F4D2E2E2E200D0AE6
:107F0600004C6579656E646F206461746F732061DF
:107F1600637475616C657320656E206C61204545E0
:107F260050524F4D202E2E2E200D0A004C6579659D
:107F36006E646F206E7565766F73206461746F73FF
:107F460020616C6D6163656E61646F732E2E2E20E9
:107F56000D0A00425546464552204E5545564F207D
:107F660050524550415241444F20454E2052414DBA
:107F76000D0A00524553554C5441444F2044454C3C
:107F860020544553543A205B2046414C4C4F205DCB
:107F96000D0A00524553554C5441444F2044454C1C
:107FA60020544553543A205B20455849544F205D90
:107FB6000D0A003E3E20436F6D616E646F20616363
:107FC60065707461646F203C3C0D0A00496E6963FC
:107FD600696172205465737400253032582000257B
:107FE600322E316600494E46004E414E00696E669D
:097FF600006E616E006C66000073
:020000040020DA
:08000000FFFFFFFFFFFFFFFF00
:020000040030CA
:0E000000FF28193CFFB581FF0FC00FE00F4035
:00000001FF
