:0400000013EF00F00A
:0600080059827AEF1DF0A1
:100018005980E0CF05F005C0E0FF599010000CEFC3
:020028001FF0C7
:10060000000D0A2D2D2D2053697374656D612064D2
:1006100065206D6F6E69746F72656F204448543247
:1006200032202D2D2D0D0A0056616C6F72657320DE
:1006300066756572612064652072616E676F0D0A70
:10064000004E6F20526573706F6E64652028546988
:100650006D656F7574290D0A00436865636B73756A
:100660006D20696E636F72726563746F0D0A004569
:1006700072726F7220646573636F6E6F6369646F0B
:100680000D0A004572726F722053656E736F723A75
:10069000200054656D70657261747572613A200056
:1006A00048756D656461643A2000204320202D2048
:1006B000200025322E31660020250D0A00494E46C5
:1006C000004E414E00696E66006E616E006C660001
:0106D0000029
:1006D200000E0001756F000E746F43C086F044C0B7
:1006E20087F045C088F046C089F089BF7DEF03F0EE
:1006F2007BEF03F093EF03F0000E756F010E746F42
:1007020086C006F087C007F088C008F089C009F0EB
:10071200B9EC1EF006C086F007C087F008C088F06A
:1007220009C089F0000E00018D6F000E8C6FD2C0DF
:1007320078F0D3C079F074517511D8A4A3EF03F007
:10074200A5EF03F0ACEF03F053A4AAEF03F0ACEF74
:1007520003F0C6EF03F074517511D8A4B3EF03F0A0
:10076200B5EF03F0BBEF03F0000E616F2B0E606F6D
:10077200BFEF03F0000E616F2D0E606F60C080F15D
:100782008C4B8D2B7807D8A0790786C006F087C0DE
:1007920007F088C008F089C009F02DEC1AF00604B1
:1007A2000710D8A4D7EF03F0D9EF03F024EF04F039
:1007B200BF0E486EFF0E496E47504A6E4B6A485054
:1007C2004A2649504B224B5007E11A0E4A5CD8B0D8
:1007D200EDEF03F0EFEF03F0FEEF03F0800E000108
:1007E2008C25066E010E8D21076EBD0E086E060E5B
:1007F200096E4CEC1DF00BEF04F0800E00018C250D
:10080200066E010E8D21076EC50E086E060E096E6C
:100812004CEC1DF00001FD0E7827FF0E792341C03C
:1008220016F042C017F0800E186E010E196E78C0D5
:100832001AF079C01BF0DEEC1BF016C041F017C0B5
:1008420042F070EF09F086C006F087C007F088C05A
:1008520008F089C009F02DEC1AF006500710D8A450
:1008620035EF04F037EF04F06BEF04F0BF0E486E83
:10087200FF0E496E47504A6E4B6A48504A2649500D
:100882004B224B5007E11A0E4A5CD8B04BEF04F0F2
:100892004DEF04F05CEF04F0800E00018C25066E33
:1008A200010E8D21076EC10E086E060E096E4CEC0C
:1008B2001DF00BEF04F0800E00018C25066E010E78
:1008C2008D21076EC90E086E060E096E4CEC1DF0E6
:1008D2000BEF04F0000E00018E6F000E8F6F800E82
:1008E200906F3F0E916F000E8B6F000E8A6F86C065
:1008F20006F087C007F088C008F089C009F0000E32
:100902000A6E000E0B6E000E0C6E000E0D6E97EC52
:100912001CF0D8B08FEF04F091EF04F014EF05F063
:10092200B0EF04F08EC006F08FC007F090C008F060
:1009320091C009F0000E0A6E000E0B6E200E0C6EB6
:10094200410E0D6ECFEC10F006C08EF007C08FF096
:1009520008C090F009C091F000018A4B8B2B86C031
:100962001FF087C020F088C021F089C022F0000E5D
:100972000A6E000E0B6E200E0C6E410E0D6E8EC0B6
:1009820006F08FC007F090C008F091C009F0CFECDC
:1009920010F006C023F007C024F008C025F009C0FB
:1009A20026F0ABEC19F0D8B0D9EF04F0DBEF04F08D
:1009B20093EF04F0FBEF04F08EC014F08FC015F03B
:1009C20090C016F091C017F0000E186E000E196E4E
:1009D200200E1A6E410E1B6EE4EC12F014C08EF063
:1009E20015C08FF016C090F017C091F000018A0771
:1009F200D8A08B0786C01FF087C020F088C021F0E6
:100A020089C022F08EC023F08FC024F090C025F060
:100A120091C026F0ABEC19F0D8A012EF05F014EF5C
:100A220005F0DDEF04F047C00CF00D6AF6EC1DF0A6
:100A32000C5000017B6F7BC07AF0670E7B19D8A443
:100A420025EF05F027EF05F04DEF05F0D451D51154
:100A5200D8A42EEF05F030EF05F034EF05F0000ECC
:100A6200D56F010ED46FD5BF41EF05F0D55106E128
:100A7200D405D8B03FEF05F041EF05F047EF05F0A0
:100A8200000E776F060E766F56EF05F0D4C076F043
:100A9200D5C077F056EF05F0D5BF52EF05F054EF11
:100AA20005F041EF05F047EF05F0670E7B19D8A47A
:100AB2005DEF05F05FEF05F08EEF05F08BAF6DEFA8
:100AC20005F0FC0E8A5DFF0E8B59D8A06BEF05F086
:100AD2006DEF05F08CEF05F0FF0E486EFF0E496ECC
:100AE20076C04AF077C04BF048504A2649504B2214
:100AF2008A514A5C4B50800A4C6E8B51800A4C588A
:100B0200D8A086EF05F088EF05F08CEF05F0660EB1
:100B12007A6F8EEF05F0650E7A6F76C06CF077C053
:100B22006DF0670E7B19D8A499EF05F09BEF05F0E5
:100B3200ABEF05F0660E7A19D8A4A2EF05F0A4EF88
:100B420005F0ADEF05F08BBFABEF05F0A9EF05F0B7
:100B5200ADEF05F06C4B6D2B660E7A19D8A4B4EF8D
:100B620005F0B6EF05F0D6EF05F08BBFBDEF05F04F
:100B7200BBEF05F0C9EF05F0000E8E6F000E8F6F10
:100B8200800E906F3F0E916F000E8B6F000E8A6F7A
:100B9200670E7B19D8B4D0EF05F0D2EF05F0D6EF8F
:100BA20005F08A516C278B516D23000E856F000E64
:100BB200846F86C07CF087C07DF088C07EF089C0DB
:100BC2007FF08EC06EF08FC06FF090C070F091C059
:100BD20071F067EF06F07CC014F07DC015F07EC0A6
:100BE20016F07FC017F08EC018F08FC019F090C0B9
:100BF2001AF091C01BF0E4EC12F014C02DF015C0F5
:100C02002EF016C02FF017C030F0B1EC14F02DC04A
:100C120080F02EC081F02FC082F030C083F080C0FF
:100C220006F081C007F082C008F083C009F028EC0A
:100C320019F006C072F007C073F07CC01FF07DC0CF
:100C420020F07EC021F07FC022F08EC00AF08FC05B
:100C52000BF090C00CF091C00DF080C006F081C086
:100C620007F082C008F083C009F0CFEC10F006C094
:100C720023F007C024F008C025F009C026F019ECC3
:100C82001EF01FC07CF020C07DF021C07EF022C08B
:100C92007FF08EC014F08FC015F090C016F091C096
:100CA20017F0000E186E000E196E200E1A6E410E0D
:100CB2001B6EE4EC12F014C08EF015C08FF016C05B
:100CC20090F017C091F00001844B852B6C51845D2C
:100CD2008551800A486E6D51800A4858D8A074EF39
:100CE20006F076EF06F0ECEF05F08EC006F08FC04E
:100CF20007F090C008F091C009F0000E0A6E000ED5
:100D02000B6EA00E0C6E400E0D6ECFEC10F006C0F6
:100D120080F007C081F008C082F009C083F07CC077
:100D22001FF07DC020F07EC021F07FC022F080C085
:100D320023F081C024F082C025F083C026F0ABEC02
:100D420019F0D8B0A7EF06F0A9EF06F0B4EF06F05D
:100D5200000E0001806F000E816F000E826F000E88
:100D6200836FDDEF06F07CC006F07DC007F07EC029
:100D720008F07FC009F080C00AF081C00BF082C089
:100D82000CF083C00DF097EC1CF0D8A0CBEF06F06E
:100D9200CDEF06F0DDEF06F0000172B1D3EF06F001
:100DA200D5EF06F0DDEF06F0000E806F000E816FCA
:100DB200000E826F000E836F86C006F087C007F0B8
:100DC20088C008F089C009F080C00AF081C00BF029
:100DD20082C00CF083C00DF06FEC0EF006C07CF008
:100DE20007C07DF008C07EF009C07FF07CC01FF014
:100DF2007DC020F07EC021F07FC022F0000E0A6E7E
:100E0200000E0B6E200E0C6E410E0D6E6EC006F0C3
:100E12006FC007F070C008F071C009F0CFEC10F09D
:100E220006C023F007C024F008C025F009C026F050
:100E3200ABEC19F0D8A020EF07F022EF07F04BEF50
:100E420007F000018A4B8B2B6EC006F06FC007F0D3
:100E520070C008F071C009F0000E0A6E000E0B6E31
:100E6200200E0C6E410E0D6ECFEC10F006C06EF02F
:100E720007C06FF008C070F009C071F0660E000183
:100E82007A19D8A447EF07F049EF07F04BEF07F0C4
:100E92006C4B6D2B6EC08EF06FC08FF070C090F0F7
:100EA20071C091F0650E00017A19D8B45BEF07F0BA
:100EB2005DEF07F063EF07F08AC06AF08BC06BF05A
:100EC20067EF07F0000E6B6F000E6A6F000E696F1E
:100ED200000E686F000E676F000E666F000E856F62
:100EE200000E846F63EF08F07CC014F07DC015F033
:100EF2007EC016F07FC017F08EC018F08FC019F0B8
:100F020090C01AF091C01BF0E4EC12F014C02DF066
:100F120015C02EF016C02FF017C030F0B1EC14F04F
:100F22002DC080F02EC081F02FC082F030C083F03F
:100F320080C006F081C007F082C008F083C009F0CB
:100F420028EC19F006C072F007C073F053B8ACEF8A
:100F520007F0AEEF07F0CCEF07F00001725173110A
:100F6200D8A4B6EF07F0B8EF07F0CCEF07F0670EA2
:100F72007B19D8A4BFEF07F0C1EF07F0CCEF07F061
:100F82006BBFC8EF07F0C6EF07F0CCEF07F0664B78
:100F9200672B17EF08F0000168516911D8A4D4EF4C
:100FA20007F0D6EF07F000EF08F06BBFDDEF07F0B8
:100FB200DBEF07F000EF08F0800E8C25D96E010EF2
:100FC2008D21DA6E2E0EDF6E8C4B8D2B7807D8A01A
:100FD2007907000E696F010E686F00EF08F0800E4E
:100FE2008C25D96E010E8D21DA6E300EDF6E8C4BA0
:100FF2008D2B7807D8A079076607D8A067076651B6
:101002006711D8A407EF08F009EF08F0F0EF07F036
:10101200800E8C25D96E010E8D21DA6E7251300F41
:10102200DF6E8C4B8D2B7807D8A079077CC01FF020
:101032007DC020F07EC021F07FC022F08EC00AF079
:101042008FC00BF090C00CF091C00DF080C006F084
:1010520081C007F082C008F083C009F0CFEC10F025
:1010620006C023F007C024F008C025F009C026F00E
:1010720019EC1EF01FC07CF020C07DF021C07EF074
:1010820022C07FF08EC014F08FC015F090C016F011
:1010920091C017F0000E186E000E196E200E1A6E17
:1010A200410E1B6EE4EC12F014C08EF015C08FF0EE
:1010B20016C090F017C091F000016A07D8A06B0724
:1010C200844B852B6C51845D8551800A486E6D512D
:1010D200800A4858D8B070EF08F072EF08F080EF3D
:1010E20008F08DBF7EEF08F08D5109E14B0E8C5D4B
:1010F200D8A07EEF08F080EF08F075EF07F0685196
:101102006911D8A487EF08F089EF08F09AEF08F088
:1011120053A88EEF08F090EF08F09AEF08F0800ED7
:101122008C25D96E010E8D21DA6E2E0EDF6E8C4B60
:101132008D2B800E8C25D96E010E8D21DA6E000E5C
:10114200DF6E650E7A19D8A4A9EF08F0ABEF08F0AC
:1011520010EF04F0000E856F4F0E846F800E842511
:10116200D96E010E8521DA6E000EDF6E000E756FEC
:10117200000E746F8BBFC2EF08F0C0EF08F0CAEF29
:1011820008F0000E756F010E746F8A6D8B1FD8B058
:101192008B2B000E776F020E766FFBEF08F0840741
:1011A200D8A08507800E8425D96E010E8521DA6EBE
:1011B2008AC006F08BC007F0000E096E0A0E086E98
:1011C2003FEC1CF00650300FDF6E8AC006F08BC079
:1011D20007F0000E096E0A0E086E7CEC1BF006C0CA
:1011E2008AF007C08BF000017607D8A0770778074E
:1011F200D8A079078A518B11D8A402EF09F004EF25
:1012020009F0D0EF08F077BF11EF09F0775106E14E
:101212007605D8B00FEF09F011EF09F0D0EF08F022
:101222008407D8A0850774517511D8A41BEF09F063
:101232001DEF09F023EF09F0000E636F2B0E626FB2
:1012420027EF09F0000E636F2D0E626F800E84256A
:10125200D96E010E8521DA6E62C0DFFF7807D8A051
:1012620079078407D8A08507BF0E486EFF0E496E26
:1012720047504A6E4B6A48504A2649504B224B50BF
:1012820009E11A0E4A5CD8A049EF09F04BEF09F0C8
:1012920051EF09F0000E656F650E646F55EF09F0AE
:1012A200000E656F450E646F800E8425D96E010EA7
:1012B2008521DA6E64C0DFFF7807D8A07907800E37
:1012C2008C25066E010E8D21076E800E8425086E18
:1012D200010E8521096E4CEC1DF010EF04F0120096
:1012E2004FC0D9FF50C0DAFFDECFF6FFDDCFF7FFE8
:1012F2000800F550250AD8A481EF09F083EF09F020
:10130200E2EF0BF04FC0D9FF50C0DAFFDE2A000E29
:10131200DD22000E0001D36F000ED26FD2C053F057
:10132200D3C054F0D469D5694FC0D9FF50C0DAFF99
:10133200DECFF6FFDDCFF7FF0800F5502A0AD8A46A
:10134200A5EF09F0A7EF09F0D0EF09F04FC0D9FFE0
:1013520050C0DAFFDE2A000EDD2251C0D9FF52C092
:10136200DAFFDFCF92F0020EDE26DFCF93F0000E1F
:10137200DD2292C0D9FF93C0DAFFDECFD2F0DDCFFB
:10138200D3F0D3BFC9EF09F0C7EF09F007EF0AF0B6
:101392005380D26DD31FD8B0D32B07EF0AF04FC0C2
:1013A200D9FF50C0DAFFDECF0DF0DDCF0EF0F7EC43
:1013B20017F00DC0D2F00EC0D3F0E7EF09F04FC026
:1013C200D9FF50C0DAFFDE2A000EDD22D00E000166
:1013D200926FFF0E936F4FC0D9FF50C0DAFFDECF7E
:1013E200F6FFDDCFF7FF0800F550946F956B925131
:1013F200942793519523955109E10A0E945DD8A043
:1014020005EF0AF007EF0AF0E0EF09F04FC0D9FF4D
:1014120050C0DAFFDECFF6FFDDCFF7FF0800F55050
:101422002E0AD8A417EF0AF019EF0AF08AEF0AF091
:10143200000ED56F000ED46F4FC0D9FF50C0DAFF37
:10144200DE2A000EDD224FC0D9FF50C0DAFFDECF08
:10145200F6FFDDCFF7FF0800F5502A0AD8A434EFD3
:101462000AF036EF0AF053EF0AF04FC0D9FF50C02E
:10147200DAFFDE2A000EDD2251C0D9FF52C0DAFFA8
:10148200DFCF92F0020EDE26DFCF93F0000EDD22D8
:1014920092C0D9FF93C0DAFFDECFD4F0DDCFD5F012
:1014A2008AEF0AF04FC0D9FF50C0DAFFDECF0DF04D
:1014B200DDCF0EF0F7EC17F00DC0D4F00EC0D5F072
:1014C2006AEF0AF04FC0D9FF50C0DAFFDE2A000EE1
:1014D200DD22D00E0001926FFF0E936F4FC0D9FF35
:1014E20050C0DAFFDECFF6FFDDCFF7FF0800F55080
:1014F200946F956B9251942793519523955109E1DD
:101502000A0E945DD8A088EF0AF08AEF0AF063EF22
:101512000AF04FC0D9FF50C0DAFFDECFF6FFDDCFB1
:10152200F7FF0800F5500C6E0D6AF6EC1DF00C503A
:1015320000019A6F9A51D8B4A1EF0AF0A3EF0AF012
:10154200DDEF0AF04FC0D9FF50C0DAFFDECF92F0D4
:10155200DDCF93F0010E9227000E932392C0F6FF87
:1015620093C0F7FF0800F5500C6E0D6AF6EC1DF003
:101572000C5000019B6F9B51D8B4C2EF0AF0C4EF2C
:101582000AF0DDEF0AF04FC0D9FF50C0DAFFDECF1C
:1015920092F0DDCF93F0020E9227000E932392C0B9
:1015A200F6FF93C0F7FF0800F5500C6E0D6AF6ECDB
:1015B2001DF00C5000019C6F660E9A19D8A4E4EF3E
:1015C2000AF0E6EF0AF026EF0BF04FC0D9FF50C049
:1015D200DAFFDECFF6FFDDCFF7FF0800F5CF9DF093
:1015E2004FC0D9FF50C0DAFFDE2A000EDD2251C003
:1015F200D9FF52C0DAFFDFCF92F0040EDE26DFCF32
:1016020093F0000EDD2292C0D9FF93C0DAFFDECF45
:1016120096F0DECF97F0DECF98F0DECF99F04DC096
:1016220041F04EC042F096C043F097C044F098C0DB
:1016320045F099C046F09DC047F069EC03F041C007
:101642004DF042C04EF0FDEF0BF09A0E066E000E0A
:10165200076ECD0E086E060E096E000E0B6E020EA0
:101662000A6EACEC1AF006500710D8A43BEF0BF050
:101672003DEF0BF0ACEF0BF04FC0D9FF50C0DAFFDB
:10168200DECF92F0DDCF93F0010E00019227000E23
:10169200932392C0F6FF93C0F7FF0800F5CF9DF0A9
:1016A200BF0E926FFF0E936F4FC0D9FF50C0DAFF8B
:1016B200DECFF6FFDDCFF7FF0800F550946F956B94
:1016C2009251942793519523955107E11A0E945DF7
:1016D200D8B06EEF0BF070EF0BF08AEF0BF051C049
:1016E200D9FF52C0DAFFDFCF92F0040EDE26DFCF41
:1016F20093F0000EDD2292C0D9FF93C0DAFFDECF55
:1017020096F0DECF97F0DECF98F0DECF99F0A2EF21
:101712000BF051C0D9FF52C0DAFFDFCF92F0040EB6
:10172200DE26DFCF93F0000EDD2292C0D9FF93C0F8
:10173200DAFFDECF96F0DECF97F0DECF98F0DECF85
:1017420099F0020E4FC0D9FF50C0DAFFDE26000E1C
:10175200DD2210EF0BF04FC0D9FF50C0DAFFDECF11
:10176200F6FFDDCFF7FF0800F550250AD8A4BCEF3D
:101772000BF0BEEF0BF0D5EF0BF04FC0D9FF50C00E
:10178200DAFFDE2A000EDD22000E076E250E066E3F
:101792004DC008F04EC009F017EC1BF0000E4E6E63
:1017A200010E4D6EFDEF0BF04FC0D9FF50C0DAFFB6
:1017B200DE2A000EDD22000E4E6E000E4D6EFDEF93
:1017C2000BF04FC0D9FF50C0DAFFDECFF6FFDDCFFE
:1017D200F7FF0800F550066E076A4DC008F04EC0CC
:1017E20009F017EC1BF04FC0D9FF50C0DAFFDE2A18
:1017F200000EDD22CFEF0BF0120021EED7F0040E27
:10180200DE6AE806FDE294908B905E0E0001BD6FE9
:10181200800EE82EFED7BD2FFCD700F08B80280E5D
:10182200E82EFED79480030E0101E96FE80EE86FFF
:1018320030EF0CF0E807D8A0E907E851E911D8A485
:1018420025EF0CF027EF0CF030EF0CF0BBC0D9FF06
:10185200BCC0DAFF000EDF6E000E6EEF0EF082B03B
:1018620035EF0CF037EF0CF01BEF0CF0030EE96FC5
:10187200E80EE86F51EF0CF0E807D8A0E907E8514D
:10188200E911D8A447EF0CF049EF0CF051EF0CF03E
:10189200BBC0D9FFBCC0DAFF000EDF6E2DEF0CF02B
:1018A20082A056EF0CF058EF0CF03DEF0CF0030E57
:1018B200E96FE80EE86F72EF0CF0E807D8A0E907CD
:1018C200E851E911D8A468EF0CF06AEF0CF072EF5E
:1018D2000CF0BBC0D9FFBCC0DAFF000EDF6E2DEFEB
:1018E2000CF082B077EF0CF079EF0CF05EEF0CF0B9
:1018F200000EDF6F000ED66F000EDE6F070EE96F6F
:10190200D00EE86F99EF0CF0E807D8A0E907E8518C
:10191200E911D8A48FEF0CF091EF0CF099EF0CF0D5
:10192200BBC0D9FFBCC0DAFF000EDF6E2DEF0CF09A
:1019320082A09EEF0CF0A0EF0CF085EF0CF0350EBC
:10194200E82EFED700F082A0A9EF0CF0ABEF0CF06E
:10195200DFEF0CF00101DE5107080001BD6F010E3F
:10196200BE6FBD2BB7EF0CF0D890BE37BD2FB5EFD1
:101972000CF00001BE510101D613070EE96FD00E23
:10198200E86FD8EF0CF0E807D8A0E907E851E911B1
:10199200D8A4CEEF0CF0D0EF0CF0D8EF0CF0BBC017
:1019A200D9FFBCC0DAFF000EDF6E2DEF0CF082B063
:1019B200DDEF0CF0DFEF0CF0C4EF0CF00101DE2BD9
:1019C200070EDE65E7EF0CF0E9EF0CF07FEF0CF0AD
:1019D200D70EDF25D96EDA6A010EDA22D6C1DFFF11
:1019E200DF2B040EDF65F8EF0CF0FAEF0CF07BEF63
:1019F2000CF0D851D7C1BDF00001BE6BBD27000E5F
:101A0200BE230101D9510001BD27000EBE230101F1
:101A1200DA510001BD27000EBE23BD510101DB19C1
:101A2200D8B416EF0DF018EF0DF020EF0DF0BBC09B
:101A3200D9FFBCC0DAFF020EDF6E2DEF0CF0D851D9
:101A4200D7C1BDF00001BE6BBDC0BEF0BD6BBD1104
:101A52000101D06F0001BE510101D16FDA51D9C12C
:101A6200BDF00001BE6BBDC0BEF0BD6BBD1101017A
:101A7200DC6F0001BE510101DD6FD0C106F0D1C1A2
:101A820007F0086A096A000EBAEC15F006C014F0F5
:101A920007C015F008C016F009C017F0000E186E46
:101AA200000E196E200E1A6E410E1B6EE4EC12F03F
:101AB20014C0E0F115C0E1F116C0E2F117C0E3F184
:101AC2000101DDBF67EF0DF069EF0DF08EEF0DF054
:101AD200DCC106F0DDC107F0086A096A000EBAEC43
:101AE20015F006C014F007C015F008C016F009C0C2
:101AF20017F0000E186E000E196E200E1A6E410EAF
:101B02001B6EE4EC12F014C0D2F115C0D3F116C072
:101B1200D4F117C0D5F1BEEF0DF0FF0E0001BD6F7D
:101B22007F0EBE6FDCC1BFF0DDC1C0F0BD51BF177B
:101B3200BE51C017BFC006F0C0C007F0086A096AEC
:101B4200000EBAEC15F006C014F007C015F008C07C
:101B520016F009C017F0000E186E000E196E200E56
:101B62001A6EC10E1B6EE4EC12F014C0D2F115C055
:101B7200D3F116C0D4F117C0D5F1D2C1E4F1D3C16B
:101B8200E5F1D4C1E6F1D5C1E7F10101E3BFCCEF44
:101B92000DF0CEEF0DF019EF0EF0000E1F6E000EDD
:101BA200206EC80E216E420E226EE0C123F0E1C10A
:101BB20024F0E2C125F0E3C126F0ABEC19F0D8A085
:101BC200E5EF0DF0E7EF0DF019EF0EF0E4C11FF0B5
:101BD200E5C120F0E6C121F0E7C122F0000E236E3C
:101BE200000E246E200E256EC20E266EABEC19F08E
:101BF200D8A0FEEF0DF000EF0EF019EF0EF0000E80
:101C02001F6E000E206EA00E216E420E226EE4C1E7
:101C120023F0E5C124F0E6C125F0E7C126F0ABECE4
:101C220019F0D8B017EF0EF019EF0EF021EF0EF009
:101C3200BBC0D9FFBCC0DAFF030EDF6E2DEF0CF084
:101C4200000120EE01F0BB51D926BC51DA22E4C1D9
:101C5200DEFFE5C1DEFFE6C1DEFFE7C1DEFF20EE0B
:101C620005F0BB51D926BC51DA22E0C1DEFFE1C149
:101C7200DEFFE2C1DEFFE3C1DEFFBBC0D9FFBCC0B5
:101C8200DAFF010EDF6E090EBB25A66F000EBC2126
:101C9200A76FB20EA86F060EA96FE4C1AAF0E5C144
:101CA200ABF0E6C1ACF0E7C1ADF0A4EC1DF0100E54
:101CB2000001BB25A66F000EBC21A76FB20EA86F54
:101CC200060EA96FE0C1AAF0E1C1ABF0E2C1ACF02F
:101CD200E3C1ADF0A4EC1DF0010E12000950800B1F
:101CE200126E09500924146E08AE7AEF0EF07CEFE2
:101CF2000EF07DEF0EF014801450D8B483EF0EF086
:101D020085EF0EF09AEF0EF01428D8A48BEF0EF0A8
:101D12008DEF0EF095EF0EF0000E066E000E076EC0
:101D2200000E086E000E096E088E000E096EA2EFFC
:101D32000EF0000E066E000E076E000E086E000E0C
:101D4200096E0D50800B136E12501318D8B4ACEFFD
:101D52000EF0AEEF0EF0AFEF0EF0128C0D500D2420
:101D6200136E0CAEB7EF0EF0B9EF0EF0BAEF0EF045
:101D720013801350D8B4C0EF0EF0C2EF0EF0D7EFBD
:101D82000EF01328D8A4C8EF0EF0CAEF0EF0D2EF6F
:101D92000EF0000E0A6E000E0B6E000E0C6E000EA0
:101DA2000D6E0C8E000E0D6EDFEF0EF0000E0A6E41
:101DB200000E0B6E000E0C6E000E0D6E1450135CB6
:101DC200D8B0E6EF0EF0E8EF0EF00FEF0FF012AC26
:101DD200EDEF0EF0EFEF0EF0F1EF0EF0800E121AB3
:101DE20014C015F013C014F015C013F006C015F09E
:101DF2000AC006F015C00AF007C015F00BC007F0C4
:101E020015C00BF008C015F00CC008F015C00CF09E
:101E120009C015F00DC009F015C00DF0000E156EC9
:101E2200145013C00EF00F6A0E5E000E0F5A0FBE52
:101E320024EF0FF00F5009E11A0E0E5CD8A024EF28
:101E42000FF026EF0FF05DEF0FF0065007100810AD
:101E52000910D8A42FEF0FF032EF0FF0010E33EF7D
:101E62000FF0000E156E000E066E000E076E000ECD
:101E7200086E000E096E13C014F066EF0FF015A085
:101E820045EF0FF047EF0FF04DEF0FF0D890153000
:101E92000109156E4FEF0FF0D890153206A054EFDE
:101EA2000FF056EF0FF057EF0FF0158E093409328D
:101EB200083207320632142A1350145CD8A064EF99
:101EC2000FF066EF0FF040EF0FF012BC6BEF0FF068
:101ED2006DEF0FF0ADEF0FF01450D8A473EF0FF0C9
:101EE20075EF0FF07FEF0FF0000E066E000E076E1B
:101EF200000E086E000E096ECEEF10F00A50062694
:101F02000B5007220C5008220D50092209A08CEF19
:101F12000FF08EEF0FF03AEF10F015A093EF0FF0E5
:101F220095EF0FF09BEF0FF0D89015300109156E69
:101F32009DEF0FF0D890153206A0A2EF0FF0A4EF9C
:101F42000FF0A5EF0FF0158E09340932083207326F
:101F52000632142A3AEF10F00A50065C0B5007586A
:101F62000C5008580950800A0E6E0D50800A0E5807
:101F7200D8B0BEEF0FF0C0EF0FF0EBEF0FF006504E
:101F82000A5C0E6E07500B580F6E08500C58106EFC
:101F920009500D58116EFF0E0E24066EFF0E0F2013
:101FA200076EFF0E1020086EFF0E1120096E800EC4
:101FB200121A156C1550D8A4E1EF0FF0E3EF0FF0F1
:101FC200F3EF0FF0010E0626000E07220822092267
:101FD200F3EF0FF00A50065E0B50075A0C50085AE6
:101FE2000D50095A0650071008100910D8A4FCEF2A
:101FF2000FF0FEEF0FF033EF10F01550D8A404EFFE
:1020020010F006EF10F033EF10F0000E066E000E27
:10201200076E000E086E000E096ECEEF10F0D8901B
:10202200063607360836093615AE1AEF10F01CEFE1
:1020320010F01DEF10F0068015A022EF10F024EF33
:1020420010F028EF10F0D88015362AEF10F0D89053
:1020520015361450D8B430EF10F032EF10F033EFE1
:1020620010F0140608AE38EF10F03AEF10F010EF4F
:1020720010F0000E136E15AE41EF10F043EF10F0AA
:102082005BEF10F015C00EF07F0E0E16D8B44CEFB9
:1020920010F04EEF10F052EF10F0010E136E5BEFE6
:1020A20010F006A057EF10F059EF10F05BEF10F0B0
:1020B2004EEF10F01350D8B461EF10F063EF10F050
:1020C2008EEF10F0010E0626000E072208220922CA
:1020D20009A06EEF10F070EF10F08EEF10F006C056
:1020E2000EF007C00FF008C010F009C011F0113453
:1020F200113210320F320E320EC006F00FC007F04E
:1021020010C008F011C009F01428D8B48BEF10F0F9
:102112008DEF10F08EEF10F0142A1428D8B494EF3B
:1021220010F096EF10F09EEF10F01450D8A49CEF30
:1021320010F09EEF10F0B0EF10F0000E066E000EE1
:10214200076E000E086E000E096E1450D8A4ACEF94
:1021520010F0AEEF10F0B0EF10F0000E126E14A0FF
:10216200B5EF10F0B7EF10F0BAEF10F0088EBBEF3A
:1021720010F0089ED8901430096E12AEC3EF10F022
:10218200C5EF10F0C6EF10F0098E06C006F007C0CA
:1021920007F008C008F009C009F012000950800BCE
:1021A200126E09500924186E08AEDAEF10F0DCEF57
:1021B20010F0DDEF10F018801850D8B4E3EF10F0F3
:1021C200E5EF10F0F8EF10F01828D8A4EBEF10F0BC
:1021D200EDEF10F0F5EF10F0000E066E000E076E38
:1021E200000E086E000E096E088E00EF11F0000E50
:1021F200066E000E076E000E086E000E096E0D5080
:10220200800B121A0D500D24136E0CAE0BEF11F051
:102212000DEF11F00EEF11F013801350D8B414EF3C
:1022220011F016EF11F029EF11F01328D8A41CEFCA
:1022320011F01EEF11F026EF11F0000E0A6E000EE3
:102242000B6E000E0C6E000E0D6E0C8E31EF11F047
:10225200000E0A6E000E0B6E000E0C6E000E0D6E5E
:102262001350D8B437EF11F039EF11F041EF11F0FC
:102272001850D8A43FEF11F041EF11F04BEF11F0DD
:10228200000E066E000E076E000E086E000E096E3E
:10229200E3EF12F00C500602F3CF1DF0F4CF1EF064
:1022A2001D50146E156A166A176A1E50196E1A6A44
:1022B2001B6A1C6A0B500702F3CF1DF0F4CF1EF00D
:1022C2001D501426000E1522162217221E50192602
:1022D200000E1A221B221C220A500802F3CF1DF004
:1022E200F4CF1EF01D501426000E152216221722BE
:1022F2001E501926000E1A221B221C2216C017F08D
:1023020015C016F014C015F0146A0A500702F3CF74
:102312001DF0F4CF1EF01D5014261E501522000E83
:102322001622000E17220B500602F3CF1DF0F4CF37
:102332001EF01D5014261E501522000E1622000EED
:10234200172216C017F015C016F014C015F0146A43
:102352000A500602F3CF1DF0F4CF1EF01D501426D2
:102362001E501522000E1622000E17220C500702D4
:10237200F3CF1DF0F4CF1EF01D5019261E501A2265
:10238200000E1B22000E1C220B500802F3CF1DF080
:10239200F4CF1EF01D5019261E501A22000E1B22C9
:1023A200000E1C220C500802F3CF1DF0F4CF1EF0D9
:1023B2001D500E6E1E500F6E106A116A10C011F081
:1023C2000FC010F00EC00FF00E6A0E5019260F50FB
:1023D2001A2210501B2211501C2214C00EF015C0DC
:1023E2000FF016C010F017C011F0190EFEEF11F029
:1023F200D890113210320F320E32E82EF9EF11F06E
:102402000E5019260F501A2210501B2211501C2256
:1024120016C017F015C016F014C015F0146A135048
:1024220018C00EF00F6A0E26000E0F22820E0E2426
:102432001D6EFF0E0F201E6E34EF12F0D89019366B
:102442001A361B361C3617AE29EF12F02BEF12F09C
:102452002CEF12F01980D89014361536163617362E
:102462001D06D8A01E061BAE39EF12F03BEF12F08C
:102472001FEF12F0000E136E17AE42EF12F044EF90
:1024820012F068EF12F0FF0E14140E6EFF0E151408
:102492000F6EFF0E1614106E7F0E1714116E0E5073
:1024A2000F1010101110D8B459EF12F05BEF12F0A8
:1024B2005FEF12F0010E136E68EF12F019A064EFD5
:1024C20012F066EF12F068EF12F05BEF12F01350A9
:1024D200D8B46EEF12F070EF12F094EF12F0010E1A
:1024E2001926000E1A221B221C221CA07BEF12F0BE
:1024F2007DEF12F094EF12F019C00EF01AC00FF037
:102502001BC010F01CC011F01134113210320F3206
:102512000E320EC019F00FC01AF010C01BF011C01D
:102522001CF01D4A1E2A1EBE9FEF12F01E5008E12B
:102532001D28D8A09FEF12F0A1EF12F0ABEF12F01E
:10254200000E196E000E1A6E800E1B6E7F0E1C6E30
:10255200D9EF12F01EBEB8EF12F01E5006E11D04B4
:10256200D8B0B6EF12F0B8EF12F0C4EF12F0000ECE
:10257200196E000E1A6E000E1B6E000E1C6E000EFF
:10258200126ED9EF12F01DC018F0FF0E1916FF0ED1
:102592001A167F0E1B16000E1C1618A0D3EF12F08F
:1025A200D5EF12F0D6EF12F01B8ED89018301C6EB9
:1025B20012501C1219C006F01AC007F01BC008F016
:1025C2001CC009F012001750800B246E17501724FC
:1025D2002B6E16AEEFEF12F0F1EF12F0F2EF12F0F7
:1025E2002B802B50D8B4F8EF12F0FAEF12F00FEF65
:1025F20013F02B28D8A400EF13F002EF13F00AEF28
:1026020013F0000E146E000E156E000E166E000E04
:10261200176E168E000E176E17EF13F0000E146E63
:10262200000E156E000E166E000E176E1B50800BFC
:10263200241A1B501B242C6E1AAE22EF13F024EF27
:1026420013F025EF13F02C802C50D8B42BEF13F09D
:102652002DEF13F042EF13F02C28D8A433EF13F030
:1026620035EF13F03DEF13F0000E186E000E196EE9
:10267200000E1A6E000E1B6E1A8E000E1B6E4AEFB3
:1026820013F0000E186E000E196E000E1A6E000E78
:102692001B6E185019101A101B10D8A453EF13F008
:1026A20055EF13F06DEF13F0000E146E000E156E61
:1026B200000E166E000E176E800E16127F0E171287
:1026C2002450171214C014F015C015F016C016F0DD
:1026D20017C017F0B0EF14F02B50D8A473EF13F01B
:1026E20075EF13F07FEF13F0000E146E000E156EEF
:1026F200000E166E000E176EB0EF14F02C502BC0A9
:102702001CF01D6A1C5E000E1D5A7F0E1C24256ED5
:10271200000E1D20266E14C020F015C021F016C038
:1027220022F017C023F0000E146E000E156E000E7C
:10273200166E000E176E000E276E000E286E000E2B
:10274200296E000E2A6E000E2C6EE0EF13F02C5054
:10275200D8B4AEEF13F0B0EF13F0C7EF13F0D89088
:102762002036213622362336D890143615361636C0
:1027720017362AAEBFEF13F0C1EF13F0C2EF13F01A
:102782001480D8902736283629362A361850205CED
:10279200195021581A5022581B502358D8A0D4EF50
:1027A20013F0D6EF13F0DFEF13F02A8C1850205EEF
:1027B2001950215A1A50225A1B50235A2C2A190EE8
:1027C2002C64E6EF13F0E8EF13F0A8EF13F02050BB
:1027D200211022102310D8B4F1EF13F0F3EF13F00D
:1027E2000BEF14F027800BEF14F0D8901436153647
:1027F200163617362AAE00EF14F002EF14F003EF8C
:1028020014F01480D8902736283629362A36250621
:10281200D8A0260616AE10EF14F012EF14F0F6EF61
:1028220013F0000E2C6E2AAE19EF14F01BEF14F009
:102832003FEF14F0FF0E27141C6EFF0E28141D6EBE
:10284200FF0E29141E6E7F0E2A141F6E1C501D10BF
:102852001E101F10D8B430EF14F032EF14F036EF20
:1028620014F0010E2C6E3FEF14F014A03BEF14F0A5
:102872003DEF14F03FEF14F032EF14F02C50D8B4C7
:1028820045EF14F047EF14F06BEF14F0010E14262D
:10289200000E15221622172217A052EF14F054EF41
:1028A20014F06BEF14F014C01CF015C01DF016C02C
:1028B2001EF017C01FF01F341F321E321D321C3291
:1028C2001CC014F01DC015F01EC016F01FC017F07A
:1028D200254A262A26BE76EF14F0265008E125283E
:1028E200D8A076EF14F078EF14F083EF14F0000E16
:1028F200266E2568000E146E000E156E000E166E02
:10290200000E176E26BE90EF14F0265006E1250445
:10291200D8B08EEF14F090EF14F09EEF14F0000E8A
:10292200266E000E256E000E146E000E156E000E41
:10293200166E000E176E000E246E25C02BF02BA013
:10294200A5EF14F0A7EF14F0AAEF14F0168EABEF78
:1029520014F0169ED8902B30176E61EF13F0120010
:10296200C8C03DF0C9C03EF0CAC03FF0CBC040F085
:102972002DC03DF02EC03EF02FC03FF030C040F0E1
:10298200810E316EFF0E326E3DC033F03EC034F028
:102992003FC035F040C036F0180ED5EF14F0D89095
:1029A2003632353234323332E82ED0EF14F033502F
:1029B20031243B6E000E32203C6E3CBEEAEF14F036
:1029C2003C5009E1170E3B5CD8A0EAEF14F0ECEFA3
:1029D20014F0F6EF14F02DC02DF02EC02EF02FC003
:1029E2002FF030C030F0B9EF15F03CBEFBEF14F021
:1029F200FDEF14F06DEF15F03BC031F0FF0E326EBB
:102A0200FF0E336E7F0E346E000E356E31660CEFA4
:102A120015F014EF15F035343532343233323232A8
:102A2200312E07EF15F032C037F033C038F034C022
:102A320039F035C03AF037503D14316E38503E14FB
:102A4200326E39503F14336E3A504014346E315066
:102A5200321033103410D8A431EF15F033EF15F0E3
:102A620035EF15F0ECEF14F03DC031F03EC032F01E
:102A72003FC033F040C034F0200E45EF15F0D8903F
:102A82003432333232323132E82E40EF15F03150E7
:102A9200321033103410D8B451EF15F053EF15F053
:102AA2005BEF15F037503D2638503E2239503F2219
:102AB2003A504022371C316E381C326E391C336E4C
:102AC2003A1C346E31503D1632503E1633503F168A
:102AD20034504016B1EF15F03DC031F03EC032F037
:102AE2003FC033F040C034F0200E7DEF15F0D89097
:102AF2003432333232323132E82E78EF15F031503F
:102B0200321033103410D8A489EF15F08BEF15F082
:102B120095EF15F0000E3D6E000E3E6E000E3F6EFC
:102B2200000E406EB1EF15F0D8903D34316E3E3458
:102B3200326E3F34336E4034346E315032103310C3
:102B42003410D8B4A7EF15F0A9EF15F0B1EF15F0D6
:102B5200000E3D6E000E3E6E800E3F6EBF0E406E4A
:102B62003DC02DF03EC02EF03FC02FF040C030F0EF
:102B720012000E6E0E50D8B4C1EF15F0C3EF15F06F
:102B8200E5EF15F009BECAEF15F0C8EF15F0E5EF55
:102B920015F006C00AF007C00BF008C00CF009C01F
:102BA2000DF00A1E0B1E0C1E0D1E0A2A000E0B2211
:102BB2000C220D220AC010F00BC011F00CC012F052
:102BC2000DC013F0EDEF15F006C010F007C011F0C4
:102BD20008C012F009C013F00650071008100910BF
:102BE200D8A4F6EF15F0F8EF15F002EF16F0000E8C
:102BF200066E000E076E000E086E000E096E93EF51
:102C020016F0960E0F6E0CEF16F00F2AD8901332B4
:102C1200123211321032000E10140A6E000E11140C
:102C22000B6E000E12140C6EFE0E13140D6E0A5073
:102C32000B100C100D10D8A421EF16F023EF16F094
:102C420006EF16F031EF16F00F2A010E1026000ED5
:102C5200112212221322D890133212321132103260
:102C6200000E10140A6E000E11140B6E000E1214D8
:102C72000C6EFF0E13140D6E0A500B100C100D107B
:102C8200D8A446EF16F048EF16F025EF16F050EFF5
:102C920016F00F06D890103611361236133612BEC1
:102CA20055EF16F057EF16F05FEF16F0020E0F60B9
:102CB2005DEF16F05FEF16F04AEF16F00FB064EF1B
:102CC20016F066EF16F067EF16F0129ED8900F32EC
:102CD2000FC00AF00B6A0C6A0D6A0AC00DF00C6A8A
:102CE2000B6A0A6A0A5010120B5011120C5012127F
:102CF2000D5013120E50D8B481EF16F083EF16F078
:102D02008BEF16F009BE8AEF16F088EF16F08BEF04
:102D120016F0138E10C006F011C007F012C008F0B2
:102D220013C009F01200949C948E0F013A9D3A9FB1
:102D320017BEA6EF16F01750161009E14B0E155CE0
:102D4200D8A0A6EF16F0A8EF16F0D5EF16F0AC84D7
:102D5200B886000E066E240E076EF40E086E000E84
:102D6200096E14C018F015C019F016C01AF017C079
:102D72001BF0020ED890183619361A361B36E82E7A
:102D8200BBEF16F018C00AF019C00BF01AC00CF015
:102D92001BC00DF0A2EC18F0FF0E06241C6EFF0EF5
:102DA20007201D6E3EEF17F017BEE4EF16F0175026
:102DB20016100BE1600E145C090E1558D8A0E4EF52
:102DC20016F0E6EF16F013EF17F0AC94B886000E8B
:102DD200066E240E076EF40E086E000E096E14C005
:102DE20018F015C019F016C01AF017C01BF0040E27
:102DF200D890183619361A361B36E82EF9EF16F027
:102E020018C00AF019C00BF01AC00CF01BC00DF06C
:102E1200A2EC18F0FF0E06241C6EFF0E07201D6E9A
:102E22003EEF17F0AC94B896000E066E240E076EB5
:102E3200F40E086E000E096E14C018F015C019F0D9
:102E420016C01AF017C01BF0060ED89018361936A5
:102E52001A361B36E82E26EF17F018C00AF019C0F2
:102E62000BF01AC00CF01BC00DF0A2EC18F0FF0E14
:102E720006241C6EFF0E07201D6E1CC0AFFF1D50E6
:102E8200B06EAC98AB8EAC8AAB889F8A9F889D8AC5
:102E92009D98120080EC1EF06CEC1FF0000E146E78
:102EA200C20E156E010E166E000E176E94EC16F021
:102EB2006FEC1FF069EC1FF0150E0001C26F4B0E94
:102EC200C16FBE0EE82EFED7C12FFCD7C22FFAD794
:102ED20000F0010E086E060E096E1DEC1DF0D60EF6
:102EE2000001BB6F000EBC6FFEEC0BF00009D8B402
:102EF2007DEF17F07FEF17F0A5EF17F0920E086E37
:102F0200060E096E1DEC1DF0DF0E086E000E096E36
:102F12001DEC1DF0AA0E086E060E096E1DEC1DF0CA
:102F2200A00E086E060E096E1DEC1DF0E60E086E70
:102F3200000E096E1DEC1DF0B80E086E060E096E2D
:102F42001DEC1DF0E7EF17F0830E086E060E096EFA
:102F52001DEC1DF0CDEF17F0410E086E060E096E46
:102F62001DEC1DF0E7EF17F0590E086E060E096E04
:102F72001DEC1DF0E7EF17F0280E086E060E096E25
:102F82001DEC1DF0E7EF17F06F0E086E060E096ECE
:102F92001DEC1DF0E7EF17F00001D651C16FC26BB7
:102FA200C251000AD8B4D8EF17F0C5EF17F0C151DB
:102FB200000AD8B4ADEF17F0020AD8B4B5EF17F093
:102FC200010AD8B4BDEF17F0C5EF17F0290E0001C2
:102FD200C26F960EC16F7F0EE82EFED7C12FFCD7AF
:102FE200C22FFAD770EF17F013EF00F0000E166E33
:102FF200000E156E000E146E000E136E03EF18F025
:103002000D4A0E2A0DC0F6FF0EC0F7FF0800F5505C
:10301200200AD8B40FEF18F011EF18F001EF18F0F2
:10302200F70E0F6EFF0E106E0DC0F6FF0EC0F7FF0B
:103032000800F550116E126A0F501126105012221C
:10304200125009E1050E115CD8A02AEF18F02CEFFE
:1030520018F001EF18F036EF18F0000E146E010EA2
:10306200136E0D4A0E2A6BEF18F00DC0F6FF0EC05C
:10307200F7FF0800F5500F6E106A1050000AD8B41E
:1030820045EF18F06BEF18F00F502B0AD8B432EF5F
:1030920018F0060AD8B42EEF18F06BEF18F015C02E
:1030A20006F016C007F0000E096E0A0E086E56EC06
:1030B2001FF00DC0F6FF0EC0F7FF0800F550065EC8
:1030C200000E075A300E0624156E000E0720166EEB
:1030D20032EF18F0D00E0F6EFF0E106E0DC0F6FF1D
:1030E2000EC0F7FF0800F550116E126A0F5011263C
:1030F20010501222125009E10A0E115CD8A084EF7E
:1031020018F086EF18F050EF18F013501410D8A4EE
:103112008DEF18F08FEF18F09DEF18F015C00FF03B
:1031220016C010F00F1E101E0F4A102A0FC00DF00D
:1031320010C00EF0A1EF18F015C00DF016C00EF081
:103142001200000E0F6E0DBEABEF18F0A9EF18F0D3
:10315200B5EF18F00D1E0C1E0B1E0A6C000E0B2292
:103162000C220D22010E0F6E09BEBCEF18F0BAEF51
:1031720018F0C6EF18F0091E081E071E066C000E96
:10318200072208220922010E0F1A000E106E000EED
:10319200116E000E126E000E136E0A500B100C1000
:1031A2000D10D8B4D7EF18F0D9EF18F00FEF19F0CF
:1031B200010E0E6EE3EF18F0D8900A360B360C367D
:1031C2000D360E2A0DAEE8EF18F0EAEF18F0DDEF3B
:1031D20018F0D89010361136123613360A50065CA3
:1031E2000B5007580C5008580D500958D8A0FCEF46
:1031F20018F0FEEF18F007EF19F00A50065E0B50B8
:10320200075A0C50085A0D50095A1080D8900D32A6
:103212000C320B320A320E2EEAEF18F00F50D8B4ED
:1032220015EF19F017EF19F01FEF19F0131E121E08
:10323200111E106C000E11221222132210C006F071
:1032420011C007F012C008F013C009F012000834D0
:1032520009340F6E0F50D8A431EF19F033EF19F083
:103262003DEF19F0000E066E000E076E000E086E9E
:10327200000E096EAAEF19F006C00AF007C00BF0A3
:1032820008C00CF009C00DF0200E4DEF19F0D890D7
:103292000D320C320B320A32E82E48EF19F00A5086
:1032A2000E6E088EFF0E0616FF0E0716FF0E08168C
:1032B200000E0916960E0F5E0FBE64EF19F062EF54
:1032C20019F07AEF19F00F50800A970FD8B06CEF0F
:1032D20019F06EEF19F070EF19F033EF19F0D89082
:1032E20009320832073206320F3E70EF19F092EFC0
:1032F20019F01F0E0F6480EF19F082EF19F08AEFB8
:1033020019F033EF19F0D890063607360836093629
:103312000F060F50D8A490EF19F092EF19F084EF36
:1033220019F00E50D8B498EF19F09AEF19F0A2EFF5
:1033320019F0091E081E071E066C000E072208223D
:10334200092206C006F007C007F008C008F009C04D
:1033520009F01200000E1F14276E000E2014286EB2
:10336200800E2114296E7F0E22142A6E27502810F7
:1033720029102A10D8A4C0EF19F0C2EF19F0CAEF31
:1033820019F0000E1F6E000E206E000E216E000E50
:10339200226E000E2314276E000E2414286E800E57
:1033A2002514296E7F0E26142A6E27502810291004
:1033B2002A10D8A4DFEF19F0E1EF19F0E9EF19F0C4
:1033C200000E236E000E246E000E256E000E266E79
:1033D20022AEEEEF19F0F0EF19F0F9EF19F01F6CD1
:1033E200201ED8B0202A211ED8B0212A800E2256B3
:1033F20026AEFEEF19F000EF1AF009EF1AF0236C77
:10340200241ED8B0242A251ED8B0252A800E26567E
:10341200000E1F1A000E201A000E211A800E221A08
:10342200000E231A000E241A000E251A800E261AE8
:1034320023501F5C245020582550215826502258D2
:10344200D8B026EF1AF028EF1AF02BEF1AF0D89026
:103452002CEF1AF0D8801200CCC010F0CDC011F0C1
:10346200CEC012F0CFC013F006C010F007C011F0AA
:1034720008C012F009C013F010C00AF011C00BF01E
:1034820012C00CF013C00DF0180E4DEF1AF0D890C8
:103492000D320C320B320A32E82E48EF1AF00A5083
:1034A2000E6E0F6A0E500F10D8A45AEF1AF05CEF8E
:1034B2001AF07CEF1AF0D89010340A6E11340B6EA9
:1034C20012340C6E13340D6E0A500B100C100D10CA
:1034D200D8A46EEF1AF070EF1AF076EF1AF0000E21
:1034E200076E020E066EABEF1AF0000E076E030EA9
:1034F200066EABEF1AF00E280F10D8A483EF1AF065
:1035020085EF1AF0A7EF1AF010C00AF011C00BF005
:1035120012C00CF013C00DF0090ED8900A360B360B
:103522000C360D36E82E8EEF1AF00A500B100C10E6
:103532000D10D8B49FEF1AF0A2EF1AF0010EA3EF0C
:103542001AF0000E066E076AABEF1AF0000E076E55
:10355200040E066E120006C00DF007C00EF008C081
:103562000FF009C010F00A06D8A00B060A2806E1DF
:103572000B28D8A4BFEF1AF0C1EF1AF0CEEF1AF061
:10358200000E076E000E066E16EF1BF00D4A0E2A95
:103592000F4A102A0A06D8A00B060DC0D9FF0EC08A
:1035A200DAFFDF50D8B4D8EF1AF0DAEF1AF005EFED
:1035B2001BF00FC0F6FF10C0F7FF0800F55000091E
:1035C200D8B4E6EF1AF0E8EF1AF005EF1BF00A5054
:1035D2000B10D8B4EFEF1AF0F1EF1AF005EF1BF071
:1035E2000DC0D9FF0EC0DAFFDF500C6E0FC0F6FF20
:1035F20010C0F7FF0800F5500C18D8B403EF1BF009
:1036020005EF1BF0C7EF1AF00DC0D9FF0EC0DAFFAD
:10361200DF500C6E0FC0F6FF10C0F7FF0800F55028
:103622000C5C066E076AD8A0070612000850091043
:10363200D8B41EEF1BF020EF1BF029EF1BF008504F
:103642000910D8A427EF1BF029EF1BF02EEF1BF077
:10365200065071EC1FF07BEF1BF020EE09F00850D2
:10366200D9260950DA22DE50DE10D8B43BEF1BF027
:103672003DEF1BF058EF1BF020EE09F00850D92661
:103682000950DA2210EE03F00850E1260950E22236
:10369200DE50E65CE650800A0E6EDE50800A0E585E
:1036A200D8B056EF1BF058EF1BF07BEF1BF020EE6B
:1036B20003F00850D9260950DA22DECF0AF0DDCF16
:1036C2000BF008C0D9FF09C0DAFFDECF0CF0DDCF66
:1036D2000DF00A500C24D96E0B500D20DA6E06C084
:1036E200DFFF20EE03F00850D9260950DA22DE2A45
:1036F200000EDD221200000E0B6E09BE85EF1BF0DC
:1037020083EF1BF08BEF1BF0086C091ED8B0092A5F
:10371200010E0B6E07BE92EF1BF090EF1BF098EFBD
:103722001BF0066C071ED8B0072A010E0B1A000EFA
:103732000D6E000E0C6E08500910D8B4A3EF1BF0EA
:10374200A5EF1BF0CDEF1BF0010E0A6EADEF1BF0E3
:10375200D890083609360A2A09AEB2EF1BF0B4EF48
:103762001BF0A9EF1BF0D8900C360D360850065C02
:1037720009500758D8A0C0EF1BF0C2EF1BF0C7EFEB
:103782001BF00850065E0950075A0C80D890093287
:1037920008320A2EB4EF1BF00B50D8B4D3EF1BF053
:1037A200D5EF1BF0D9EF1BF00C6C0D1ED8B00D2A13
:1037B2000CC006F00DC007F0120053A0E3EF1BF09F
:1037C200E5EF1BF0EFEF1BF018C00FF019C010F07F
:1037D20016C011F017C012F03CEC1EF01BBEF4EF45
:1037E2001BF0F6EF1BF0FCEF1BF01AC01FF01BC022
:1037F20020F000EF1CF0000E206E000E1F6E000E77
:103802001E6E000E1D6E12EF1CF0000E076E200ED3
:10381200066E16C008F017C009F017EC1BF01D4A1F
:103822001E2A1F501D5C1E50800A1C6E2050800AEA
:103832001C58D8A01FEF1CF021EF1CF006EF1CF063
:1038420053B026EF1CF028EF1CF032EF1CF018C02A
:103852000FF019C010F016C011F017C012F03CECB6
:103862001EF018C006F019C007F0F1EC1EF01F5050
:103872000624166E20500720176E1200000E0B6EE3
:1038820007BE48EF1CF046EF1CF04EEF1CF0066C32
:10389200071ED8B0072A010E0B6E09BE55EF1CF0A9
:1038A20053EF1CF059EF1CF0086C091ED8B0092A1E
:1038B20008500910D8B460EF1CF062EF1CF086EFDC
:1038C2001CF0010E0A6E6AEF1CF0D8900836093619
:1038D2000A2A09AE6FEF1CF071EF1CF066EF1CF0C4
:1038E2000850065C09500758D8A07AEF1CF07CEF0C
:1038F2001CF080EF1CF00850065E0950075AD89061
:10390200093208320A2E71EF1CF00B50D8B48CEF3A
:103912001CF08EEF1CF092EF1CF0066C071ED8B064
:10392200072A06C006F007C007F01200000E0614B0
:103932000E6E000E07140F6E800E0814106E7F0EAE
:103942000914116E0E500F1010101110D8A4ACEF04
:103952001CF0AEEF1CF0B6EF1CF0000E066E000E6F
:10396200076E000E086E000E096E000E0A140E6E2F
:10397200000E0B140F6E800E0C14106E7F0E0D14C1
:10398200116E0E500F1010101110D8A4CBEF1CF0B6
:10399200CDEF1CF0D5EF1CF0000E0A6E000E0B6E80
:1039A200000E0C6E000E0D6E0A5006180FE10B5041
:1039B20007180CE10C50081809E10D500918D8B489
:1039C200E5EF1CF0E7EF1CF0EAEF1CF0D890EBEF0C
:1039D2001CF0D8801200A0C0A4F0A1C0A5F0000E77
:1039E2000001D16F000ED06F0AEF1DF09EC04DF0A6
:1039F2009FC04EF0A40E4F6E000E506EA2C051F04A
:103A0200A3C052F071EC09F04D500001D0274E5086
:103A1200D123A4C0F6FFA5C0F7FF0800F5500009A6
:103A2200D8A416EF1DF018EF1DF0F7EF1CF0D0C070
:103A32009EF0D1C09FF0120033EF1DF008C0F6FFD8
:103A420009C0F7FFF86A050EF76403D00800F550C5
:103A520005D0F6CFE1FFF7CFE2FFE75025EC1FF0EC
:103A6200084A092A08C0F6FF09C0F7FFF86A050EDE
:103A7200F76403D00800F55005D0F6CFE1FFF7CF89
:103A8200E2FFE7500009D8A449EF1DF04BEF1DF00B
:103A92001FEF1DF0120008C00CF009C00DF006C0A7
:103AA2000EF007C00FF00C500A6E0D500B6E0C4A50
:103AB2000D2A0AC0F6FF0BC0F7FFF86A0EC0D9FF45
:103AC2000FC0DAFF0E4A0F2A050EF76403D0080072
:103AD200F55005D0F6CFE1FFF7CFE2FFE750DF6EFA
:103AE200DF50D8A477EF1DF079EF1DF054EF1DF0F1
:103AF2001200D9CF03F0DACF04F09DAA83EF1DF0B4
:103B020085EF1DF08EEF1DF09EAA8AEF1DF08CEF5F
:103B12001DF08EEF1DF05EEC1EF09DA893EF1DF0E0
:103B220095EF1DF09EEF1DF09EA89AEF1DF09CEF01
:103B32001DF09EEF1DF03EEC1FF004C0DAFF03C043
:103B4200D9FF59921100AA0E0001AE6F000EAF6F9D
:103B5200A6C0B0F0A7C0B1F0000EB46F000EB36FF4
:103B6200000EBA6F000EB96FB00E9E6F000E9F6FFF
:103B7200A8C0A0F0A9C0A1F0AE0EA26F000EA36F64
:103B8200ECEC1CF00001B351A625D96EB451A7216B
:103B9200DA6E000EDF6E1200010E0C6E200E061899
:103BA2000710D8B4D7EF1DF0D9EF1DF0F2EF1DF0DA
:103BB200F70E086EFF0E096E06C00AF007C00BF082
:103BC20008500A2609500B220B5009E1050E0A5C27
:103BD200D8A0EEEF1DF0F0EF1DF0F2EF1DF0000E99
:103BE2000C6E0CC006F0076A1200BF0E0E6EFF0EBE
:103BF2000F6E0CC010F00DC011F00E5010260F50B9
:103C02001122115007E11A0E105CD8B00BEF1EF012
:103C12000DEF1EF014EF1EF0200E0C100C6E0D5066
:103C22000D6E18EF1EF00CC00CF00DC00DF012005E
:103C3200000E231A000E241A000E251A800E261AD0
:103C42001FC006F020C007F021C008F022C009F012
:103C520023C00AF024C00BF025C00CF026C00DF0E2
:103C62006FEC0EF006C01FF007C020F008C021F074
:103C720009C022F01200000E156E000E146E4DEFF8
:103C82001EF013C006F0076A11C008F012C009F056
:103C920017EC1BF0144A152A14500F24D96E155034
:103CA2001020DA6EDF50136E1350D8A45BEF1EF0B3
:103CB2005DEF1EF042EF1EF01200ABA263EF1EF0AA
:103CC20065EF1EF067EF1EF0AB98AB88AECF01F048
:103CD20058283F0B026E57500218D8B473EF1EF0EB
:103CE20075EF1EF07FEF1EF0400E5824D96EDA6A8F
:103CF200010EDA2201C0DFFF02C058F01200000EEE
:103D02000F01386F000E396F000E3A6F000E926E7F
:103D1200000E936E800E946E000E896E000E8A6EF7
:103D2200000E8B6E700ED312340E066EF20EE82E5B
:103D3200FED7062EFCD71200BF0E086EFF0E096ECC
:103D420006C00AF007C00BF008500A2609500B22E1
:103D52000B500AE11A0E0A5CD8A0B2EF1EF0B5EFC2
:103D62001EF0010EB6EF1EF0000E066E076A12007C
:103D72000650071008100910D8B4C2EF1EF0C4EFA5
:103D82001EF0CCEF1EF0000E061A000E071A000EEF
:103D9200081A800E091A06C006F007C007F008C00C
:103DA20008F009C009F01200D00E086EFF0E096E6D
:103DB20006C00AF007C00BF008500A2609500B2271
:103DC2000B500AE10A0E0A5CD8A0EAEF1EF0EDEFF2
:103DD2001EF0010EEEEF1EF0000E066E076A1200D4
:103DE20006C008F007C009F0F9EF1EF0064A072ADC
:103DF20006C0D9FF07C0DAFFDF50D8A403EF1FF0D7
:103E020005EF1FF0F7EF1EF00850065C066E095032
:103E12000758076E120001EE00F0D00EEE6AE806B7
:103E2200FDE100EEC3F0290EEE6AE806FDE1586AF4
:103E3200576A566A556A546A536A59905992000EE3
:103E4200F86E00014BEF17F0066E56283F0B076E17
:103E520055500718D8B430EF1FF032EF1FF029EF9A
:103E62001FF0000E5624D96EDA6A010EDA2206C05D
:103E7200DFFF07C056F09D88120055505618D8B47F
:103E820045EF1FF047EF1FF054EF1FF0000E5524CF
:103E9200D96EDA6A010EDA22DF50AD6E55283F0B79
:103EA200556E55EF1FF09D98120006500802F3CF91
:103EB2000AF0F4CF0BF006500902F3500B2607501C
:103EC2000802F3500B260AC006F00BC007F01200DE
:103ED200F28EF28C120094908B801200D08E12001F
:023EE2001200CC
:020000040020DA
:08000000FFFFFFFFFFFFFFFF00
:020000040030CA
:0E000000FF28193CFFB581FF0FC00FE00F4035
:00000001FF
