:04000000E8EF34F001
:1069420012000C6E0C508009066E000EA7EC36F099
:106952000B504009066E000EA7EC36F01200000E36
:106962000F01386F000E396F000E3A6FD3508F0B44
:0A6972006009D36E000E936E120050
:10697D00930F810F0001020304300000000000009E
:10698D000000000000000000000000000001C00336
:10699D00F002C004F0D5EF34F0014A022A01C0D94B
:1069AD00FF02C0DAFFDF50D8A4DFEF34F0E1EF349F
:1069BD00F0D3EF34F00350015C016E045002580225
:1069CD006E12007D0EF66E690EF76E000EF86E00FB
:1069DD00EE93F010EE1DF00900F5CFEEFFE550E15E
:1069ED0050FAE100EE60F0330EEE6AE806FDE100CC
:1069FD000EF86E000146EF39F0000E0E6E000E0D12
:106A0D006E000E066E010EA7EC36F00D4A0E2A0E24
:106A1D00BE1AEF35F0F80E0D5C010E0E58D8A01A07
:106A2D00EF35F01CEF35F007EF35F0000E0B6E0073
:106A3D000EA2EC34F0120014BE2FEF35F0145006F8
:106A4D00E11304D8B02DEF35F02FEF35F03DEF35D4
:106A5D00F013C015F014C016F0151E161E154A16AB
:106A6D002A15C013F016C014F041EF35F013C01302
:106A7D00F014C014F01200000E106E000E0F6E53C5
:106A8D00EF35F00EC001F0026A0CC003F00DC0042A
:106A9D00F0C9EC37F00F4A102A0F500A24D96E10A6
:106AAD00500B20DA6EDF500E6E0E50D8A461EF350C
:106ABD00F063EF35F048EF35F012005C0E0001B0D9
:106ACD006F000EB16F58C0B2F059C0B3F0000EB6E2
:106ADD006F000EB56F000EBC6F000EBB6FB20E5087
:106AED006E000E516E5AC052F05BC053F0B00E5492
:106AFD006E000E556EB7EC35F00001B5515824D926
:106B0D006EB6515920DA6E000EDF6E120010C00BFA
:106B1D00F00F50A2EC34F0000E146E000E136E1335
:106B2D00500D24116E14500E20126E11C0F6FF126E
:106B3D00C0F7FF0800F5CF06F0010EA7EC36F013F5
:106B4D004A142A14BEB4EF35F0F80E135C010E147E
:106B5D0058D8A0B4EF35F0B6EF35F096EF35F0120A
:106B6D000052C056F053C057F0000E00016A6F007E
:106B7D000E696FD5EF35F050C040F051C041F05661
:106B8D000E426E000E436E54C044F055C045F09752
:106B9D00EC3BF040500001692741506A2356C0F686
:106BAD00FF57C0F7FF0800F5500009D8A4E1EF35F5
:106BBD00F0E3EF35F0C2EF35F069C050F06AC05127
:106BCD00F0120015C00BF01450A2EC34F003EF36A8
:106BDD00F012C0F6FF13C0F7FFF86A050EF7640355
:106BED00D00800F55005D0F6CFE9FFF7CFEAFFEF5B
:106BFD00501CEC36F0124A132A12C0F6FF13C0F7E0
:106C0D00FFF86A050EF76403D00800F55005D0F6BD
:106C1D00CFE9FFF7CFEAFFEF500009D8A419EF36FF
:106C2D00F01BEF36F0EFEF35F012000F6E000E0691
:106C3D006E010EA7EC36F0000E116E000E106E6098
:106C4D000E0B6EFF0E0C6E0F50050DBD0E0D6E7DF5
:106C5D000E0E6EF3500D26F4500E2210500D26110F
:106C6D00500E220B500D260C500E220DC0F6FF0EAD
:106C7D00C0F7FF0800F5CF06F0010EA7EC36F010B7
:106C8D004A112A11BE54EF36F0115009E1050E10CC
:106C9D005CD8A054EF36F056EF36F026EF36F00004
:106CAD000E066E010EA7EC36F01200000E176E8B5D
:106CBD00EF36F0105017240B6E0F50A2EC34F0008D
:106CCD000E166E81EF36F01750110216500D24136B
:106CDD006E000E0E20146EF3501326F45014221372
:106CED00C0F6FF14C0F7FF0800F5CF06F0010EA7A0
:106CFD00EC36F0162A1150165CD8A088EF36F08AC3
:106D0D00EF36F06AEF36F0172A12C001F0026A0072
:106D1D000E046E080E036E04EC37F01750136E144C
:106D2D006A0150135C1450800A156E0250800A15CA
:106D3D0058D8A0A4EF36F0A6EF36F060EF36F0127B
:106D4D00000A6E0A04D8A4AEEF36F0B0EF36F0C4E8
:106D5D00EF36F066C007F0010E086E072AB9EF3660
:106D6D00F0D8900836072EB7EF36F062C0D9FF6322
:106D7D00C0DAFF0850DF12D9EF36F066C007F00118
:106D8D000E086E072ACDEF36F0D8900836072ECBB9
:106D9D00EF36F00850FF0A096E62C0D9FF63C0DA02
:106DAD00FF0950DF1665C007F0010E086E072AE2D5
:106DBD00EF36F0D8900836072EE0EF36F00850FF8A
:106DCD000A096E62C0D9FF63C0DAFF0950DF1606EB
:106DDD00502EEC38F065C007F0010E086E072AFA48
:106DED00EF36F0D8900836072EF8EF36F062C0D99E
:106DFD00FF63C0DAFF0850DF121200000E066E04AA
:106E0D00BE0DEF37F00BEF37F013EF37F0036C04D7
:106E1D001ED8B0042A010E066E02BE1AEF37F01806
:106E2D00EF37F020EF37F0016C021ED8B0022A01C7
:106E3D000E061A000E086E000E076E03500410D8D1
:106E4D00B42BEF37F02DEF37F055EF37F0010E057E
:106E5D006E35EF37F0D89003360436052A04AE3A76
:106E6D00EF37F03CEF37F031EF37F0D890073608B9
:106E7D00360350015C04500258D8A048EF37F04A51
:106E8D00EF37F04FEF37F00350015E0450025A0711
:106E9D0080D89004320332052E3CEF37F00650D8DF
:106EAD00B45BEF37F05DEF37F061EF37F0076C084B
:106EBD001ED8B0082A07C001F008C002F012000069
:106ECD00016FA16CEF37F06EEF37F078EF37F013FD
:106EDD00C00AF014C00BF011C00CF012C00DF0423E
:106EED00EC35F016BE7DEF37F07FEF37F085EF37DD
:106EFD00F015C01AF016C01BF089EF37F0000E1B0D
:106F0D006E000E1A6E000E196E000E186E9BEF3786
:106F1D00F0000E026E200E016E11C003F012C004BF
:106F2D00F0C9EC37F0184A192A1A50185C1950801C
:106F3D000A176E1B50800A1758D8A0A8EF37F0AA71
:106F4D00EF37F08FEF37F000016FB1B0EF37F0B2E0
:106F5D00EF37F0BCEF37F013C00AF014C00BF0118F
:106F6D00C00CF012C00DF042EC35F013C001F0145E
:106F7D00C002F0CDEC34F01A500124116E1B5002FA
:106F8D0020126E120003500410D8B4D0EF37F0D297
:106F9D00EF37F0DBEF37F003500410D8A4D9EF37FB
:106FAD00F0DBEF37F0E0EF37F00150A1EC34F02DCE
:106FBD00EF38F020EE09F00350D9260450DA22DE26
:106FCD0050DE10D8B4EDEF37F0EFEF37F00AEF38B1
:106FDD00F020EE09F00350D9260450DA2210EE030A
:106FED00F00350E1260450E222DE50E65CE65080CC
:106FFD000A096EDE50800A0958D8B008EF38F00A39
:10700D00EF38F02DEF38F020EE03F00350D92604C1
:10701D0050DA22DECF05F0DDCF06F003C0D9FF0434
:10702D00C0DAFFDECF07F0DDCF08F005500724D919
:10703D006E06500820DA6E01C0DFFF20EE03F0036C
:10704D0050D9260450DA22DE2A000EDD2212000469
:10705D006E000E056E68C001F0010E026E012A3A37
:10706D00EF38F0D8900236012E38EF38F00250FF8D
:10707D000A036E62C0D9FF63C0DAFF0350DF160446
:10708D00BE4BEF38F04DEF38F064EF38F067C001CC
:10709D00F0010E026E012A56EF38F0D8900236013B
:1070AD002E54EF38F00250FF0A036E62C0D9FF6311
:1070BD00C0DAFF0350DF1676EF38F067C001F0013C
:1070CD000E026E012A6DEF38F0D8900236012E6B4C
:1070DD00EF38F062C0D9FF63C0DAFF0250DF1268EB
:1070ED00C001F0010E026E012A7FEF38F0D8900238
:1070FD0036012E7DEF38F062C0D9FF63C0DAFF0292
:10710D0050DF12D8900436052A070E056491EF382A
:10711D00F093EF38F031EF38F01200000E126E08D8
:10712D00BE9DEF38F09BEF38F0AFEF38F0081E073B
:10713D001E061E051E041E031E021E016C000E02FD
:10714D0022032204220522062207220822010E1202
:10715D006E10BEB6EF38F0B4EF38F0C6EF38F01061
:10716D001E0F1E0E1E0D1E0C1E0B1E0A1E096C0080
:10717D000E0A220B220C220D220E220F22102209A2
:10718D00500A100B100C100D100E100F101010D8FF
:10719D00B4D3EF38F0D5EF38F01DEF39F0010E1103
:1071AD006EE3EF38F0D89009360A360B360C360DF3
:1071BD00360E360F361036112A10AEE8EF38F0EADB
:1071CD00EF38F0D9EF38F00950015C0A5002580B36
:1071DD005003580C5004580D5005580E5006580FBA
:1071ED0050075810500858D8A0FFEF38F001EF396C
:1071FD00F011EF39F00950015E0A50025A0B50039D
:10720D005A0C50045A0D50055A0E50065A0F50077D
:10721D005A1050085AD89010320F320E320D320CCF
:10722D00320B320A320932112EEAEF38F01250D8F1
:10723D00B423EF39F025EF39F035EF39F0081E079B
:10724D001E061E051E041E031E021E016C000E02EC
:10725D002203220422052206220722082201C00150
:10726D00F002C002F003C003F004C004F005C00535
:10727D00F006C006F007C007F008C008F01200B015
:10728D00EC34F020EE93F000EE0BF0080EDBCFEBBC
:10729D00FFE806FCE2CBEC3AF003EC35F01A0E5E9B
:1072AD006EF80EE82EFED75E2EFCD700D0C50E0D63
:1072BD006E7B0E0E6E000E0F6E000E106E8DEC3589
:1072CD00F0150E5F6E4B0E5E6EBE0EE82EFED75E97
:1072DD002EFCD75F2EFAD700D003EC35F0CA0E1274
:1072ED006E7F0E136E000E146E000E156EE8EC35EB
:1072FD00F0E30E126E7F0E136E000E146E010E155E
:10730D006EE8EC35F0D70E126E7F0E136E000E1474
:10731D006E020E156EE8EC35F0BD0E126E7F0E137B
:10732D006E000E146E030E156EE8EC35F0150E5F43
:10733D006E4B0E5E6EBE0EE82EFED75E2EFCD75F38
:10734D002EFAD700D003EC35F09D0E0D6E7F0E0E8C
:10735D006E280E0F6E030E106E100E116E100E12A3
:10736D006E5CEC36F00001714B722BD20E715D0428
:10737D000E7259D8A0C5EF39F0C7EF39F0CBEF3900
:10738D00F0000E726F000E716FEE0E126E7F0E1307
:10739D006E000E146E000E156EE8EC35F09C0E5856
:1073AD006E000E596EFB0E5A6E7F0E5B6E71C05CD9
:1073BD00F072C05DF064EC35F0F60E126E7F0E13B8
:1073CD006E140E146E010E156EE8EC35F09C0E1257
:1073DD006E000E136E140E146E010E156EE8EC3564
:1073ED00F0030E5F6E080E5E6E770EE82EFED75E12
:1073FD002EFCD75F2EFAD700F0B9EF39F000EF0071
:10740D00F0000E126E10BE10EF3AF00EEF3AF022B1
:10741D00EF3AF0101E0F1E0E1E0D1E0C1E0B1E0A37
:10742D001E096C000E0A220B220C220D220E220FB9
:10743D00221022010E126E08BE29EF3AF027EF3A04
:10744D00F03BEF3AF0081E071E061E051E041E0334
:10745D001E021E016C000E022203220422052206CA
:10746D002207220822010E121A20EE13F0070EDE5B
:10747D006AE806FDE209500A100B100C100D100EF3
:10748D00100F101010D8B44EEF3AF050EF3AF0A2A2
:10749D00EF3AF0010E116E5EEF3AF0D89009360A10
:1074AD00360B360C360D360E360F361036112A10B9
:1074BD00AE63EF3AF065EF3AF054EF3AF0D890132F
:1074CD00361436153616361736183619361A360955
:1074DD0050015C0A5002580B5003580C5004580DC3
:1074ED005005580E5006580F50075810500858D8D0
:1074FD00A083EF3AF085EF3AF096EF3AF00950019C
:10750D005E0A50025A0B50035A0C50045A0D500586
:10751D005A0E50065A0F50075A1050085A1380D859
:10752D009010320F320E320D320C320B320A3209FC
:10753D0032112E65EF3AF01250D8B4A8EF3AF0AAF6
:10754D00EF3AF0BAEF3AF01A1E191E181E171E1652
:10755D001E151E141E136C000E1422152216221752
:10756D0022182219221A2213C001F014C002F0159C
:10757D00C003F016C004F017C005F018C006F019CE
:10758D00C007F01AC008F0120020EE0BF010EE60EC
:10759D00F0080EDBCFE3FFE806FCE264C014F00157
:1075AD000E156E142ADDEF3AF0D8901536142EDB39
:1075BD00EF3AF01550FF0A166E60C0D9FF61C0DAC0
:1075CD00FF1650DF1665C014F0010E156E142AF269
:1075DD00EF3AF0D8901536142EF0EF3AF01550FF23
:1075ED000A166E60C0D9FF61C0DAFF1650DF16664D
:1075FD00C014F0010E156E142A07EF3BF0D890154C
:10760D0036142E05EF3BF01550FF0A166E60C0D9EB
:10761D00FF61C0DAFF1650DF1667C014F0010E15BA
:10762D006E142A1CEF3BF0D8901536142E1AEF3B32
:10763D00F01550FF0A166E60C0D9FF61C0DAFF1653
:10764D0050DF1668C014F0010E156E142A31EF3B91
:10765D00F0D8901536142E2FEF3BF01550FF0A166B
:10766D006E60C0D9FF61C0DAFF1650DF1665C01419
:10767D00F0010E156E142A46EF3BF0D89015361416
:10768D002E44EF3BF062C0D9FF63C0DAFF1550DF27
:10769D001264C014F0010E156E142A58EF3BF0D889
:1076AD00901536142E56EF3BF01550FF0A166E62EC
:1076BD00C0D9FF63C0DAFF1650DF1600F000F0648A
:1076CD00C014F0010E156E142A6FEF3BF0D8901513
:1076DD0036142E6DEF3BF062C0D9FF63C0DAFF1593
:1076ED0050DF12210E066E000EA7EC36F0B00E061E
:1076FD006E000EA7EC36F0040E066E000EA7EC36EB
:10770D00F0140E066E000EA7EC36F0200E066E007D
:10771D000EA7EC36F00C0E066E000EA7EC36F0122E
:10772D000042C0D9FF43C0DAFFDECFF6FFDDCFF751
:10773D00FF0800F550250AD8A4A7EF3BF0A9EF3BB1
:10774D00F055EF3CF042C0D9FF43C0DAFFDE2A000E
:10775D000EDD22000E00016C6F000E6B6F6BC06FA3
:10776D00F06CC070F06D696E6942C0D9FF43C0DA2C
:10777D00FFDECFF6FFDDCFF7FF0800F550640AD826
:10778D00B4CBEF3BF0CDEF3BF0DFEF3BF042C0D998
:10779D00FF43C0DAFFDECFF6FFDDCFF7FF0800F5C0
:1077AD0050690AD8A4DDEF3BF0DFEF3BF01FEF3C53
:1077BD00F042C0D9FF43C0DAFFDE2A000EDD2244BD
:1077CD00C0D9FF45C0DAFFDFCF46F0020EDE26DF5F
:1077DD00CF47F0000EDD2246C0D9FF47C0DAFFDEED
:1077ED00CF48F0DDCF49F0000E49BEFF0E4A6E4B7B
:1077FD006E4C6E4D6E4E6E4F6E40C01CF041C01DF6
:10780D00F048C01EF049C01FF04AC020F04BC02107
:10781D00F04CC022F04DC023F04EC024F04FC025D7
:10782D00F071EC3CF01CC040F01DC041F070EF3C1D
:10783D00F042C0D9FF43C0DAFFDECFF6FFDDCFF750
:10784D00FF0800F550250AD8A42FEF3CF031EF3C8E
:10785D00F048EF3CF042C0D9FF43C0DAFFDE2A000A
:10786D000EDD22000E026E250E016E40C003F041AA
:10787D00C004F0C9EC37F0000E416E010E406E7081
:10788D00EF3CF042C0D9FF43C0DAFFDE2A000EDD27
:10789D0022000E416E000E406E70EF3CF042C0D9DA
:1078AD00FF43C0DAFFDECFF6FFDDCFF7FF0800F5AF
:1078BD0050016E026A40C003F041C004F0C9EC37BC
:1078CD00F042C0D9FF43C0DAFFDE2A000EDD2242AE
:1078DD00EF3CF012001EC036F01FC037F020C0384C
:1078ED00F021C039F022C03AF023C03BF024C03C57
:1078FD00F025C03DF03DBE86EF3CF089EF3CF00138
:10790D000E8AEF3CF0000E346E356A34503510D8C7
:10791D00B493EF3CF095EF3CF0A5EF3CF03D1E3CF1
:10792D001E3B1E3A1E391E381E371E366C000E3792
:10793D0022382239223A223B223C223D2200016E7E
:10794D00BFABEF3CF0ADEF3CF0AEEF3CF06F936EA4
:10795D00BFBBEF3CF06E5106E16D05D8B0B9EF3C01
:10796D00F0BBEF3CF0C1EF3CF0000E316E010E307C
:10797D006EC5EF3CF06DC030F06EC031F06BC032B3
:10798D00F06CC033F034503510D8A4D0EF3CF0D2A9
:10799D00EF3CF0D9EF3CF06FA5D7EF3CF0D9EF3CC1
:1079AD00F0DCEF3CF03206D8A03306000E3F6E1F20
:1079BD000E3E6E000E926F60EF3DF03E06D8A03F7A
:1079CD0006730E3E24D96E000E3F20DA6E36C001CE
:1079DD00F037C002F038C003F039C004F03AC005EA
:1079ED00F03BC006F03CC007F03DC008F00A0E09A0
:1079FD006E000E0A6E000E0B6E000E0C6E000E0D5C
:107A0D006E000E0E6E000E0F6E000E106E94EC38A2
:107A1D00F001C026F002C027F003C028F004C029F1
:107A2D00F005C02AF006C02BF007C02CF008C02DC1
:107A3D00F026C013F028C014F022EC35F0135030AE
:107A4D000FDF6E3006D8A031063206D8A0330636C9
:107A5D00C001F037C002F038C003F039C004F03A6D
:107A6D00C005F03BC006F03CC007F03DC008F00A71
:107A7D000E096E000E0A6E000E0B6E000E0C6E00DF
:107A8D000E0D6E000E0E6E000E0F6E000E106E07B8
:107A9D00EC3AF001C036F002C037F003C038F00404
:107AAD00C039F005C03AF006C03BF007C03CF00805
:107ABD00C03DF03FBE6BEF3DF03F5008E13E04D8B6
:107ACD00A06BEF3DF06DEF3DF09EEF3DF036503782
:107ADD0010381039103A103B103C103D10D8A47AD4
:107AED00EF3DF07CEF3DF0E4EF3CF031BE89EF3D32
:107AFD00F0315006E13004D8B087EF3DF089EF3D0D
:107B0D00F0E4EF3CF033BE94EF3DF0335008E1323A
:107B1D0004D8A094EF3DF096EF3DF09EEF3DF000C0
:107B2D00016FB39CEF3DF09EEF3DF0E4EF3CF03480
:107B3D00503510D8A4A5EF3DF0A7EF3DF0AFEF3DC8
:107B4D00F000016FA5ADEF3DF0AFEF3DF0CDEF3D96
:107B5D00F03E06D8A03F0634503510D8A4B9EF3DFD
:107B6D00F0BBEF3DF0C1EF3DF0000E2F6E2B0E2E52
:107B7D006EC5EF3DF0000E2F6E2D0E2E6E730E3E68
:107B8D0024D96E000E3F20DA6E2EC0DFFF1CC0110F
:107B9D00F01DC012F0730E3E24136E000E3F201424
:107BAD006E32C015F033C016F066EC37F011C01C04
:107BBD00F012C01DF0120000FF01FDFDFD0D0D0DB9
:107BCD000D0D0D0D0D0D0DCDCDCDCDCDCDCDCDCD18
:107BDD00CDCDCDFDFDFDFD3D3D1D1D0D0D0D2DED48
:107BED00EDCDDD1D7DFDFDFDFDFDFDFDFDFD0D0D58
:107BFD000D0D0D0D0D0D0D0D0D0DEDEDEDEDCDDD98
:107C0D00DD9D3D7DFDFDFDFDFDFD01FFFF00FFFF48
:107C1D00FF00000000000000000000E7E7E7E7E7D5
:107C2D00E7E7E7E7E7E7E7FFFFFFF0800000000089
:107C3D00000000010F0F67F0FCFFFFFF7F7F7F7FCC
:107C4D00FFFF000000000000000000000000FFFF2B
:107C5D00FFFFFFFFFFFFFFFE00071FFFFFFF00FFFE
:107C6D00FF00FFFFFF00000000000000000000FF0C
:107C7D00FFFFFFFFFFFFFFFFFFFFFFFF0F07C1F834
:107C8D00FEF8E0C0000000000000000007071178BA
:107C9D00FEFFFFFFFFFF00000000000000000000DE
:107CAD0000001F3F7F7F7F3FBF9FCFC7F0F8FEFFD4
:107CBD00FFFF00FFFF00FFFFFFE0E0E0E0E0E0E09E
:107CCD00E0E0E0E7E7E7E7E7E7E7E7E7E7E7E7FF34
:107CDD00FEF0F1E7EFEFEFEFE7F6F0F0E0E0E0E0D8
:107CED00E0E0E0E0E0E1EFEFFFFFE0E0E0E0E0E02A
:107CFD00E0E0E0E0E0E0FFFFFEF8F9F1F7E7E7EFA5
:107D0D00EFFFFFFFFFFF00FFFF00FFFFFFFFFF8300
:107D1D00FF83FFFF03C73FC703FFFF0FEFEFFF0712
:107D2D00FBFBFB77FFFF03EFEF0FFFFF0FFFFF0FD6
:107D3D00FFFF0FEFEF0FFFFF0FEF4FFFFF03BF4FE2
:107D4D00FFFF0FFFFF0FFFFF0FAF8FFFFF0FAF8F76
:107D5D00FFFF83FF83FFFFFFFFFF00FFFF80BFBF1C
:107D6D00BFBFBFBEBFBEBFBFBEBFBEBFBEBFBFBE1C
:107D7D00BFBFBFBFBEBEBEBFBFBFBEBFBFBEBFBF0B
:107D8D00BEBEBEBEBFBFBEBFBFBEBFBFBEBEBEBFFF
:107D9D00BFBEBFBEBEBFBEBEBEBEBFBFBEBEBEBFF0
:107DAD00BFBEBEBEBFBFBEBFBEBFBFBFBFBF80FFDA
:107DBD00000000000000005F000000070007001435
:107DCD007F147F14242A7F2A1223130864623649F4
:107DDD005522500005030000001C224100004122E5
:107DED001C0014083E081408083E08080050300016
:107DFD000008080808080060600000201008040250
:107E0D003E5149453E00427F400042615149462165
:107E1D0041454B311814127F1027454545393C4AD1
:107E2D004949300171090503364949493606494921
:107E3D00291E003636000000563600000814224177
:107E4D0000141414141400412214080201510906DF
:107E5D00324979413E7E1111117E7F494949363EA5
:107E6D00414141227F4141221C7F494949417F09BE
:107E7D000909013E4149497A7F0808087F00417F81
:107E8D0041002040413F017F081422417F40404086
:107E9D00407F020C027F7F0408107F3E4141413E2E
:107EAD007F090909063E4151215E7F091929464680
:107EBD004949493101017F01013F4040403F1F20A9
:107ECD0040201F3F4038403F63140814630708707B
:107EDD0008076151494543007F41410002040810E4
:107EED00200041417F000402010204404040404017
:107EFD00000102040020545454787F48444438381B
:107F0D0044444420384444487F3854545418087E1F
:107F1D000901020C5252523E7F0804047800447D40
:107F2D0040002040443D007F1028440000417F4028
:107F3D00007C041804787C080404783844444438E0
:107F4D007C14141408081414187C7C0804040848C4
:107F5D0054545420043F4440203C4040207C1C207D
:107F6D0040201C3C4030403C44281028440C5050CC
:107F7D00503C4464544C44000836410000007F00DE
:107F8D000000413608001008081008784641467870
:107F9D00FC0701003C243C0080007C44447C000133
:107FAD001F70C0800E382061414060223A0E82C29F
:107FBD004D504C414258202620584338004C6962A0
:107FCD007265726961204C4344004D724368756E51
:107FDD00636B756565004E6F6B69612035313130AE
:107FED0000436F6E74656F3A0020202020002564D9
:027FFD00000082
:020000040020DA
:08000000FFFFFFFFFFFFFFFF00
:020000040030CA
:0E000000FF28193CFFB581FF0FC00FE00F4035
:00000001FF
