:04000000BFEF1EF040
:10060000004572726F7220446573636F6E6F636929
:10061000646F00444854323253656E736F722054D5
:100620006573740046756572612064652052616E61
:10063000676F004D724368756E636B756565212148
:100640000053656E736F72204572726F723A00428A
:10065000616420436865636B73756D004E6F205253
:100660006573706F6E64650048756D653A2000545F
:10067000656D703A200025322E316600494E4600E5
:100680004E414E00696E66006E616E006C66002021
:050690002500430000FD
:10069600000E0001756F000E746F3EC086F03FC0FD
:1006A60087F040C088F041C089F089BF5FEF03F052
:1006B6005DEF03F075EF03F0000E756F010E746FBA
:1006C60086C001F087C002F088C003F089C004F03C
:1006D60056EC1FF001C086F002C087F003C088F018
:1006E60004C089F0000E00018D6F000E8C6FE4C00F
:1006F60078F0E5C079F074517511D8A485EF03F050
:1007060087EF03F08EEF03F0E8A58CEF03F08EEF92
:1007160003F0A8EF03F074517511D8A495EF03F018
:1007260097EF03F09DEF03F0000E616F2B0E606FE5
:10073600A1EF03F0000E616F2D0E606F60C000F137
:100746008C4B8D2B7807D8A0790786C001F087C01F
:1007560002F088C003F089C004F03CEC1AF00104F2
:100766000210D8A4B9EF03F0BBEF03F006EF04F0D4
:10077600BF0E436EFF0E446E4250456E466A4350AE
:10078600452644504622465007E11A0E455CD8B02D
:10079600CFEF03F0D1EF03F0E0EF03F0000E00011E
:1007A6008C25016E010E8D21026E7C0E036E060EE7
:1007B600046ED7EC1DF0EDEF03F0000E00018C2562
:1007C600016E010E8D21026E840E036E060E046EFE
:1007D600D7EC1DF00001FD0E7827FF0E79233CC0F3
:1007E60011F03DC012F0000E136E010E146E78C0AB
:1007F60015F079C016F08BEC1BF011C03CF012C05E
:100806003DF051EF09F086C001F087C002F088C0C4
:1008160003F089C004F03CEC1AF001500210D8A491
:1008260017EF04F019EF04F04DEF04F0BF0E436E1E
:10083600FF0E446E4250456E466A4350452644506C
:100846004622465007E11A0E455CD8B02DEF04F05B
:100856002FEF04F03EEF04F0000E00018C25016E30
:10086600010E8D21026E800E036E060E046ED7EC0D
:100876001DF0EDEF03F0000E00018C25016E010E58
:100886008D21026E880E036E060E046ED7EC1DF0E7
:10089600EDEF03F0000E00018E6F000E8F6F800EDD
:1008A600906F3F0E916F000E8B6F000E8A6F86C0A1
:1008B60001F087C002F088C003F089C004F0000E82
:1008C600056E000E066E000E076E000E086EA8EC92
:1008D6001CF0D8B071EF04F073EF04F0F6EF04F0FB
:1008E60092EF04F08EC001F08FC002F090C003F0CA
:1008F60091C004F0000E056E000E066E200E076E07
:10090600410E086E9AEC10F001C08EF002C08FF016
:1009160003C090F004C091F000018A4B8B2B86C077
:100926001AF087C01BF088C01CF089C01DF0000EAD
:10093600056E000E066E200E076E410E086E8EC006
:1009460001F08FC002F090C003F091C004F09AEC61
:1009560010F001C01EF002C01FF003C020F004C05A
:1009660021F0BAEC19F0D8B0BBEF04F0BDEF04F0FB
:1009760075EF04F0DDEF04F08EC00FF08FC010F0BD
:1009860090C011F091C012F0000E136E000E146E9E
:10099600200E156E410E166EAFEC12F00FC08EF0E3
:1009A60010C08FF011C090F012C091F000018A07BC
:1009B600D8A08B0786C01AF087C01BF088C01CF031
:1009C60089C01DF08EC01EF08FC01FF090C020F0B1
:1009D60091C021F0BAEC19F0D8A0F4EF04F0F6EFCC
:1009E60004F0BFEF04F042C007F0086A57EC1EF0AF
:1009F600075000017B6F7BC07AF0670E7B19D8A485
:100A060007EF05F009EF05F02FEF05F0E651E711C6
:100A1600D8A410EF05F012EF05F016EF05F0000E62
:100A2600E76F010EE66FE7BF23EF05F0E75106E13A
:100A3600E605D8B021EF05F023EF05F029EF05F024
:100A4600000E776F060E766F38EF05F0E6C076F08B
:100A5600E7C077F038EF05F0E7BF34EF05F036EF83
:100A660005F023EF05F029EF05F0670E7B19D8A4F2
:100A76003FEF05F041EF05F070EF05F08BAF4FEF5C
:100A860005F0FC0E8A5DFF0E8B59D8A04DEF05F0E0
:100A96004FEF05F06EEF05F0FF0E436EFF0E446E4E
:100AA60076C045F077C046F043504526445046226E
:100AB6008A51455C4650800A476E8B51800A4758DA
:100AC600D8A068EF05F06AEF05F06EEF05F0660E48
:100AD6007A6F70EF05F0650E7A6F76C06CF077C0AE
:100AE6006DF0670E7B19D8A47BEF05F07DEF05F05E
:100AF6008DEF05F0660E7A19D8A484EF05F086EF1F
:100B060005F08FEF05F08BBF8DEF05F08BEF05F04D
:100B16008FEF05F06C4B6D2B660E7A19D8A496EF05
:100B260005F098EF05F0B8EF05F08BBF9FEF05F0E5
:100B36009DEF05F0ABEF05F0000E8E6F000E8F6F88
:100B4600800E906F3F0E916F000E8B6F000E8A6FB6
:100B5600670E7B19D8B4B2EF05F0B4EF05F0B8EF25
:100B660005F08A516C278B516D23000E856F000EA0
:100B7600846F86C07CF087C07DF088C07EF089C017
:100B86007FF08EC06EF08FC06FF090C070F091C095
:100B960071F049EF06F07CC00FF07DC010F07EC00A
:100BA60011F07FC012F08EC013F08FC014F090C009
:100BB60015F091C016F0AFEC12F00FC028F010C07F
:100BC60029F011C02AF012C02BF07CEC14F028C0DA
:100BD60080F029C081F02AC082F02BC083F080C04B
:100BE60001F081C002F082C003F083C004F037EC4C
:100BF60019F001C072F002C073F07CC01AF07DC01B
:100C06001BF07EC01CF07FC01DF08EC005F08FC0AB
:100C160006F090C007F091C008F080C001F081C0D6
:100C260002F082C003F083C004F09AEC10F001C019
:100C36001EF002C01FF003C020F004C021F07AECC1
:100C46001EF01AC07CF01BC07DF01CC07EF01DC0DB
:100C56007FF08EC00FF08FC010F090C011F091C0E1
:100C660012F0000E136E000E146E200E156E410E5D
:100C7600166EAFEC12F00FC08EF010C08FF011C0E0
:100C860090F012C091F00001844B852B6C51845D6D
:100C96008551800A436E6D51800A4358D8A056EF9D
:100CA60006F058EF06F0CEEF05F08EC001F08FC0CB
:100CB60002F090C003F091C004F0000E056E000E25
:100CC600066EA00E076E400E086E9AEC10F001C07C
:100CD60080F002C081F003C082F004C083F07CC0C3
:100CE6001AF07DC01BF07EC01CF07FC01DF080C0D6
:100CF6001EF081C01FF082C020F083C021F0BAEC44
:100D060019F0D8B089EF06F08BEF06F096EF06F0F3
:100D1600000E0001806F000E816F000E826F000EC4
:100D2600836FBFEF06F07CC001F07DC002F07EC08D
:100D360003F07FC004F080C005F081C006F082C0D9
:100D460007F083C008F0A8EC1CF0D8A0ADEF06F0C1
:100D5600AFEF06F0BFEF06F0000172B1B5EF06F097
:100D6600B7EF06F0BFEF06F0000E806F000E816F42
:100D7600000E826F000E836F86C001F087C002F0FE
:100D860088C003F089C004F080C005F081C006F079
:100D960082C007F083C008F03AEC0EF001C07CF088
:100DA60002C07DF003C07EF004C07FF07CC01AF064
:100DB6007DC01BF07EC01CF07FC01DF0000E056ECE
:100DC600000E066E200E076E410E086E6EC001F014
:100DD6006FC002F070C003F071C004F09AEC10F01E
:100DE60001C01EF002C01FF003C020F004C021F0B5
:100DF600BAEC19F0D8A002EF07F004EF07F02DEFD8
:100E060007F000018A4B8B2B6EC001F06FC002F019
:100E160070C003F071C004F0000E056E000E066E81
:100E2600200E076E410E086E9AEC10F001C06EF0AF
:100E360002C06FF003C070F004C071F0660E0001CE
:100E46007A19D8A429EF07F02BEF07F02DEF07F05A
:100E56006C4B6D2B6EC08EF06FC08FF070C090F033
:100E660071C091F0650E00017A19D8B43DEF07F014
:100E76003FEF07F045EF07F08AC06AF08BC06BF0D2
:100E860049EF07F0000E6B6F000E6A6F000E696F78
:100E9600000E686F000E676F000E666F000E856F9E
:100EA600000E846F44EF08F07CC00FF07DC010F098
:100EB6007EC011F07FC012F08EC013F08FC014F008
:100EC60090C015F091C016F0AFEC12F00FC028F0EC
:100ED60010C029F011C02AF012C02BF07CEC14F0DF
:100EE60028C080F029C081F02AC082F02BC083F090
:100EF60080C001F081C002F082C003F083C004F01C
:100F060037EC19F001C072F002C073F00001E8B9C5
:100F16008FEF07F091EF07F0AEEF07F07251731104
:100F2600D8A498EF07F09AEF07F0AEEF07F0670E38
:100F36007B19D8A4A1EF07F0A3EF07F0AEEF07F0F7
:100F46006BBFAAEF07F0A8EF07F0AEEF07F0664B0E
:100F5600672BF8EF07F068516911D8A4B5EF07F0D1
:100F6600B7EF07F0E1EF07F06BBFBEEF07F0BCEF9E
:100F760007F0E1EF07F0000E8C25D96E010E8D21EA
:100F8600DA6E2E0EDF6E8C4B8D2B7807D8A0790784
:100F9600000E696F010E686FE1EF07F0000E8C25F9
:100FA600D96E010E8D21DA6E300EDF6E8C4B8D2BD5
:100FB6007807D8A079076607D8A067076651671132
:100FC600D8A4E8EF07F0EAEF07F0D1EF07F0000E3C
:100FD6008C25D96E010E8D21DA6E7251300FDF6EBF
:100FE6008C4B8D2B7807D8A079077CC01AF07DC072
:100FF6001BF07EC01CF07FC01DF08EC005F08FC0B8
:1010060006F090C007F091C008F080C001F081C0E2
:1010160002F082C003F083C004F09AEC10F001C025
:101026001EF002C01FF003C020F004C021F07AECCD
:101036001EF01AC07CF01BC07DF01CC07EF01DC0E7
:101046007FF08EC00FF08FC010F090C011F091C0ED
:1010560012F0000E136E000E146E200E156E410E69
:10106600166EAFEC12F00FC08EF010C08FF011C0EC
:1010760090F012C091F000016A07D8A06B07844B6C
:10108600852B6C51845D8551800A436E6D51800AB3
:101096004358D8B051EF08F053EF08F061EF08F06D
:1010A6008DBF5FEF08F08D5109E14B0E8C5DD8A026
:1010B6005FEF08F061EF08F057EF07F0685169112C
:1010C600D8A468EF08F06AEF08F07BEF08F0E8A90B
:1010D6006FEF08F071EF08F07BEF08F0000E8C253B
:1010E600D96E010E8D21DA6E2E0EDF6E8C4B8D2B96
:1010F600000E8C25D96E010E8D21DA6E000EDF6E84
:10110600650E7A19D8A48AEF08F08CEF08F0F2EF92
:1011160003F0000E856F4F0E846F000E8425D96E86
:10112600010E8521DA6E000EDF6E000E756F000E61
:10113600746F8BBFA3EF08F0A1EF08F0ABEF08F0D8
:10114600000E756F010E746F8A6D8B1FD8B08B2BD6
:10115600000E776F020E766FDCEF08F08407D8A0DA
:101166008507000E8425D96E010E8521DA6E8AC0A8
:1011760001F08BC002F0000E046E0A0E036E50ECF6
:101186001CF00150300FDF6E8AC001F08BC002F0F8
:10119600000E046E0A0E036EEEEC1BF001C08AF020
:1011A60002C08BF000017607D8A077077807D8A091
:1011B60079078A518B11D8A4E3EF08F0E5EF08F020
:1011C600B1EF08F077BFF2EF08F0775106E1760548
:1011D600D8B0F0EF08F0F2EF08F0B1EF08F08407AE
:1011E600D8A0850774517511D8A4FCEF08F0FEEF5E
:1011F60008F004EF09F0000E636F2B0E626F08EF24
:1012060009F0000E636F2D0E626F000E8425D96EF5
:10121600010E8521DA6E62C0DFFF7807D8A0790754
:101226008407D8A08507BF0E436EFF0E446E42505A
:10123600456E466A4350452644504622465009E1CB
:101246001A0E455CD8A02AEF09F02CEF09F032EF10
:1012560009F0000E656F650E646F36EF09F0000E3B
:10126600656F450E646F000E8425D96E010E8521CB
:10127600DA6E64C0DFFF7807D8A07907000E8C25E8
:10128600016E010E8D21026E000E8425036E010E85
:101296008521046ED7EC1DF0F2EF03F012004AC070
:1012A600D9FF4BC0DAFFDECFF6FFDDCFF7FF080030
:1012B600F550250AD8A462EF09F064EF09F0BEEFF5
:1012C6000BF04AC0D9FF4BC0DAFFDE2A000EDD2242
:1012D600000E0001E56F000EE46FE4C0E8F0E5C023
:1012E600E9F0E669E7694AC0D9FF4BC0DAFFDECF0D
:1012F600F6FFDDCFF7FF0800F5502A0AD8A486EFDF
:1013060009F088EF09F0B1EF09F04AC0D9FF4BC0E8
:10131600DAFFDE2A000EDD224CC0D9FF4DC0DAFF0F
:10132600DFCF4EF0020EDE26DFCF4FF0000EDD22BD
:101336004EC0D9FF4FC0DAFFDECFE4F0DDCFE5F0D7
:10134600E5BFAAEF09F0A8EF09F0E7EF09F0E88199
:10135600E46DE51FD8B0E52BE7EF09F04AC0D9FFE9
:101366004BC0DAFFDECF08F0DDCF09F047EC17F00F
:1013760008C0E4F009C0E5F0C8EF09F04AC0D9FF9B
:101386004BC0DAFFDE2A000EDD22D00E4E6EFF0EB7
:101396004F6E4AC0D9FF4BC0DAFFDECFF6FFDDCF76
:1013A600F7FF0800F550506E516A4E5050264F50C8
:1013B6005122515009E10A0E505CD8A0E5EF09F020
:1013C600E7EF09F0C1EF09F04AC0D9FF4BC0DAFFD9
:1013D600DECFF6FFDDCFF7FF0800F5502E0AD8A4C2
:1013E600F7EF09F0F9EF09F06AEF0AF0000E0001D5
:1013F600E76F000EE66F4AC0D9FF4BC0DAFFDE2A60
:10140600000EDD224AC0D9FF4BC0DAFFDECFF6FF61
:10141600DDCFF7FF0800F5502A0AD8A415EF0AF029
:1014260017EF0AF034EF0AF04AC0D9FF4BC0DAFFD3
:10143600DE2A000EDD224CC0D9FF4DC0DAFFDFCF19
:101446004EF0020EDE26DFCF4FF0000EDD224EC03C
:10145600D9FF4FC0DAFFDECFE6F0DDCFE7F06AEF67
:101466000AF04AC0D9FF4BC0DAFFDECF08F0DDCF65
:1014760009F047EC17F008C0E6F009C0E7F04BEFBB
:101486000AF04AC0D9FF4BC0DAFFDE2A000EDD2281
:10149600D00E4E6EFF0E4F6E4AC0D9FF4BC0DAFF1C
:1014A600DECFF6FFDDCFF7FF0800F550506E516A2C
:1014B6004E5050264F505122515009E10A0E505CB1
:1014C600D8A068EF0AF06AEF0AF044EF0AF04AC0C3
:1014D600D9FF4BC0DAFFDECFF6FFDDCFF7FF0800FE
:1014E600F550076E086A57EC1EF00750566E5650B8
:1014F600D8B480EF0AF082EF0AF0BAEF0AF04AC0D9
:10150600D9FF4BC0DAFFDECF4EF0DDCF4FF0010E34
:101516004E26000E4F224EC0F6FF4FC0F7FF0800C2
:10152600F550076E086A57EC1EF00750576E575075
:10153600D8B4A0EF0AF0A2EF0AF0BAEF0AF04AC058
:10154600D9FF4BC0DAFFDECF4EF0DDCF4FF0020EF3
:101556004E26000E4F224EC0F6FF4FC0F7FF080082
:10156600F550076E086A57EC1EF00750586E660E67
:101576005618D8A4C1EF0AF0C3EF0AF003EF0BF038
:101586004AC0D9FF4BC0DAFFDECFF6FFDDCFF7FF4B
:101596000800F5CF59F04AC0D9FF4BC0DAFFDE2A62
:1015A600000EDD224CC0D9FF4DC0DAFFDFCF4EF072
:1015B600040EDE26DFCF4FF0000EDD224EC0D9FF2F
:1015C6004FC0DAFFDECF52F0DECF53F0DECF54F05D
:1015D600DECF55F048C03CF049C03DF052C03EF069
:1015E60053C03FF054C040F055C041F059C042F0DE
:1015F6004BEC03F03CC048F03DC049F0D9EF0BF08E
:10160600560E016E000E026E8C0E036E060E046EF2
:10161600000E066E020E056EBBEC1AF001500210AB
:10162600D8A418EF0BF01AEF0BF088EF0BF04AC0B6
:10163600D9FF4BC0DAFFDECF4EF0DDCF4FF0010E03
:101646004E26000E4F224EC0F6FF4FC0F7FF080091
:10165600F5CF59F0BF0E4E6EFF0E4F6E4AC0D9FF42
:101666004BC0DAFFDECFF6FFDDCFF7FF0800F550FF
:10167600506E516A4E5050264F505122515007E13C
:101686001A0E505CD8B04AEF0BF04CEF0BF066EF39
:101696000BF04CC0D9FF4DC0DAFFDFCF4EF0040E81
:1016A600DE26DFCF4FF0000EDD224EC0D9FF4FC041
:1016B600DAFFDECF52F0DECF53F0DECF54F0DECFCE
:1016C60055F07EEF0BF04CC0D9FF4DC0DAFFDFCFEF
:1016D6004EF0040EDE26DFCF4FF0000EDD224EC0A8
:1016E600D9FF4FC0DAFFDECF52F0DECF53F0DECFA8
:1016F60054F0DECF55F0020E4AC0D9FF4BC0DAFFD8
:10170600DE26000EDD22EDEF0AF04AC0D9FF4BC0FF
:10171600DAFFDECFF6FFDDCFF7FF0800F550250A2A
:10172600D8A498EF0BF09AEF0BF0B1EF0BF04AC08C
:10173600D9FF4BC0DAFFDE2A000EDD22000E026E54
:10174600250E016E48C003F049C004F026EC1BF0DC
:10175600000E496E010E486ED9EF0BF04AC0D9FF54
:101766004BC0DAFFDE2A000EDD22000E496E000EA7
:10177600486ED9EF0BF04AC0D9FF4BC0DAFFDECF77
:10178600F6FFDDCFF7FF0800F550016E026A48C08C
:1017960003F049C004F026EC1BF04AC0D9FF4BC049
:1017A600DAFFDE2A000EDD22ABEF0BF0120020EE90
:1017B600B6F0040EDE6AE806FDE294908B905E0EAB
:1017C6000001AB6F800EE82EFED7AB2FFCD700F0E2
:1017D6008B80280EE82EFED79480030E0001C86F7A
:1017E600E80EC76F0CEF0CF0C707D8A0C807C751A3
:1017F600C811D8A401EF0CF003EF0CF00CEF0CF0BD
:10180600A9C0D9FFAAC0DAFF000EDF6E000E39EFBD
:101816000EF082B011EF0CF013EF0CF0F7EF0BF0B7
:10182600030EC86FE80EC76F2DEF0CF0C707D8A0E0
:10183600C807C751C811D8A423EF0CF025EF0CF048
:101846002DEF0CF0A9C0D9FFAAC0DAFF000EDF6E9B
:1018560009EF0CF082A032EF0CF034EF0CF019EF28
:101866000CF0030EC86FE80EC76F4EEF0CF0C707FB
:10187600D8A0C807C751C811D8A444EF0CF046EF4A
:101886000CF04EEF0CF0A9C0D9FFAAC0DAFF000E8B
:10189600DF6E09EF0CF082B053EF0CF055EF0CF051
:1018A6003AEF0CF0000EBE6F000EB56F000EBD6F66
:1018B600070EC86FD00EC76F75EF0CF0C707D8A01C
:1018C600C807C751C811D8A46BEF0CF06DEF0CF028
:1018D60075EF0CF0A9C0D9FFAAC0DAFF000EDF6EC3
:1018E60009EF0CF082A07AEF0CF07CEF0CF061EFC0
:1018F6000CF0350EE82EFED700F082A085EF0CF036
:1019060087EF0CF0B9EF0CF00001BD510708AB6F83
:10191600010EAC6FAB2B92EF0CF0D890AC37AB2F1F
:1019260090EF0CF00001AC51B513070EC86FD00E46
:10193600C76FB2EF0CF0C707D8A0C807C751C811C8
:10194600D8A4A8EF0CF0AAEF0CF0B2EF0CF0A9C0E7
:10195600D9FFAAC0DAFF000EDF6E09EF0CF082B0E5
:10196600B7EF0CF0B9EF0CF09EEF0CF00001BD2BB9
:10197600070EBD65C1EF0CF0C3EF0CF05BEF0CF08A
:10198600B60EBE25D96EDA6A000EDA22B5C0DFFFC2
:10199600BE2B040EBE65D2EF0CF0D4EF0CF057EF61
:1019A6000CF0B751B6C0ABF0AC6BAB27000EAC2356
:1019B600B851AB27000EAC23B951AB27000EAC23B0
:1019C600AB51BA19D8B4EAEF0CF0ECEF0CF0F4EF27
:1019D6000CF0A9C0D9FFAAC0DAFF020EDF6E09EF2C
:1019E6000CF0B751B6C0ABF0AC6BABC0ACF0AB6BA8
:1019F600AB11AF6FAC51B06FB951B8C0ABF0AC6BB7
:101A0600ABC0ACF0AB6BAB11BB6FAC51BC6FAFC036
:101A160001F0B0C002F0036A046A000E6DEC16F025
:101A260001C00FF002C010F003C011F004C012F0A4
:101A3600000E136E000E146E200E156E410E166EFD
:101A4600AFEC12F00FC0BFF010C0C0F011C0C1F073
:101A560012C0C2F00001BCBF33EF0DF035EF0DF040
:101A66005AEF0DF0BBC001F0BCC002F0036A046A75
:101A7600000E6DEC16F001C00FF002C010F003C0AE
:101A860011F004C012F0000E136E000E146E200E3C
:101A9600156E410E166EAFEC12F00FC0B1F010C00D
:101AA600B2F011C0B3F012C0B4F089EF0DF0FF0E22
:101AB600AB6F7F0EAC6FBBC0ADF0BCC0AEF0AB5130
:101AC600AD17AC51AE17ADC001F0AEC002F0036A5F
:101AD600046A000E6DEC16F001C00FF002C010F0A3
:101AE60003C011F004C012F0000E136E000E146E47
:101AF600200E156EC10E166EAFEC12F00FC0B1F0CF
:101B060010C0B2F011C0B3F012C0B4F0B1C0C3F04F
:101B1600B2C0C4F0B3C0C5F0B4C0C6F00001C2BFC5
:101B260097EF0DF099EF0DF0E4EF0DF0000E1A6E41
:101B3600000E1B6EC80E1C6E420E1D6EBFC01EF040
:101B4600C0C01FF0C1C020F0C2C021F0BAEC19F02D
:101B5600D8A0B0EF0DF0B2EF0DF0E4EF0DF0C3C07A
:101B66001AF0C4C01BF0C5C01CF0C6C01DF0000EA4
:101B76001E6E000E1F6E200E206EC20E216EBAEC77
:101B860019F0D8A0C9EF0DF0CBEF0DF0E4EF0DF092
:101B9600000E1A6E000E1B6EA00E1C6E420E1D6EFF
:101BA600C3C01EF0C4C01FF0C5C020F0C6C021F0DF
:101BB600BAEC19F0D8B0E2EF0DF0E4EF0DF0ECEF6F
:101BC6000DF0A9C0D9FFAAC0DAFF030EDF6E09EF38
:101BD6000CF0000120EE01F0A951D926AA51DA2213
:101BE600C3C0DEFFC4C0DEFFC5C0DEFFC6C0DEFF69
:101BF60020EE05F0A951D926AA51DA22BFC0DEFF90
:101C0600C0C0DEFFC1C0DEFFC2C0DEFFA9C0D9FF73
:101C1600AAC0DAFF010EDF6E090EA925946F000E29
:101C2600AA21956F760E966F060E976FC3C098F031
:101C3600C4C099F0C5C09AF0C6C09BF005EC1EF072
:101C4600100E0001A925946F000EAA21956F760E3D
:101C5600966F060E976FBFC098F0C0C099F0C1C0CE
:101C66009AF0C2C09BF005EC1EF0010E1200045063
:101C7600800B0D6E045004240F6E03AE45EF0EF07C
:101C860047EF0EF048EF0EF00F800F50D8B44EEF2E
:101C96000EF050EF0EF065EF0EF00F28D8A456EFB9
:101CA6000EF058EF0EF060EF0EF0000E016E000E13
:101CB600026E000E036E000E046E038E000E046E9E
:101CC6006DEF0EF0000E016E000E026E000E036E3A
:101CD600000E046E0850800B0E6E0D500E18D8B410
:101CE60077EF0EF079EF0EF07AEF0EF00D8C0850CC
:101CF60008240E6E07AE82EF0EF084EF0EF085EF2D
:101D06000EF00E800E50D8B48BEF0EF08DEF0EF065
:101D1600A2EF0EF00E28D8A493EF0EF095EF0EF07A
:101D26009DEF0EF0000E056E000E066E000E076E9D
:101D3600000E086E078E000E086EAAEF0EF0000E5B
:101D4600056E000E066E000E076E000E086E0F5032
:101D56000E5CD8B0B1EF0EF0B3EF0EF0DAEF0EF086
:101D66000DACB8EF0EF0BAEF0EF0BCEF0EF0800E31
:101D76000D1A0FC010F00EC00FF010C00EF001C00B
:101D860010F005C001F010C005F002C010F006C04A
:101D960002F010C006F003C010F007C003F010C038
:101DA60007F004C010F008C004F010C008F0000EE0
:101DB600106E0F500EC009F00A6A095E000E0A5A2C
:101DC6000ABEEFEF0EF00A5009E11A0E095CD8A020
:101DD600EFEF0EF0F1EF0EF028EF0FF001500210CA
:101DE60003100410D8A4FAEF0EF0FDEF0EF0010E6A
:101DF600FEEF0EF0000E106E000E016E000E026E6B
:101E0600000E036E000E046E0EC00FF031EF0FF0E1
:101E160010A010EF0FF012EF0FF018EF0FF0D890A0
:101E260010300109106E1AEF0FF0D890103201A091
:101E36001FEF0FF021EF0FF022EF0FF0108E04349A
:101E460004320332023201320F2A0E500F5CD8A040
:101E56002FEF0FF031EF0FF00BEF0FF00DBC36EF59
:101E66000FF038EF0FF078EF0FF00F50D8A43EEFD9
:101E76000FF040EF0FF04AEF0FF0000E016E000E6C
:101E8600026E000E036E000E046E99EF10F0055000
:101E9600012606500222075003220850042204A0FD
:101EA60057EF0FF059EF0FF005EF10F010A05EEFAF
:101EB6000FF060EF0FF066EF0FF0D89010300109C9
:101EC600106E68EF0FF0D890103201A06DEF0FF092
:101ED6006FEF0FF070EF0FF0108E04340432033200
:101EE600023201320F2A05EF10F00550015C065050
:101EF6000258075003580450800A096E0850800A99
:101F06000958D8B089EF0FF08BEF0FF0B6EF0FF04E
:101F16000150055C096E025006580A6E03500758B8
:101F26000B6E045008580C6EFF0E0924016EFF0E4E
:101F36000A20026EFF0E0B20036EFF0E0C20046EAD
:101F4600800E0D1A106C1050D8A4ACEF0FF0AEEF47
:101F56000FF0BEEF0FF0010E0126000E0222032243
:101F66000422BEEF0FF00550015E0650025A0750DC
:101F7600035A0850045A0150021003100410D8A442
:101F8600C7EF0FF0C9EF0FF0FEEF0FF01050D8A417
:101F9600CFEF0FF0D1EF0FF0FEEF0FF0000E016E56
:101FA600000E026E000E036E000E046E99EF10F026
:101FB600D890013602360336043610AEE5EF0FF040
:101FC600E7EF0FF0E8EF0FF0018010A0EDEF0FF054
:101FD600EFEF0FF0F3EF0FF0D8801036F5EF0FF0BC
:101FE600D89010360F50D8B4FBEF0FF0FDEF0FF07E
:101FF600FEEF0FF00F0603AE03EF10F005EF10F043
:10200600DBEF0FF0000E0E6E10AE0CEF10F00EEFC1
:1020160010F026EF10F010C009F07F0E0916D8B4A4
:1020260017EF10F019EF10F01DEF10F0010E0E6E05
:1020360026EF10F001A022EF10F024EF10F026EFAB
:1020460010F019EF10F00E50D8B42CEF10F02EEF60
:1020560010F059EF10F0010E0126000E02220322A5
:10206600042204A039EF10F03BEF10F059EF10F006
:1020760001C009F002C00AF003C00BF004C00CF066
:102086000C340C320B320A32093209C001F00AC094
:1020960002F00BC003F00CC004F00F28D8B456EFC2
:1020A60010F058EF10F059EF10F00F2A0F28D8B49F
:1020B6005FEF10F061EF10F069EF10F00F50D8A449
:1020C60067EF10F069EF10F07BEF10F0000E016E75
:1020D600000E026E000E036E000E046E0F50D8A4A2
:1020E60077EF10F079EF10F07BEF10F0000E0D6E29
:1020F6000FA080EF10F082EF10F085EF10F0038E46
:1021060086EF10F0039ED8900F30046E0DAE8EEF62
:1021160010F090EF10F091EF10F0048E01C001F076
:1021260002C002F003C003F004C004F01200045021
:10213600800B0D6E04500424136E03AEA5EF10F051
:10214600A7EF10F0A8EF10F013801350D8B4AEEF3D
:1021560010F0B0EF10F0C3EF10F01328D8A4B6EFCC
:1021660010F0B8EF10F0C0EF10F0000E016E000E88
:10217600026E000E036E000E046E038ECBEF10F09F
:10218600000E016E000E026E000E036E000E046E4F
:102196000850800B0D1A08500824126E07AED6EFB1
:1021A60010F0D8EF10F0D9EF10F012801250D8B41A
:1021B600DFEF10F0E1EF10F0F4EF10F01228D8A4E2
:1021C600E7EF10F0E9EF10F0F1EF10F0000E056EFA
:1021D600000E066E000E076E000E086E078EFCEFF0
:1021E60010F0000E056E000E066E000E076E000E55
:1021F600086E1250D8B402EF11F004EF11F00CEF94
:1022060011F01350D8A40AEF11F00CEF11F016EFED
:1022160011F0000E016E000E026E000E036E000E2F
:10222600046EAEEF12F007500102F3CF18F0F4CFB0
:1022360019F018500E6E0F6A106A116A1950146E52
:10224600156A166A176A06500202F3CF18F0F4CF21
:1022560019F018500E26000E0F22102211221950C6
:102266001426000E15221622172205500302F3CF5C
:1022760018F0F4CF19F018500E26000E0F22102277
:10228600112219501426000E15221622172210C0EC
:1022960011F00FC010F00EC00FF00E6A05500202CA
:1022A600F3CF18F0F4CF19F018500E2619500F225C
:1022B600000E1022000E112206500102F3CF18F074
:1022C600F4CF19F018500E2619500F22000E1022C6
:1022D600000E112210C011F00FC010F00EC00FF04A
:1022E6000E6A05500102F3CF18F0F4CF19F018501A
:1022F6000E2619500F22000E1022000E1122075032
:102306000202F3CF18F0F4CF19F018501426195022
:102316001522000E1622000E172206500302F3CFD6
:1023260018F0F4CF19F01850142619501522000E83
:102336001622000E172207500302F3CF18F0F4CF2F
:1023460019F01850096E19500A6E0B6A0C6A0BC008
:102356000CF00AC00BF009C00AF0096A09501426ED
:102366000A5015220B5016220C5017220EC009F0E7
:102376000FC00AF010C00BF011C00CF0190EC9EF17
:1023860011F0D8900C320B320A320932E82EC4EF23
:1023960011F0095014260A5015220B5016220C5023
:1023A600172210C011F00FC010F00EC00FF00E6A09
:1023B600125013C009F00A6A0926000E0A22820E7C
:1023C6000924186EFF0E0A20196EFFEF11F0D8903F
:1023D600143615361636173611AEF4EF11F0F6EF41
:1023E60011F0F7EF11F01480D8900E360F36103634
:1023F60011361806D8A0190616AE04EF12F006EF2D
:1024060012F0EAEF11F0000E126E11AE0DEF12F09F
:102416000FEF12F033EF12F0FF0E0E14096EFF0EDF
:102426000F140A6EFF0E10140B6E7F0E11140C6E35
:1024360009500A100B100C10D8B424EF12F026EF36
:1024460012F02AEF12F0010E126E33EF12F014A002
:102456002FEF12F031EF12F033EF12F026EF12F0F9
:102466001250D8B439EF12F03BEF12F05FEF12F0D2
:10247600010E1426000E15221622172217A046EF6B
:1024860012F048EF12F05FEF12F014C009F015C019
:102496000AF016C00BF017C00CF00C340C320B32DD
:1024A6000A32093209C014F00AC015F00BC016F042
:1024B6000CC017F0184A192A19BE6AEF12F0195003
:1024C60008E11828D8A06AEF12F06CEF12F076EF48
:1024D60012F0000E146E000E156E800E166E7F0E34
:1024E600176EA4EF12F019BE83EF12F0195006E131
:1024F6001804D8B081EF12F083EF12F08FEF12F0CC
:10250600000E146E000E156E000E166E000E176E7F
:10251600000E0D6EA4EF12F018C013F0FF0E141685
:10252600FF0E15167F0E1616000E171613A09EEF39
:1025360012F0A0EF12F0A1EF12F0168ED890133021
:10254600176E0D50171214C001F015C002F016C018
:1025560003F017C004F012001250800B1F6E1250C9
:102566001224266E11AEBAEF12F0BCEF12F0BDEFD8
:1025760012F026802650D8B4C3EF12F0C5EF12F041
:10258600DAEF12F02628D8A4CBEF12F0CDEF12F036
:10259600D5EF12F0000E0F6E000E106E000E116ECB
:1025A600000E126E118E000E126EE2EF12F0000E89
:1025B6000F6E000E106E000E116E000E126E16508B
:1025C600800B1F1A16501624276E15AEEDEF12F06B
:1025D600EFEF12F0F0EF12F027802750D8B4F6EFA5
:1025E60012F0F8EF12F00DEF13F02728D8A4FEEF43
:1025F60012F000EF13F008EF13F0000E136E000E4A
:10260600146E000E156E000E166E158E000E166EEA
:1026160015EF13F0000E136E000E146E000E156EFD
:10262600000E166E1350141015101610D8A41EEFB7
:1026360013F020EF13F038EF13F0000E0F6E000EBC
:10264600106E000E116E000E126E800E11127F0EAD
:1026560012121F5012120FC00FF010C010F011C04E
:1026660011F012C012F07BEF14F02650D8A43EEF02
:1026760013F040EF13F04AEF13F0000E0F6E000E4A
:10268600106E000E116E000E126E7BEF14F02750C6
:1026960026C017F0186A175E000E185A7F0E172408
:1026A600206E000E1820216E0FC01BF010C01CF00B
:1026B60011C01DF012C01EF0000E0F6E000E106E3F
:1026C600000E116E000E126E000E226E000E236EAC
:1026D600000E246E000E256E000E276EABEF13F073
:1026E6002750D8B479EF13F07BEF13F092EF13F085
:1026F600D8901B361C361D361E36D8900F3610362F
:102706001136123625AE8AEF13F08CEF13F08DEFEB
:1027160013F00F80D89022362336243625361350F0
:102726001B5C14501C5815501D5816501E58D8A026
:102736009FEF13F0A1EF13F0AAEF13F0258C1350BF
:102746001B5E14501C5A15501D5A16501E5A272A25
:10275600190E2764B1EF13F0B3EF13F073EF13F014
:102766001B501C101D101E10D8B4BCEF13F0BEEF8A
:1027760013F0D6EF13F02280D6EF13F0D8900F3671
:1027860010361136123625AECBEF13F0CDEF13F01F
:10279600CEEF13F00F80D890223623362436253616
:1027A6002006D8A0210611AEDBEF13F0DDEF13F003
:1027B600C1EF13F0000E276E25AEE4EF13F0E6EF3F
:1027C60013F00AEF14F0FF0E2214176EFF0E2314F7
:1027D600186EFF0E2414196E7F0E25141A6E1750EC
:1027E600181019101A10D8B4FBEF13F0FDEF13F000
:1027F60001EF14F0010E276E0AEF14F00FA006EF9A
:1028060014F008EF14F00AEF14F0FDEF13F0275060
:10281600D8B410EF14F012EF14F036EF14F0010EE6
:102826000F26000E10221122122212A01DEF14F004
:102836001FEF14F036EF14F00FC017F010C018F0A9
:1028460011C019F012C01AF01A341A32193218329D
:10285600173217C00FF018C010F019C011F01AC0C7
:1028660012F0204A212A21BE41EF14F0215008E13E
:102876002028D8A041EF14F043EF14F04EEF14F0E7
:10288600000E216E2068000E0F6E000E106E000EF8
:10289600116E000E126E21BE5BEF14F0215006E1A0
:1028A6002004D8B059EF14F05BEF14F069EF14F080
:1028B600000E216E000E206E000E0F6E000E106EC2
:1028C600000E116E000E126E000E1F6E20C026F056
:1028D60026A070EF14F072EF14F075EF14F0118E5D
:1028E60076EF14F0119ED8902630126E2CEF13F06E
:1028F6001200DAC038F0DBC039F0DCC03AF0DDC0D7
:102906003BF028C038F029C039F02AC03AF02BC075
:102916003BF0810E2C6EFF0E2D6E38C02EF039C0A6
:102926002FF03AC030F03BC031F0180EA0EF14F093
:10293600D890313230322F322E32E82E9BEF14F0FF
:102946002E502C24366E000E2D20376E37BEB5EF76
:1029560014F0375009E1170E365CD8A0B5EF14F025
:10296600B7EF14F0C1EF14F028C028F029C029F001
:102976002AC02AF02BC02BF084EF15F037BEC6EF25
:1029860014F0C8EF14F038EF15F036C02CF0FF0E37
:102996002D6EFF0E2E6E7F0E2F6E000E306E2C6685
:1029A600D7EF14F0DFEF14F0303430322F322E32FE
:1029B6002D322C2ED2EF14F02DC032F02EC033F073
:1029C6002FC034F030C035F0325038142C6E3350EE
:1029D60039142D6E34503A142E6E35503B142F6E2A
:1029E6002C502D102E102F10D8A4FCEF14F0FEEF53
:1029F60014F000EF15F0B7EF14F038C02CF039C022
:102A06002DF03AC02EF03BC02FF0200E10EF15F03F
:102A1600D8902F322E322D322C32E82E0BEF15F0B5
:102A26002C502D102E102F10D8B41CEF15F01EEFC1
:102A360015F026EF15F0325038263350392234502F
:102A46003A2235503B22321C2C6E331C2D6E341C20
:102A56002E6E351C2F6E2C5038162D5039162E50D2
:102A66003A162F503B167CEF15F038C02CF039C0C3
:102A76002DF03AC02EF03BC02FF0200E48EF15F097
:102A8600D8902F322E322D322C32E82E43EF15F00D
:102A96002C502D102E102F10D8A454EF15F056EFF1
:102AA60015F060EF15F0000E386E000E396E000E50
:102AB6003A6E000E3B6E7CEF15F0D89038342C6ED3
:102AC60039342D6E3A342E6E3B342F6E2C502D1029
:102AD6002E102F10D8B472EF15F074EF15F07CEFAE
:102AE60015F0000E386E000E396E800E3A6EBF0E6F
:102AF6003B6E38C028F039C029F03AC02AF03BC0F6
:102B06002BF0120020EE13F010EECBF0090EDBCF07
:102B1600E3FFE806FCE20001CB51CC11D8B496EFF6
:102B260015F098EF15F0F0EF15F0D4C01DF0010E7A
:102B36001E6E1D2AA1EF15F0D8901E361D2E9FEF92
:102B460015F0D3C01FF0010E206E1F2AADEF15F051
:102B5600D89020361F2EABEF15F0D2C021F0010E13
:102B6600226E212AB9EF15F0D8902236212EB7EF22
:102B760015F0D1C023F0010E246E232AC5EF15F0FF
:102B8600D8902436232EC3EF15F0D0C025F0010EC1
:102B9600266E252AD1EF15F0D8902636252ECFEFB2
:102BA60015F0CFC027F0010E286E272ADDEF15F0AD
:102BB600D8902836272EDBEF15F028502610241043
:102BC600221020101E10FF0A296ECBC0D9FFCCC0E0
:102BD600DAFF2950DF1623EF16F0800ECD1907E134
:102BE6000F0ECE19D8A4FAEF15F0FCEF15F000EF92
:102BF60016F0000E926E23EF16F0810ECD1907E146
:102C06000F0ECE19D8A40AEF16F00CEF16F010EF3F
:102C160016F0000E936E23EF16F0820ECD1907E123
:102C26000F0ECE19D8A41AEF16F01CEF16F020EFEF
:102C360016F0000E946E23EF16F0000E6CEF16F0F1
:102C4600680E1D6EE40EE82EFED71D2EFCD700D0B2
:102C5600CFC01DF0010E1E6E1D2A34EF16F0D8905F
:102C66001E361D2E32EF16F01E50FF0A1F6ECDC007
:102C7600D9FFCEC0DAFF1F50DF16030E72EC1DF02F
:102C86001A0E1D6EF80EE82EFED71D2EFCD700D0AC
:102C9600030E72EC1DF0540E1D6E1C0EE82EFED7B0
:102CA6001D2EFCD700D0030E72EC1DF0020E72EC46
:102CB6001DF0280EE0EC1EF0060EE0EC1EF0080EED
:102CC6002A6E2A842A50E0EC1EF0010EE0EC1EF07B
:102CD600010E1200096E0950D8B474EF16F076EFA3
:102CE60016F098EF16F004BE7DEF16F07BEF16F0A7
:102CF60098EF16F001C005F002C006F003C007F019
:102D060004C008F0051E061E071E081E052A000E32
:102D160006220722082205C00BF006C00CF007C0E9
:102D26000DF008C00EF0A0EF16F001C00BF002C0C7
:102D36000CF003C00DF004C00EF001500210031099
:102D46000410D8A4A9EF16F0ABEF16F0B5EF16F005
:102D5600000E016E000E026E000E036E000E046E73
:102D660046EF17F0960E0A6EBFEF16F00A2AD890B5
:102D76000E320D320C320B32000E0B14056E000EA5
:102D86000C14066E000E0D14076EFE0E0E14086E61
:102D96000550061007100810D8A4D4EF16F0D6EF89
:102DA60016F0B9EF16F0E4EF16F00A2A010E0B261C
:102DB600000E0C220D220E22D8900E320D320C324D
:102DC6000B32000E0B14056E000E0C14066E000E70
:102DD6000D14076EFF0E0E14086E05500610071030
:102DE6000810D8A4F9EF16F0FBEF16F0D8EF16F09E
:102DF60003EF17F00A06D8900B360C360D360E3652
:102E06000DBE08EF17F00AEF17F012EF17F0020EDB
:102E16000A6010EF17F012EF17F0FDEF16F00AB088
:102E260017EF17F019EF17F01AEF17F00D9ED8905D
:102E36000A320AC005F0066A076A086A05C008F081
:102E4600076A066A056A05500B1206500C120750EF
:102E56000D1208500E120950D8B434EF17F036EFA1
:102E660017F03EEF17F004BE3DEF17F03BEF17F0FB
:102E76003EEF17F00E8E0BC001F00CC002F00DC035
:102E860003F00EC004F01200000E116E000E106E5C
:102E9600000E0F6E000E0E6E53EF17F0084A092A49
:102EA60008C0F6FF09C0F7FF0800F550200AD8B49D
:102EB6005FEF17F061EF17F051EF17F0F70E0A6E9C
:102EC600FF0E0B6E08C0F6FF09C0F7FF0800F550AD
:102ED6000C6E0D6A0A500C260B500D220D5009E19E
:102EE600050E0C5CD8A07AEF17F07CEF17F051EFC7
:102EF60017F086EF17F0000E0F6E010E0E6E084AE1
:102F0600092ABBEF17F008C0F6FF09C0F7FF080053
:102F1600F5500A6E0B6A0B50000AD8B495EF17F0FD
:102F2600BBEF17F00A502B0AD8B482EF17F0060A47
:102F3600D8B47EEF17F0BBEF17F010C001F011C048
:102F460002F0000E046E0A0E036EA9EC1FF008C014
:102F5600F6FF09C0F7FF0800F550015E000E025AA1
:102F6600300E0124106E000E0220116E82EF17F053
:102F7600D00E0A6EFF0E0B6E08C0F6FF09C0F7FFF3
:102F86000800F5500C6E0D6A0A500C260B500D22E7
:102F96000D5009E10A0E0C5CD8A0D4EF17F0D6EF5D
:102FA60017F0A0EF17F00E500F10D8A4DDEF17F0B2
:102FB600DFEF17F0EDEF17F010C00AF011C00BF0BD
:102FC6000A1E0B1E0A4A0B2A0AC008F00BC009F09B
:102FD600F1EF17F010C008F011C009F0120000EC74
:102FE6001FF0C1EC1FF03CEC1DF0500E0001A96F64
:102FF600010EAA6FDAEC0BF00009D8B405EF18F051
:1030060007EF18F039EF18F0010EE0EC1EF0800E15
:10301600E0EC1EF06F0E126E060E136EFDEC1CF049
:10302600590E126E010E136EFDEC1CF0DF0E1DEC38
:103036001FF0920E126E060E136EFDEC1CF0C00E03
:10304600E0EC1EF0680E126E060E136EFDEC1CF020
:10305600600E126E010E136EFDEC1CF08F0E126EDA
:10306600060E136EFDEC1CF085EF18F0010EE0EC79
:103076001EF0800EE0EC1EF0410E126E060E136E70
:10308600FDEC1CF0C00EE0EC1EF06AEF18F05C0ED2
:10309600126E060E136EFDEC1CF085EF18F04F0E47
:1030A600126E060E136EFDEC1CF085EF18F0240E62
:1030B600126E060E136EFDEC1CF085EF18F0010E75
:1030C600126E060E136EFDEC1CF085EF18F0010172
:1030D60050510001C96FCA6BCA51000AD8B476EFC5
:1030E60018F062EF18F0C951000AD8B44AEF18F088
:1030F600020AD8B452EF18F0010AD8B45AEF18F001
:1031060062EF18F0290E0001CA6F960EC96F7F0E86
:10311600E82EFED7C92FFCD7CA2FFAD7F8EF17F03B
:1031260000EF00F00A6ED4C001F0010E026E012A13
:103136009FEF18F0D8900236012E9DEF18F0D3C0FD
:1031460003F0010E046E032AABEF18F0D890043694
:10315600032EA9EF18F0D2C005F0010E066E052A5F
:10316600B7EF18F0D8900636052EB5EF18F0D1C097
:1031760007F0010E086E072AC3EF18F0D89008363C
:10318600072EC1EF18F00850061004100210FF0AAF
:10319600096ECDC0D9FFCEC0DAFF0950DF160AA0EE
:1031A600D7EF18F0D9EF18F0EBEF18F0D1C001F017
:1031B600010E026E012AE2EF18F0D8900236012EB7
:1031C600E0EF18F0CDC0D9FFCEC0DAFF0250DF1213
:1031D6000AA2F0EF18F0F2EF18F004EF19F0D2C0DF
:1031E60001F0010E026E012AFBEF18F0D8900236AC
:1031F600012EF9EF18F0CDC0D9FFCEC0DAFF02508C
:10320600DF120AA409EF19F00BEF19F01DEF19F000
:10321600D3C001F0010E026E012A14EF19F0D89006
:103226000236012E12EF19F0CDC0D9FFCEC0DAFF5B
:103236000250DF120AA622EF19F024EF19F036EF3A
:1032460019F0D4C001F0010E026E012A2DEF19F01B
:10325600D8900236012E2BEF19F0CDC0D9FFCEC083
:10326600DAFF0250DF121200033404340A6E0A50E9
:10327600D8A440EF19F042EF19F04CEF19F0000E08
:10328600016E000E026E000E036E000E046EB9EFA4
:1032960019F001C005F002C006F003C007F004C033
:1032A60008F0200E5CEF19F0D8900832073206328B
:1032B6000532E82E57EF19F00550096E038EFF0E02
:1032C6000116FF0E0216FF0E0316000E0416960ECA
:1032D6000A5E0ABE73EF19F071EF19F089EF19F063
:1032E6000A50800A970FD8B07BEF19F07DEF19F0DE
:1032F6007FEF19F042EF19F0D89004320332023210
:1033060001320A3E7FEF19F0A1EF19F01F0E0A6491
:103316008FEF19F091EF19F099EF19F042EF19F0CC
:10332600D89001360236033604360A060A50D8A467
:103336009FEF19F0A1EF19F093EF19F00950D8B4E7
:10334600A7EF19F0A9EF19F0B1EF19F0041E031E4B
:10335600021E016C000E02220322042201C001F0AB
:1033660002C002F003C003F004C004F01200000E15
:103376001A14226E000E1B14236E800E1C14246E6B
:103386007F0E1D14256E2250231024102510D8A45C
:10339600CFEF19F0D1EF19F0D9EF19F0000E1A6E30
:1033A600000E1B6E000E1C6E000E1D6E000E1E140F
:1033B600226E000E1F14236E800E2014246E7F0EC4
:1033C6002114256E2250231024102510D8A4EEEFC8
:1033D60019F0F0EF19F0F8EF19F0000E1E6E000E5E
:1033E6001F6E000E206E000E216E1DAEFDEF19F051
:1033F600FFEF19F008EF1AF01A6C1B1ED8B01B2A43
:103406001C1ED8B01C2A800E1D5621AE0DEF1AF0D8
:103416000FEF1AF018EF1AF01E6C1F1ED8B01F2AF5
:10342600201ED8B0202A800E2156000E1A1A000E31
:103436001B1A000E1C1A800E1D1A000E1E1A000EF4
:103446001F1A000E201A800E211A1E501A5C1F50D9
:103456001B5820501C5821501D58D8B035EF1AF073
:1034660037EF1AF03AEF1AF0D8903BEF1AF0D880FF
:103476001200DEC00BF0DFC00CF0E0C00DF0E1C0C2
:103486000EF001C00BF002C00CF003C00DF004C03A
:103496000EF00BC005F00CC006F00DC007F00EC014
:1034A60008F0180E5CEF1AF0D89008320732063290
:1034B6000532E82E57EF1AF00550096E0A6A0950D0
:1034C6000A10D8A469EF1AF06BEF1AF08BEF1AF016
:1034D600D8900B34056E0C34066E0D34076E0E3420
:1034E600086E0550061007100810D8A47DEF1AF0D4
:1034F6007FEF1AF085EF1AF0000E026E020E016ED3
:10350600BAEF1AF0000E026E030E016EBAEF1AF051
:1035160009280A10D8A492EF1AF094EF1AF0B6EF21
:103526001AF00BC005F00CC006F00DC007F00EC077
:1035360008F0090ED8900536063607360836E82E06
:103546009DEF1AF00550061007100810D8B4AEEF1C
:103556001AF0B1EF1AF0010EB2EF1AF0000E016E7A
:10356600026ABAEF1AF0000E026E040E016E120025
:1035760001C008F002C009F003C00AF004C00BF055
:103586000506D8A00606052806E10628D8A4CEEF2B
:103596001AF0D0EF1AF0DDEF1AF0000E026E000EF0
:1035A600016E25EF1BF0084A092A0A4A0B2A05066E
:1035B600D8A0060608C0D9FF09C0DAFFDF50D8B484
:1035C600E7EF1AF0E9EF1AF014EF1BF00AC0F6FF66
:1035D6000BC0F7FF0800F5500009D8B4F5EF1AF054
:1035E600F7EF1AF014EF1BF005500610D8B4FEEFF3
:1035F6001AF000EF1BF014EF1BF008C0D9FF09C04A
:10360600DAFFDF50076E0AC0F6FF0BC0F7FF0800AF
:10361600F5500718D8B412EF1BF014EF1BF0D6EFD5
:103626001AF008C0D9FF09C0DAFFDF50076E0AC0DA
:10363600F6FF0BC0F7FF0800F550075C016E026A43
:10364600D8A00206120003500410D8B42DEF1BF0C8
:103656002FEF1BF038EF1BF003500410D8A436EF01
:103666001BF038EF1BF03DEF1BF00150C4EC1FF0D0
:103676008AEF1BF020EE09F00350D9260450DA2217
:10368600DE50DE10D8B44AEF1BF04CEF1BF067EFAC
:103696001BF020EE09F00350D9260450DA2210EE72
:1036A60003F00350E1260450E222DE50E65CE650C9
:1036B600800A096EDE50800A0958D8B065EF1BF003
:1036C60067EF1BF08AEF1BF020EE03F00350D926BC
:1036D6000450DA22DECF05F0DDCF06F003C0D9FFB5
:1036E60004C0DAFFDECF07F0DDCF08F0055007246F
:1036F600D96E06500820DA6E01C0DFFF20EE03F017
:103706000350D9260450DA22DE2A000EDD221200EA
:103716000001E8A191EF1BF093EF1BF09DEF1BF06A
:1037260013C00AF014C00BF011C00CF012C00DF05B
:103736009DEC1EF016BEA2EF1BF0A4EF1BF0AAEF45
:103746001BF015C01AF016C01BF0AEEF1BF0000EF2
:103756001B6E000E1A6E000E196E000E186EC0EF6C
:103766001BF0000E026E200E016E11C003F012C097
:1037760004F026EC1BF0184A192A1A50185C195046
:10378600800A176E1B50800A1758D8A0CDEF1BF081
:10379600CFEF1BF0B4EF1BF00001E8B1D5EF1BF043
:1037A600D7EF1BF0E1EF1BF013C00AF014C00BF0CB
:1037B60011C00CF012C00DF09DEC1EF013C001F00C
:1037C60014C002F08EEC1FF01A500124116E1B502B
:1037D6000220126E1200000E066E04BEF7EF1BF0FA
:1037E600F5EF1BF0FDEF1BF0036C041ED8B0042AA6
:1037F600010E066E02BE04EF1CF002EF1CF00AEF8B
:103806001CF0016C021ED8B0022A010E061A000E28
:10381600086E000E076E03500410D8B415EF1CF0A6
:1038260017EF1CF03FEF1CF0010E056E1FEF1CF0AA
:10383600D89003360436052A04AE24EF1CF026EF92
:103846001CF01BEF1CF0D890073608360350015CBD
:1038560004500258D8A032EF1CF034EF1CF039EFB8
:103866001CF00350015E0450025A0780D8900432BF
:103876000332052E26EF1CF00650D8B445EF1CF097
:1038860047EF1CF04BEF1CF0076C081ED8B0082A57
:1038960007C001F008C002F01200000E066E02BE5C
:1038A60059EF1CF057EF1CF05FEF1CF0016C021E85
:1038B600D8B0022A010E066E04BE66EF1CF064EF55
:1038C6001CF06AEF1CF0036C041ED8B0042A0350E7
:1038D6000410D8B471EF1CF073EF1CF097EF1CF0D6
:1038E600010E056E7BEF1CF0D89003360436052AD0
:1038F60004AE80EF1CF082EF1CF077EF1CF0035053
:10390600015C04500258D8A08BEF1CF08DEF1CF020
:1039160091EF1CF00350015E0450025AD890043215
:103926000332052E82EF1CF00650D8B49DEF1CF032
:103936009FEF1CF0A3EF1CF0016C021ED8B0022A08
:1039460001C001F002C002F01200000E0114096E5F
:10395600000E02140A6E800E03140B6E7F0E041402
:103966000C6E09500A100B100C10D8A4BDEF1CF0F9
:10397600BFEF1CF0C7EF1CF0000E016E000E026ECA
:10398600000E036E000E046E000E0514096E000E86
:1039960006140A6E800E07140B6E7F0E08140C6E4A
:1039A60009500A100B100C10D8A4DCEF1CF0DEEF47
:1039B6001CF0E6EF1CF0000E056E000E066E000E03
:1039C600076E000E086E055001180FE1065002182A
:1039D6000CE10750031809E108500418D8B4F6EFB3
:1039E6001CF0F8EF1CF0FBEF1CF0D890FCEF1CF07D
:1039F600D8801200000E176E000E166E1DEF1DF019
:103A060016501224146E17501320156E14C0F6FFAC
:103A160015C0F7FFF86A050EF76403D00800F550E5
:103A260005D0F6CFE9FFF7CFEAFFEF501DEC1FF008
:103A3600164A172A16501224146E17501320156EA4
:103A460014C0F6FF15C0F7FFF86A050EF76403D039
:103A56000800F55005D0F6CFE9FFF7CFEAFFEF50A3
:103A66000009D8A439EF1DF03BEF1DF003EF1DF060
:103A7600120020EEEAF010EE2DF0090EDBCFE3FF88
:103A8600E806FCE220EE2DF000EE13F0090EDBCF87
:103A9600EBFFE806FCE285EC15F0010EE0EC1EF00B
:103AA600800EE0EC1EF0330E126E060E136EFDEC69
:103AB6001CF0C00EE0EC1EF0130E126E060E136E16
:103AC600FDEC1CF0290E2C6E960E2B6E7F0EE82E4A
:103AD600FED72B2EFCD72C2EFAD700F012000E6E36
:103AE6000E5095EC18F0D0C00BF0010E0C6E0B2AA0
:103AF6007FEF1DF0D8900C360B2E7DEF1DF0CDC05C
:103B0600D9FFCEC0DAFF0C50DF12150E0B6EC60EB3
:103B1600E82EFED70B2EFCD700D0D0C00BF0010E3E
:103B26000C6E0B2A99EF1DF0D8900C360B2E97EFE2
:103B36001DF00C50FF0A0D6ECDC0D9FFCEC0DAFFC6
:103B46000D50DF1612005CC092F05DC093F0000EBF
:103B56000001E36F000EE26FC4EF1DF05AC048F09B
:103B66005BC049F0920E4A6E000E4B6E5EC04CF082
:103B76005FC04DF052EC09F048500001E227495071
:103B8600E32392C0F6FF93C0F7FF0800F550000943
:103B9600D8A4D0EF1DF0D2EF1DF0B1EF1DF0E2C0BA
:103BA6005AF0E3C05BF0120003C007F004C008F04F
:103BB60001C009F002C00AF00750056E0850066EF3
:103BC600074A082A05C0F6FF06C0F7FFF86A09C0CB
:103BD600D9FF0AC0DAFF094A0A2A050EF76403D09C
:103BE6000800F55005D0F6CFE9FFF7CFEAFFEF5012
:103BF600DF6EDF50D8A402EF1EF004EF1EF0DFEFF9
:103C06001DF01200980E00019C6F000E9D6F94C06F
:103C16009EF095C09FF0000EA26F000EA16F000EE1
:103C2600A86F000EA76F9E0E5A6E000E5B6E96C0B2
:103C36005CF097C05DF09C0E5E6E000E5F6EA6ECAB
:103C46001DF00001A1519425D96EA2519521DA6E7D
:103C5600000EDF6E1200010E076E200E0118021014
:103C6600D8B438EF1EF03AEF1EF053EF1EF0F70E01
:103C7600036EFF0E046E01C005F002C006F003508D
:103C8600052604500622065009E1050E055CD8A05B
:103C96004FEF1EF051EF1EF053EF1EF0000E076EB1
:103CA60007C001F0026A1200BF0E096EFF0E0A6E0F
:103CB60007C00BF008C00CF009500B260A500C2266
:103CC6000C5007E11A0E0B5CD8B06CEF1EF06EEFCD
:103CD6001EF075EF1EF0200E0710076E0850086ED6
:103CE60079EF1EF007C007F008C008F01200000EBA
:103CF6001E1A000E1F1A000E201A800E211A1AC054
:103D060001F01BC002F01CC003F01DC004F01EC071
:103D160005F01FC006F020C007F021C008F03AECFD
:103D26000EF001C01AF002C01BF003C01CF004C064
:103D36001DF01200000E106E000E0F6EAEEF1EF09C
:103D46000EC001F0026A0CC003F00DC004F026ECB0
:103D56001BF00F4A102A0F500A24D96E10500B2060
:103D6600DA6EDF500E6E0E50D8A4BCEF1EF0BEEF1A
:103D76001EF0A3EF1EF01200780EF66E3F0EF76EE1
:103D8600000EF86E00EEEAF010EE0AF00900F5CF2C
:103D9600EEFFE550E150FAE101EE00F0660EEE6A44
:103DA600E806FDE100EECBF01F0EEE6AE806FDE147
:103DB600000EF86E0001F2EF17F0126ECFC00FF092
:103DC600010E106E0F2AEAEF1EF0D89010360F2E55
:103DD600E8EF1EF01050FF0A116ECDC0D9FFCEC01D
:103DE600DAFF1150DF1612380F0B0F0B72EC1DF0B5
:103DF60012500F0B72EC1DF01200000E0F01386FFF
:103E0600000E396F000E3A6F000E926E000E936E22
:103E1600800E946E000E896E000E8A6E000E8B6EFA
:103E2600700ED312340E016EF20EE82EFED7012E5E
:103E3600FCD71200116ECFC00FF0010E106E0F2AC4
:103E460027EF1FF0D89010360F2E25EF1FF0CDC0AC
:103E5600D9FFCEC0DAFF1050DF1211380F0B0F0B4F
:103E660072EC1DF011500F0B72EC1DF01200BF0E1C
:103E7600036EFF0E046E01C005F002C006F003508B
:103E860005260450062206500AE11A0E055CD8A043
:103E96004FEF1FF052EF1FF0010E53EF1FF0000E11
:103EA600016E026A12000150021003100410D8B409
:103EB6005FEF1FF061EF1FF069EF1FF0000E011AB0
:103EC600000E021A000E031A800E041A01C001F039
:103ED60002C002F003C003F004C004F01200D00ECA
:103EE600036EFF0E046E01C005F002C006F003501B
:103EF60005260450062206500AE10A0E055CD8A0E3
:103F060087EF1FF08AEF1FF0010E8BEF1FF0000EF8
:103F1600016E026A120001C003F002C004F096EFBF
:103F26001FF0014A022A01C0D9FF02C0DAFFDF50A2
:103F3600D8A4A0EF1FF0A2EF1FF094EF1FF00350DC
:103F4600015C016E04500258026E12000150030219
:103F5600F3CF05F0F4CF06F001500402F350062625
:103F660002500302F350062605C001F006C002F017
:103F76001200930F810F00010405060794908B80B1
:043F86001200120013
:020000040020DA
:08000000FFFFFFFFFFFFFFFF00
:020000040030CA
:0E000000FF28193CFFB581FF0FC00FE00F4035
:00000001FF
